:020000040800F2
:10000000E0270020A10200083F3000087521000809
:100010003D3000082B150008517800080000000052
:10002000000000000000000000000000FD010008CA
:1000300099160008000000004102000859650008F8
:10004000BB020008BB020008BB020008BB0200089C
:10005000BB020008BB0200086D1700083918000831
:100060006118000889180008B1180008BB020008D0
:10007000BB020008BB020008BB020008BB0200086C
:10008000BB020008BB020008BB020008BB0200085C
:10009000BB020008BB020008BB020008D918000818
:1000A000BB020008BB020008BB020008BB0200083C
:1000B000BB020008BB020008D1650008BB020008B3
:1000C000BB020008BB020008BB020008BB0200081C
:1000D000BB020008316B0008A56B0008BB020008DA
:1000E00095170008E1330008BB020008BB020008B6
:1000F000BB02000800F002F800F06EF80AA090E8D9
:10010000000C82448344AAF10107DA4501D100F0D2
:1001100063F8AFF2090EBAE80F0013F0010F18BF31
:10012000FB1A43F00103184730DF000050DF0000E6
:100130000A444FF0000C10F8013B13F0070408BF0D
:1001400010F8014B1D1108BF10F8015B641E05D0AB
:1001500010F8016B641E01F8016BF9D113F0080F60
:100160001EBF10F8014BAD1C0C1B09D16D1E58BFF2
:1001700001F801CBFAD505E014F8016B01F8016B29
:100180006D1EF9D59142D6D370470000002300249C
:1001900000250026103A28BF78C1FBD8520728BF97
:1001A00030C148BF0B607047642900F0FD8078299A
:1001B00000F03681732900F01485002070471FB5C8
:1001C00000F066FD0400002000210CF04BF8401CFC
:1001D00060601FBD10B510BD00F06CFD1146FFF74B
:1001E000EEFF0AF009FA00F08AFD03B4FFF7F2FF10
:1001F00003BC00F08DFD000070470000204B196823
:100200000868B0E8F00F80F30988BFF36F8F4FF0F4
:10021000000080F311884EF00D0E704700000000C2
:1002200006480068006880F3088862B661B6BFF3CC
:100230004F8FBFF36F8F00DF00BF00BF08ED00E0FE
:10024000EFF30980BFF36F8F0D4B1A6820E9F00FB1
:10025000106008B54FF0500080F311880BF050FB90
:100260004FF0000080F31188BDE808401968086865
:10027000B0E8F00F80F30988BFF36F8F704700BFBD
:10028000F0010020EFF311804FF0500181F311884D
:10029000704780F311887047EFF3058070470000C6
:1002A0000948804709480047FEE7FEE7FEE7FEE70A
:1002B000FEE7FEE7FEE7FEE7FEE7FEE70448054946
:1002C000054A064B704700007D650008F5000008F0
:1002D000E0210020E0270020E0230020E023002090
:1002E0000FB41CB5074B06AA7B44694600900598DD
:1002F00000F04DFC0020694600F05CFC1CBC5DF881
:1003000014FB0000C908000070B504468569006848
:10031000C10601D5302600E02026C00707D070BDF9
:10032000D4E9012130469047206A401C20626D1EAE
:10033000F6D570BD70B5044685690078C00707D151
:1003400070BDD4E9012120209047206A401C206222
:100350006D1EF6D570BD70B50C460546012A05D058
:100360002878800600D5EA69002302E0012305E031
:100370005B1C934202D2E05C0028F9D1A869E61820
:10038000C01AA861286A184428622846FFF7BCFFF3
:1003900004E0D5E9012114F8010B9047B442F8D3E9
:1003A0002846FFF7C7FF70BD2DE9F041064600243F
:1003B00010687529314616A510D0AFF300800028CB
:1003C00002DA404213A507E031688A0701D512A579
:1003D00002E0490704D511A5012401E0AFF3008034
:1003E00000210A2206F1240709E0B0FBF2FCB0FB71
:1003F000F2F302FB1C00303078541846491C0028E8
:10040000F3D123462A463046BDE8F04100F061BBF7
:10041000000000002D0000002B0000002000000064
:1004200070B504460D4621461068AFF30080218860
:10043000090502D50F4A7A4402E00E4A7A440E3288
:10044000002104F1240305E000F00F060009965D89
:100450005E54491C0028F7D120780023000704D5FA
:10046000702D02D009B1022311322046BDE8704040
:1004700000F02FBBBED800002DE9F05F894604468E
:100480004FF0000ADFF824B1FB44C0F820A020465A
:10049000E168884700287DD0252806D0D4E90121CD
:1004A0009047206A401C2062F1E700255F46204605
:1004B000E16888472028064607DB312E05D2B819A7
:1004C00010F8200C08B10543F1E7A80701D525F085
:1004D0000405C4F81CA00027C4F818A02A2E09D0CF
:1004E000304607F0CFF938B304EB8708303EC8F840
:1004F000186019E059F8041B204604EB870291614B
:10050000E1688847012F064618D1E069002820DA03
:1005100025F020051DE0D8F8180000EB800006EB60
:1005200040003038C8F818002046E1688847064681
:1005300007F0A8F90028EED1012F0AD02E2E08D1FD
:100540002046E16888477F1C0646022F45F02005BB
:10055000C4DBA069002803DA404245F00105A06130
:10056000E80701D025F01005A6B1A6F14100192831
:1005700002D8203645F400654A46314620462560BB
:100580004D46FFF711FE60B1012807D0ED1D25F0A3
:10059000070000E007E000F1080978E705F1040929
:1005A00075E730467AE7206ABDE8F09F94D80000EE
:1005B0002DE9F04791460F4680460446002614F880
:1005C000015B2DB100F06CFA0068405DC007F6D108
:1005D0002B2D02D02D2D18D0641E4A4639462046B8
:1005E00000F003FB27B13968A14201D1C7F80080B0
:1005F0004FF0020471050BD54042002803DD00F0E6
:1006000057FA0460A007BDE8F08746F48066E4E787
:100610000028F8DA00F04CFA04606FF00040F2E7CE
:100620002DE9F05F93460F4680460446002600F011
:100630003FFAD0F80090824614F8015B2DB100F02B
:100640002FFA0068405DC007F6D12B2D02D02D2D6A
:100650001AD0641E0021CAF800105A4639462046B6
:1006600000F0C3FA014627B13868A04201D1C7F8AB
:100670000080DAF80000022809D0CAF8009070055E
:1006800005D54842BDE8F09F46F48066E2E708469B
:10069000F8E740EA010310B59B070FD1042A0DD3F8
:1006A00010C808C9121F9C42F8D020BA19BA884253
:1006B00001D9012010BD4FF0FF3010BD1AB1D30792
:1006C00003D0521C07E0002010BD10F8013B11F8C8
:1006D000014B1B1B07D110F8013B11F8014B1B1BF1
:1006E00001D1921EF1D1184610BD2DE9F041054609
:1006F00090460E460020044600E0641C44450BD2A0
:10070000285D00F0D9F90746305D00F0D5F9381AB8
:1007100002D1295D0029F0D1BDE8F0812DE9F04139
:100720000E460546002400E0641C285D00F0C4F974
:100730000746305D00F0C0F9381A02D1295D002962
:10074000F2D1BDE8F08110B5431C02E010F8011BA6
:1007500071B18107FAD14FF0013202C88C1A8C4373
:1007600014EAC211F9D0C01A0A0603D0C01E10BD87
:10077000C01A10BD0A0401D0801E10BD0902FCD0B1
:10078000401E10BD40EA010370B59B072ED14FF00B
:100790000136042A2AD308C810C99D1B9D43121F85
:1007A00015EAC61517D0D8B2E1B2401A50EA056171
:1007B00010D198B2A1B2401A50EA05410AD123F0F3
:1007C0007F4024F07F41401A50EA052102D1180EE3
:1007D000A0EB146070BDA342DBD018BA21BA8842E6
:1007E00001D9012070BD4FF0FF3070BD0AB9002063
:1007F00070BD10F8013B11F8014B63B1A3420AD15F
:10080000521E08D010F8013B11F8014B1BB1A34256
:1008100001D1521EEDD1181B70BD421E12F8013FCE
:10082000002BFBD111F8013B002B02F8013BF9D161
:100830007047032A40F2308010F0030C00F015805E
:1008400011F8013BBCF1020F624498BF11F801CBD3
:1008500000F8013B38BF11F8013BA2F1040298BF38
:1008600000F801CB38BF00F8013B11F0030300F0A2
:100870002580083AC0F0088051F8043B083A51F846
:1008800004CBA0E80810F5E7121D5CBF51F8043B4B
:1008900040F8043BAFF30080D20724BF11F8013BBE
:1008A00011F801CB48BF11F8012B24BF00F8013B20
:1008B00000F801CB48BF00F8012B704710B5203A73
:1008C000C0F00B80B1E81850203AA0E81850B1E809
:1008D0001850A0E81850BFF4F5AF5FEA027C24BFBF
:1008E000B1E81850A0E8185044BF18C918C0BDE8B6
:1008F00010405FEA827C24BF51F8043B40F8043B7F
:1009000008BF7047D20728BF31F8023B48BF11F833
:10091000012B28BF20F8023B48BF00F8012B70478D
:1009200002F0FF0343EA032242EA024200F002B867
:100930004FF000020429C0F0128010F0030C00F008
:100940001B80CCF1040CBCF1020F18BF00F8012B86
:10095000A8BF20F8022BA1EB0C0100F00DB85FEA54
:10096000C17C24BF00F8012B00F8012B48BF00F820
:10097000012B70474FF0000200B51346944696468F
:10098000203922BFA0E80C50A0E80C50B1F12001A2
:10099000BFF4F7AF090728BFA0E80C5048BF0CC050
:1009A0005DF804EB890028BF40F8042B08BF7047AE
:1009B00048BF20F8022B11F0804F18BF00F8012B20
:1009C000704710B5044610F0030F08BF11F0030F75
:1009D00040F015804FF0013E121FC0F20E8051F81A
:1009E000043BA3EB0E0C2CEA030C1CEACE1C08BF44
:1009F00040F8043BF0D0A1F1040102F10402521EC0
:100A000008DB11F8013B002B00F8013BF7D1114640
:100A1000FFF78EFF204610BD4FF0013C50F8042B2D
:100A200051F8043B9A4221D1A2EB0C03934313EA01
:100A3000CC1317D150F8042B51F8043B9A4215D12E
:100A4000A2EB0C03934313EACC130BD150F8042B05
:100A500051F8043B9A4209D1A2EB0C03934313EAE9
:100A6000CC13DBD04FF00000704700BFD01A01BAA2
:100A7000B1FA81F101F0180122FA01F0CB40C1F185
:100A80002001DBB2C0B2C01A2CFA01F3D11A914393
:100A900011EAC311E6D170477047704770470000F4
:100AA00010B500F0F5F8001D10BD00BFB9B700008B
:100AB000004870477C21002010B50446FFF7F0FF86
:100AC0000068005DC00602D504F1200010BD20467C
:100AD00010BD2DE9F0470D4699469246044600F1B7
:100AE00024080168880604D5E06921F0100121601E
:100AF00000E00120A84201DD471B00E00027A169BA
:100B00007A1902EB0900081AA0612078C00602D405
:100B10002046FFF7F9FB002608E0D4E901211AF886
:100B200006009047206A401C761C20624E45F4DB8C
:100B30002078C0060AD52046FFF7E6FB06E0D4E998
:100B4000012130209047206A401C2062381EA7F106
:100B50000107F4DC07E0D4E9012118F8050090470B
:100B6000206A401C2062281EA5F10105F3DC204606
:100B7000FFF7E0FB2078000602D50220BDE8F087F1
:100B80000120FBE701694A1C02610878704700B543
:100B90008FB0CDE901310021059105497944CDE9B6
:100BA000031011466846FFF767FC0FB000BD000058
:100BB000E5FFFFFF0A6802F8010B0A60704710B5F5
:100BC000436913B1AFF3008001E0FFF7C4FB0120DC
:100BD00010BD127800F124010A7000224A7001222F
:100BE000EDE711684FF0FF32E9E72DE9F05F82464B
:100BF00015468B4600270AF10104B94600783028D3
:100C000001D09DB113E014F8010B0127782803D01F
:100C1000582801D045B10AE00DB1102D07D10027A9
:100C200014F8010B102502E0082500E00A25002633
:100C3000B0460EE005FB080005FB06F101271FFA90
:100C400080F801EB1046B6F5803F00D3B94614F8A2
:100C5000010B294600F020F80028EBDABBF1000F69
:100C600005D00FB1641E00E05446CBF80040B9F146
:100C7000000F06D0FFF71CFF02210160C81EBDE86F
:100C8000F09F48EA0640FAE7004870477C210020C0
:100C9000004870479C2100203A2800D2303820F0CC
:100CA0002002412A01D3A2F13700884201D34FF03C
:100CB000FF3070477546FFF7E7FFAE46050069460F
:100CC000534620F00700854618B020B5FFF7F6FA26
:100CD000BDE820404FF000064FF000074FF000083D
:100CE0004FF0000B21F00701AC46ACE8C009ACE8BE
:100CF000C009ACE8C009ACE8C0098D46704710B522
:100D00000446AFF300802046BDE81040FFF76DBAFF
:100D100001491820ABBEFEE72600020070470029FB
:100D2000816802D041F0010101E021F00101816000
:100D300070470000034A1168006821F440310843FD
:100D40001060704704270140074910B588420AD156
:100D500044150121204602F04BFA2046BDE8104020
:100D6000002102F045BA10BD00240140826822F043
:100D7000F0020A4382607047806D80B2704702467D
:100D8000002012680A4200D00120704730B5426846
:100D90000F4B0C791A400B6842EA0422134343605C
:100DA00082680C4B4D791A40D1E9034323438C6888
:100DB00044EA4504234313438360026B097D22F018
:100DC000F872491EC9B242EA0151016330BD000008
:100DD000FFFEFFFCFDF7FFC0002A426801D00A4376
:100DE00000E08A434260704770B507251D290AD983
:100DF000C66DA1F11E0404EB4404A540AE43A3401C
:100E00001E43C66521E013290AD9C668A1F114045E
:100E100004EB4404A540AE43A3401E43C66014E067
:100E200009290AD90669A1F10A0404EB4404A54082
:100E3000AE43A3401E43066107E0466901EB41044F
:100E4000A540AE43A3401E4346611F23072A09D293
:100E5000046C521E02EB820293409C4391400C436F
:100E6000046470BD0D2A09D2C46BD21F02EB82024A
:100E700093409C4391400C43C46370BD132A09D234
:100E8000846B0D3A02EB820293409C4391400C43E9
:100E9000846370BD192A09D2446B133A02EB8202B3
:100EA00093409C4391400C43446370BD046B193ADA
:100EB00002EB820293409C4391400C43046370BD5B
:100EC000816841F0804181607047002101600171BB
:100ED00041714FF04072C0E90212016101210175B8
:100EE0007047000005490028086802D040F400005F
:100EF00001E020F400000860704700000427014072
:100F000070B588B000250C460A460646694600952D
:100F1000019502950846039506F0BBFC9DF800007C
:100F20006A46000628460FD51318115C5B78490005
:100F300041EAD3111154401C0F28F5DB9DF80F0036
:100F4000400080F087000CE01318115C5B784900CA
:100F500041EAD3111154401C0F28F5DB9DF80F0016
:100F600040008DF80F00D4F81401102814D09DF81B
:100F7000000000061CD500201318115C5B784900A6
:100F800041EAD3111154401C0F28F5DB9DF80F00E6
:100F9000400080F0870019E000202118155C91F8CE
:100FA0000131401C6B4081F801311028F5DB29E04C
:100FB00000215318505C5B78400040EAD310505435
:100FC000491C0F29F5DB9DF80F0040008DF80F003C
:100FD000D4F8143104F201118020585400E0455433
:100FE000D4F81401401CC4F814011028F7D30020D1
:100FF0002118155C91F80131401C6B4081F80131DA
:101000001028F5DB00202118401C11F8F12F0B7C73
:101010005A400A701028F6DB102204F1F10104A8EE
:10102000FFF707FC2246314604A806F032FC08B060
:1010300070BD10B504461021F130FFF779FC002097
:10104000C4F814012046BDE81040F021FFF792BC1F
:101050000B4602461021184606F042BC2DE9FF4718
:101060000546D0F814010E46144605F2011805F1A4
:10107000F10918B3C0F11007A74200D31746404446
:101080003A463146FFF7D5FBD5F814013844C5F888
:101090001401102837D3BC4235D000202918401C39
:1010A00011F8F12F0B7C5A400A701028F6DB4946E4
:1010B0002A46084606F0EDFB3E44E41B1AE00022F7
:1010C000A818B35C10F8F11F521C59400170102A87
:1010D000F6DB102249466846FFF7ABFB69462A4615
:1010E000084606F0D6FB102269464846FFF7A1FBEA
:1010F000103C1036102CE2D8224631464046FFF70D
:1011000098FBC5F81441BDE8FF87000070B50446A0
:1011100000254068032225A1FFF7E7FA10B324A1B8
:101120006068FFF7FBFA38B323A16068FFF7F6FAAF
:1011300048B322A16068FFF7F1FA30B321A16068DB
:10114000FFF7ECFA30B321A16068FFF7E7FA28B1A6
:101150001FA16068FFF7E2FAF8B16D1E284609F09A
:10116000F1FD21E06088402802D2204606F036FCDE
:10117000204609F0BFFD04E0204606F02FFC06F0F3
:10118000EDFC0546EAE701F0A9FF03F0EDFA04F0F3
:101190001FFDF8E704F01CFDE0E70E48408800283A
:1011A000DCD00C48FFF7B2FF284670BD41542B003D
:1011B000415426480000000041545A00415426463C
:1011C0000000000041542657000000004154000078
:1011D000412F0000940100202DE9F041044688B021
:1011E0001E4615460F46012002F086F8212002F027
:1011F0005FF80028FAD04FF400780121404601F052
:10120000EBFF4FF40030069006A8FFF793FD684609
:10121000FFF75BFE002034B1012C06D0022C07D072
:10122000032C08D00AE0009008E04FF0807104E041
:101230004FF0007101E04FF0407100918DF8040013
:10124000012117B38DF8051015B3012D22D0022D01
:1012500023D04FF0405202920EB14FF40060104C78
:1012600004908DF8141069462046FFF78FFD102179
:101270002046FFF77BFD0021404601F0ADFF002036
:1012800002F03AF808B0BDE8F0818DF80500DBE720
:101290000290E1E74FF08052DDE74FF00052DAE7CD
:1012A0000024014000B585B00948FFF74DFD00203E
:1012B0000090034601900322102102A800F0A2FD35
:1012C00000231A4619461846FFF786FF05B000BDF1
:1012D000002401402DE9F0410446012002F00CF801
:1012E000212001F0E5FF0028FAD001214D02284617
:1012F00001F072FF102C01D0112C02D10120FFF758
:10130000F1FD1E4E0623012221463046FFF76CFDFB
:1013100010213046FFF72AFD01224FF440313046BC
:10132000FFF75AFD01213046FFF7F9FC4021304616
:10133000FFF725FD0028F9D03046FFF7C1FD022157
:101340003046FFF71CFD0028F9D03046FFF714FDAA
:10135000074600213046FFF7E2FC102C01D0112C8B
:1013600002D10020FFF7BEFD0021284601F034FF26
:10137000002001F0C1FF3846BDE8F08100240140A3
:10138000F0B587B0002400901D4E029103918DF8B6
:101390001020012705938DF804702346621E214614
:1013A000B0680AF06DFB012800D0FEE7154D04EB94
:1013B000440005EBC000007988B1042C1ED0641CE9
:1013C000E4B2052CF3D300231A461946B0680AF09C
:1013D00028FC04EB440007B005EBC000F0BD04EBB3
:1013E000440005EBC00018226946FFF767FA307821
:1013F0000028E8D100F0FEFE3770E4E7FEE70000C9
:10140000080000207C02002010B586B00024009463
:1014100023460322602102A8019400F0F3FC00940B
:1014200000230322612102A8019400F0EBFC0023B9
:1014300000941A462E2102A8019400F0E3FC002338
:1014400000941A462F2102A8019400F0DBFC04F05E
:101450009BFE06B010BD0000174951F8502F120E28
:1014600002700A68120C42704A68120C82704A6854
:10147000120EC2700A7D02718A8A120A42714A698A
:10148000120C82714A69120EC2718A8A120A0272A1
:101490000A7D42720A7882720A88120AC2720A6847
:1014A000120C02730A68120E42730A7982738988D9
:1014B000090AC173704700000000F81F10B54FF40F
:1014C000407001F0EFFD012004F0C6FE03F012FAB7
:1014D000BDE81040AFF3008010B586B000210120B8
:1014E00000F0CEF80021022000F0CAF8002104200C
:1014F00000F0C6F800240094234603220D2102A820
:10150000019400F07FFC0094002303220E2102A826
:10151000019400F077FC009401230322122102A819
:10152000019400F06FFC06B010BDFEE72DE9FE430C
:10153000204F04461E4D97F901001F4E07282DD05D
:10154000305C294602F082FF4FF0010804F10802E6
:10155000CDF80080CDE901240A23062202F017FF0E
:10156000B87810B101281DD0144D124834300079DC
:10157000072819D0305C294602F068FF221D04F1CB
:101580000C03CDF80080CDE901320A23062202F0D7
:10159000FEFEE06838620020BDE8FE83F07902F0CC
:1015A00047FFD1E7064DE0E7F07902F041FFE5E7BC
:1015B00048E801009000002086D5000820A107001F
:1015C00090D0030000221146042004F037BC000034
:1015D00010B5002218210A200AF02AFA084C60608F
:1015E00001200AF0FDF9A06078210648FFF7C2F952
:1015F00000F0C8FDBDE81040034800F0F5BD000054
:10160000080000207C020020B96600080549002877
:10161000086802D040F4807001E020F48070086017
:1016200070470000043C02400248016841F001019B
:1016300001607047043C024070B505464FF4004617
:101640000C46304600F016FA042805D12C603046CE
:10165000BDE8704000F00EBA70BD0000054800689B
:10166000C00705D003480449083001600349016000
:1016700070470000043C0240EFCDAB890504030233
:10168000044A0029516801D0014300E081435160C0
:1016900070470000002004E0704700002DE9F04191
:1016A000040009D0164E00235A1E1946B0680AF0ED
:1016B000E7F9012803D0FEE70020BDE8F08100250E
:1016C000A560E56025742560257165610D4F2C4688
:1016D00004EB440007EBC0000079012808D0042C7B
:1016E00002D100F097FD3570641CE4B2052CEFD3F5
:1016F00000231A461946B0680AF093FADCE70000A6
:10170000080000207C02002030B585B000240225AE
:10171000CDE9005423462246182102A800F072FBAE
:1017200002A800F0AFFB01464FF4827001290CD0F3
:10173000002104F02FFBCDE90054002303221821DF
:1017400002A800F05FFB05B030BD074A5179491C83
:10175000C9B251710A29EED1002104F01BFB03F03C
:1017600003F804F035FAE6E76C01002010B502F04A
:10177000EBFD012000F0F6F8002808D004480068CE
:1017800000B18047BDE81040012000F0E5B810BD71
:101790002C0B002070B502F0D7FD4FF48065284671
:1017A00000F0E0F8234C28B1A16A01B1884728462F
:1017B00000F0D2F84FF40065284600F0D3F828B1C5
:1017C000E16A01B18847284600F0C6F84FF4805519
:1017D000284600F0C7F828B1216B01B18847284698
:1017E00000F0BAF84FF40055284600F0BBF828B1D5
:1017F000616B01B18847284600F0AEF84FF4804590
:10180000284600F0AFF828B1A16B01B188472846FF
:1018100000F0A2F84FF40045284600F0A3F8002895
:1018200007D0E16B01B188472846BDE8704000F061
:1018300093B870BD2C0B002010B502F085FD02207E
:1018400000F090F8002808D00448406800B18047B4
:10185000BDE81040022000F07FB810BD2C0B002026
:1018600010B502F071FD042000F07CF8002808D0CB
:101870000448806800B18047BDE81040042000F0B3
:101880006BB810BD2C0B002010B502F05DFD0820D8
:1018900000F068F8002808D00448C06800B180470C
:1018A000BDE81040082000F057B810BD2C0B0020F8
:1018B00010B502F049FD102000F054F8002808D0BF
:1018C0000448006900B18047BDE81040102000F0D6
:1018D00043B810BD2C0B002070B502F035FD202060
:1018E00000F040F81B4C28B1606900B1804720200F
:1018F00000F032F8402000F035F828B1A06900B1BE
:101900008047402000F028F8802000F02BF828B114
:10191000E06900B18047802000F01EF84FF4807528
:10192000284600F01FF828B1216A01B188472846EF
:1019300000F012F84FF40075284600F013F8002864
:1019400007D0616A01B188472846BDE8704000F0C1
:1019500003B870BD2C0B00200149086070470000DF
:1019600014040140034A0146002012680A4200D0D4
:10197000012070471404014030B51A4A8379016888
:1019800053B313688B431360111D0B680468A343A2
:101990000B60017911440B68046823430B60114B01
:1019A000083319680468A14319601C1D2168056883
:1019B000A94321604179102905D011440A680068C3
:1019C00002430A6030BD196802681143196021683A
:1019D00000680143216030BD0079104402688A43E9
:1019E000026030BD0004014070B5C4B00E4605462B
:1019F00014464FF4807103A8FEF7BCFF002003A932
:101A00000090CDE901010346054A2146304600F029
:101A10006DFE224603A9284600F02CFD44B070BD9F
:101A20006C0000200349012802D003480860704779
:101A30000248FBE79001002090D50008C8D60008B6
:101A40000149086070470000183C02400849042022
:101A50000A68D20701D0012070470A68D20501D573
:101A600002207047096811F4F05FFAD00320704734
:101A7000183C024008B5034604208DF80000FFF72B
:101A8000E5FF8DF8000004E0FFF7E0FF8DF80000AF
:101A90005B1E9DF80000012801D013B104E0002B6B
:101AA000F2D105208DF800009DF8000008BD00234C
:101AB000038043804160028170470089491CB1FB6B
:101AC000F0F200FB121080B2704770B50446018836
:101AD000FFF7F3FF61680D5C21882046FFF7EDFFFB
:101AE0002080284670BD70B50D4604464188FFF73A
:101AF000E4FF608061680D5470BDF0B500220127DD
:101B00004FF0030E0B6807FA02F52B40AB4227D1CA
:101B10000668530091F804C00EFA03F4A6430CFAC9
:101B200003FC4CEA060CC0F800C00E79012E01D06F
:101B3000022E0FD1866891F805C0A6430CFA03FC6B
:101B40004CEA060CC0F808C08688AE438D799540F3
:101B500035438580C568A543CC799C402C43C4603F
:101B6000521C102ACED3F0BD4B07DB0E9A40C90899
:101B700010B500EB8100016A0F249C40A143016273
:101B8000016A1143016210BD02460020128A0A4216
:101B900000D00120704741837047018370470000E7
:101BA000014800797047000090000020014840790A
:101BB00070470000900000200148806970470000D5
:101BC000900000200148C07870470000900000207D
:101BD0000148808970470000900000200148C089BA
:101BE0007047000090000020094A002152F831306F
:101BF000834208D802EBC1039B68834203D902EBFE
:101C0000C10000797047491CC9B21529EED3FEE71F
:101C100048DC000808494A7A12B9897A012901D0BA
:101C20000020704704494C314A7C0AB93C224A746E
:101C30000270012070470000D40500202DE9F05FFC
:101C400080464FF00009FFF72DFBDFF860A0DFF8BA
:101C500060B0002408F0FF00FFF73CFB07461120AE
:101C6000FFF738FB0AF0CEFD05460E4638460AF06F
:101C7000C9FD52465B460AF015FE2A4633460AF075
:101C8000F5FB0AF005FB014648460BF08FF8641C93
:101C90008146052CDEDB07490BF0EAF806490BF01C
:101CA000C9F90BF0A7F9C0B2BDE8F09F2FDD2406FB
:101CB0008195F33F0000A0400000204110B504468C
:101CC000042208A1FEF75EFD38B1042207A12046D8
:101CD000FEF758FD18B1462010BD012010BD0220AE
:101CE00010BD00005458434D00000000545850509F
:101CF00000000000014890F90100704790000020AA
:101D000001484079704700007C00002070B5040055
:101D100009D00A4D00235A1E1946A86809F0B0FEE2
:101D2000012802D0FEE7002070BD0023A4681A46F7
:101D30001946A86809F075FF204670BD080000200C
:101D4000074890F88200012806D10548AC30817B15
:101D5000012901D1407A08B1002070470120704765
:101D60002805002010B588B00C46694608F09CFD97
:101D7000012805D12146684604F03CFD012800D029
:101D8000462008B010BDF0B58DB016460D461F4672
:101D900005AA6946129C08F063FE022815D13B464D
:101DA0000CAA3146684604F031FE02280DD1039892
:101DB00020609DF810002071BDF83000688329462E
:101DC00005A804F017FD012802D046200DB0F0BD93
:101DD0000220FBE71CB50278094B02F00F0200213C
:101DE00043F8221000788DF8041000F00F02012053
:101DF000904000908DF806106846FFF7BDFD1CBDB1
:101E00002C0B00202DE9FC410446DDE908781E4634
:101E10001546481C30D0C1F30F102081217001F00D
:101E20000F03012101FA03F26280062806D2134A49
:101E300002EB802201FA00F0626006E007D1104850
:101E400060604FF020004FF0010101F0A1F9012D79
:101E500003D14146204600F07BF98DF804508DF8FF
:101E600006608DF8077003208DF8050060880090EB
:101E700069466068FFF741FEBDE8FC810000024052
:101E80000014024010B568B142685AB190F90010D0
:101E9000491C08D041881046FFF776FE002800D084
:101EA000012010BDFEE74FF0FF3010BD2DE9FE4FC1
:101EB00015460E4604468172002B61D020783149C8
:101EC00000F00F0041F820300121084601F084F9AC
:101ED000207800F00F01207A03F066FE20780121BF
:101EE00000F00F0001FA00F80027CDF804808DF80B
:101EF00008704FF0080A4FF00C09012E04D0022E92
:101F000005D0032E06D0FEE78DF809A005E08DF878
:101F1000099002E010208DF8090088468DF80A101B
:101F200001A8FFF729FD207800F00F00052801D255
:101F3000801D04E00A2801D2172000E028208DF837
:101F4000000045B1012D08D0022D09D0032D0AD083
:101F5000042D0CD0FEE70F2006E08DF8019008E07C
:101F60008DF801A005E004208DF8010001E08DF856
:101F700001708DF802708DF80380684601F060F8FA
:101F8000BDE8FE8F2C0B00202DE9F0430F25DFF874
:101F900000819DB0174689460646002404EB4400A4
:101FA00008EB40003146FEF737FD10B1641CAC422F
:101FB000F4DBAC4202D1002136A04CE004EB44003B
:101FC00008EB4006707908B100240BE0002137A02F
:101FD00041E004EB440108EB41004946FEF71CFDDB
:101FE00010B1641CAC42F4DBAC4202D1002135A03C
:101FF00031E004EB440108EB4104607948B34FF051
:1020000000080225CDE9005896F9051043464246DE
:1020100019A8FFF7F7FECDE9005794F90510002342
:10202000012216A8FFF7EEFE394616A800F090F838
:10203000322009F037FB19A8FFF724FFC0B2B842DD
:102040000FD12346324625A102A80097FEF748F992
:102050000FE000212AA003F021FE00201DB0BDE802
:10206000F083CDE90007234632462BA102A8FEF7F4
:1020700037F9002102A803F011FECDE90058002332
:1020800094F905101A4616A8FFF7BCFE0120E5E7F3
:1020900064D4000870696E4E616D65496E206E6F84
:1020A0007420666F756E640D0A00000070696E4ED4
:1020B000616D65496E2063616E2774207573650DCF
:1020C0000A00000070696E4E616D654F7574206E78
:1020D0006F7420666F756E640D0A0000494F205BB7
:1020E00025732C25735D2074657374206D61746392
:1020F000682076616C75653A25640D0A0000000061
:1021000070696E4E616D654F75742063616E2774E2
:10211000207573650D0A0000494F205B25732C253F
:10212000735D2074657374206E6F74206D617463C9
:10213000682C20696E2076616C75653A25642C20C8
:102140006F75742076616C75653A25640D0A000020
:1021500058B142684AB190F900305B1C08D00029A0
:102160004188104602D0FFF718BDFEE7FFF713BD08
:1021700070470000EFF3098001490860FEF73CB8A2
:10218000A40100201FB50121042001F00DF81E203C
:102190008DF80C0008208DF80D0000248DF80E40FD
:1021A00001208DF80F0003A800F04AFF09200190DC
:1021B0000B4842F210710068ADF80840B0FBF1F036
:1021C000401EADF80000ADF80240064C69462046BE
:1021D00004F036FA0121204604F010FA1FBD000079
:1021E000A801002000080040014908607047000075
:1021F000A001002010B5064C01221146204604F033
:1022000016FA2046BDE81040012104F0FAB900009A
:102210000008004010B5064C00220121204604F0C1
:1022200006FA2046BDE81040002104F0EAB900009B
:102230000008004005484178002906D1012141707D
:1022400000214FF4807003F0E5BD70476C01002061
:10225000F0B50E460746014685B019A0FEF7DCFB37
:102260000024022568B9CDE9005400231A4616213E
:1022700002A8FFF7C7FD33460222012102A8FFF79B
:1022800015FE39460FA0FEF7C7FB002815D1FFF752
:10229000C1FC012811D1FFF753FD00280DD1CDE974
:1022A000005400231A46172102A8FFF7ABFD33465E
:1022B0000222012102A8FFF7F9FD05B0F0BD0000E0
:1022C0005042360050423700B0B5A2B0812008F02D
:1022D000ABFE3C49086008F0EDFF3A480830FFF7D4
:1022E000BBF800F0ADFD00F085FC00F0B1FC00F0A3
:1022F00069FE00F029FE00F0D1FD00F0E7FC09F0D6
:1023000005F8314CD4E928019034CDE9000194E876
:102310000F0003F069FE04F11C0720A9F87A08F009
:1023200083FF9DF8800040B203F08EFE04F1580553
:1023300020A9687B08F078FF9DF88000314660F3A3
:102340000701A86803F092FE287B03F089FE207E37
:10235000903C032802D3002084F8A80003F020FE5C
:1023600097F90D0003F076FEB4F9840003F0B8F895
:10237000787AFFF757FB387A4FF000021146F8B130
:102380000A2003F05BFDF87905F04AFB002121905B
:1023900021AA084603F052FD0B480C4BFF30009079
:1023A00003F10C020AA102A8FDF79AFF002102A87E
:1023B00003F074FC002001F0E5FE22B00120B0BD66
:1023C0000B20DEE76400002028050020BFD30008B2
:1023D0000D0A47494F5420415420436F6D6D616E83
:1023E0006420666F72204C6F5261204D6F64756C73
:1023F000652025732025730D0A4D4143203A202581
:10240000730D0A0030B5144C050AA570050CE57073
:10241000C0B2E180012800D120701004000C4FF000
:10242000000503D0C0EB0010800003E0080C03D0CF
:102430000A494843606100E065611804000C03D05C
:10244000C0EB0010800003E0100C03D003494843A8
:10245000A06130BDA56130BD6C010020805101003C
:1024600003E010F8013B01F8013B521E92B2F8D292
:10247000704700002DE9F0410D46174606462149F8
:1024800000243844884238D240F20270FFF7D8FA6C
:10249000FFF7E4F80120FFF7B9F8042F0ED211E09E
:1024A0002919285DD1F8011040EA01213019FFF700
:1024B000C3F88046042803D1241DA4B2BC42EFD344
:1024C000241FA4B2B80710D0381BC2B2002106E006
:1024D000521ED2B2A018D300285C98400143002AB3
:1024E000F6D13019FFF7A8F88046FFF79DF80020D5
:1024F000FFF78CF8B8F1040F02D00020BDE8F0819E
:102500000120FBE70010080801884088814201D1C2
:102510000120704700207047014840697047000063
:10252000900000202DE9F04117460A460546DDE9F6
:1025300006411948089E447183711C0AC4711C0C21
:1025400004721B0E437281720B0AC3720B0C03736D
:10255000090E4173D4B2C4731048FEF76AFD3946C0
:102560000E48FEF775FD10220B490C48FEF776FD6C
:10257000224629460948FEF771FD0849A1F58270F7
:10258000FEF7BEFC06480178D0F8010041EA0020C1
:102590003060BDE8F081000049010020140A0020ED
:1025A0001009002010B508481C461346016310228C
:1025B00019469930FEF73DF9214603481022BDE83F
:1025C0001040A930FEF735B9900000202DE9F04108
:1025D00006461D4617460C460C48FEF72AFD3946AE
:1025E0000A48FEF735FDE2B231460848FEF736FDEF
:1025F0000649A1F58270FEF783FC05480178D0F802
:10260000010041EA00202860BDE8F081140A0020A2
:10261000100900202DE9FF4F85B0044600200390EB
:102620006078A578E67940EA0520E578294A40EA0D
:1026300005402579012340EA0569607900F00F051E
:10264000A079093540EA062660184F1B10F804CC23
:1026500010F8038C3F1F4CEA082C10F8028C10F87D
:10266000010C4CEA084C4CEA0068A2F1990C07F006
:10267000FF0ADCF830C0E14503D0012009B0BDE815
:10268000F08F00930DF10C0CCDE9016C9B46091FF6
:1026900089B24B462046FFF745FF0399884501D094
:1026A0000220EBE7002F13DD601910F8011C51B177
:1026B0000799CDF800B0CDE90161064A4B461032CA
:1026C000514600F009F808990020A1F800A0D5E7CC
:1026D0000320D3E729010020FEB508AF97E870007A
:1026E0008DE8700000F002F8FEBD00002DE9FF5FEC
:1026F0000D46DDE90FA80746994600240126F02182
:102700002F48DDF838B0FEF735F92D4A1021029830
:1027100005F0E6F82B484FEA192180F805B080F85B
:102720000690C1714FEA194101724FEA1961417275
:1027300080F80AA04FEA1A21C1724FEA1A410173C8
:102740004FEA1A61DFF878A04173AAF1200A8146A6
:102750001BE089F80F601A4A761CB6B2A2F120017C
:10276000184805F096F800205246211812F800C0CB
:102770007B5C401C83EA0C0380B208F8013010280F
:10278000F3D3103D1034ADB2E4B2102DE1D2002DE0
:1027900014D00B4A89F80F60A2F12001094805F016
:1027A00078F80020534607E021181E5C7A5C7240DE
:1027B000401C08F8012080B2A842F5D3BDE8FF9F75
:1027C00020090020590100202DE9FF5F98460346AB
:1027D000DDE90E0A5E4C4FF00009CDF80C90A4F82C
:1027E0000A9000B9CA465B4E1D7835701B785B09AC
:1027F00007D0022B38D0042B36D0042004B0BDE81B
:10280000F09FA16A53480A6840F8012F4968416067
:10281000616A50480A6840F8092F496841601120F0
:10282000608102F0E7FC2082618903AB7054491C8F
:1028300089B2000A7054491C6181C9B24548E26AF4
:10284000FFF7C4FE618903987054491C89B2020ADB
:102850007254491C89B2020C7254491C89B2000E90
:102860007054491C618171E0394B002A5F691B6B10
:1028700003D10D7825F00F050D70A34673704FEA54
:102880001324B4704FEA1344F4704FEA13643471A4
:102890000C787471B7714FEA1724F4714FF0080483
:1028A00012D04FF0000509E012F805C006F804C088
:1028B00004F1010405F10105E4B2ADB291F800C0E4
:1028C0000CF00F0CAC45EFD804EB0A05A02D2ED868
:1028D000B0B1204906F80480A031B8F1000FCDF85E
:1028E000009026D01A4AA932CDE901715146FFF76E
:1028F000FDFE184930195246A031401CFDF799FFE2
:102900006D1CA9B2ABF80A10DBF8143003AACDF89D
:102910000090CDE901320E4A5C4699320D48DBF851
:102920003030FFF7FFFD61890B1DA02B04D9032078
:1029300064E7074A9932D7E7039870547218050A7A
:10294000010C55709170000ED0706381002055E726
:1029500090000020C00700202DE9F0418046154876
:102960008AB01E461746455C109C02F0FBF9002811
:102970001DD1404602F044FD01200021099406913A
:10298000CDE9071008220591CDE90012CDE90261D9
:10299000049103462A46394602F01EFE2CB100205F
:1029A0000AB0BDE8F04102F0A1BD0348F8E70AB063
:1029B000BDE8F08186D50008C0C62D00F0B52C4CCE
:1029C00006468BB0206802F01BFD207900242949BF
:1029D000012507281ED00823062836D0244F0DF1E4
:1029E0001C0C343F3A8C06948CE8700092B205942B
:1029F000CDE90224CDE9004304940A5CB9780123AF
:102A0000012002F0E9FD7EB300200BB0BDE8F040EC
:102A100002F06CBDC87909F0F5FE0022164B09F0F2
:102A200041FF09F0ABFE0246052006941349CDE9AB
:102A300000100794089409940023029403944CF224
:102A400050311846CDE90445DBE70694CDE907454A
:102A500008200594CDE90043CDE9020409940494CB
:102A60008A7901231946CBE7FFE740F2E730CCE74C
:102A7000C400002086D5000800408F408545010035
:102A80002DE9F0418AB002F0BBFC284CDFF8A080B1
:102A9000002594F90100274F012608F106010728B7
:102AA0001ED005950695CDE907570822CDE90162AC
:102AB000CDE9035606282FD0085C0090002394F936
:102AC00000101A46012002F001FF6069401C60619D
:102AD000A17A194802F0FEFB0AB00020BDE8F0819F
:102AE000C87909F08FFE0022144B09F0DBFE09F0D3
:102AF00045FE05950695CDE907570521CDE901511C
:102B00000090CDE9035694F90010002318F9011044
:102B100046F2A8121846D6E78879009094F900107A
:102B2000012318F901100022CCE7000090000020DA
:102B300080D50008C0C62D00C007002000408F408F
:102B40002DE9FF5F274D824600202B8995F9012052
:102B500004460127E84605F1390607FA00F1194253
:102B600010D000EB400106EB410191F9041041F354
:102B7000030C944506DCB2EB211F03DC08F80400CB
:102B8000641CE4B2401CC0B21028E6D32146404683
:102B900003F0E6FAC1460027B0466FF0590B1CE07F
:102BA00019F807605A4606EB460108EB4100016838
:102BB000002002F0C5FA70B106EB460108EB4101B6
:102BC000AE710A68CAF800208988AAF804100020AB
:102BD00004B0BDE8F09F7F1CFFB2A742E0D3012004
:102BE000F6E70000900000200149486170470000AE
:102BF0009000002000B589B0142103A8FDF7BAFEAB
:102C0000142203A90E48FFF72BFC00200D49009069
:102C1000CDE9010103460C4A142103A8FFF75CFD2E
:102C200006220A490748FDF734FD28B107F0B8FA33
:102C300002F0CEFF00F040FA09B0012000BD000014
:102C400050010808D40500206C000020B8D300080B
:102C500010B58AB0182103A8FDF78CFE172203A92E
:102C60001648FFF7FDFB0020154C0090CDE901044C
:102C70000346144A172103A8FFF72EFD0622124926
:102C80002046FDF706FDB0B10F49A4F15000083908
:102C90008A6840F8502F8A898280897B817110214F
:102CA000E01DFDF745FE08491022A231E01DFDF7A9
:102CB000C0FD02F08DFF0AB0012010BDF000080831
:102CC000E80500206C000020B8D300082DE9F04F83
:102CD000A9B0982103A8FDF74DFE952203A95348FA
:102CE000FFF7BEFB0020524E0090CDE901060346DF
:102CF000504A952103A8FFF7EFFC06224E493046C3
:102D0000FDF7C7FCA6F144040200A4F1F00000F1B5
:102D1000500100F12F0B3046474F019100F1530154
:102D2000A7F1080704F18005A4F5807800F1180ADE
:102D300000F17409009137D0B8686064B889A4F8CC
:102D40004800B87B84F84A00404650F8271FC5F871
:102D50000E104168C5F81210007AA8752121484666
:102D6000FDF708FE212248460199FDF7A7FD212124
:102D70000098FDF7DDFD212259460098FDF759FD29
:102D80001121E81EFDF7D4FD1121F01DFDF7D0FD46
:102D900021215046FDF7EEFD212207F13B0150466F
:102DA000FDF747FD02F014FF2449082201F26710E5
:102DB000FDF76FFC58B9202248460199FDF769FCE0
:102DC00028B9202259460098FDF763FC48B3B8683B
:102DD00044F8440FB889A080B87BA071404650F8F1
:102DE000271F45F80E1F41686960007A287221216B
:102DF0004846FDF7BFFD212248460199FDF75EFDDB
:102E000021210098FDF794FD212259460098FDF7F5
:102E100010FD0949212233315046FDF70AFD02F029
:102E2000D7FE29B00120BDE8F08F0000D0010808CE
:102E30005C0600206C000020B8D300083F0500208D
:102E400000B5AFB0AC2103A8FDF794FDAC2203A9F7
:102E50000E48FFF705FB00200D490090CDE9010168
:102E600003460C4AAC2103A8FFF736FC06220A49A8
:102E70000748FDF70EFC28B107F092F902F0A8FE12
:102E800000F01AF92FB0012000BD00003000080842
:102E9000280500206C000020B8D3000830B593B09E
:102EA0003C2103A8FDF766FD3C2203A92248FFF759
:102EB000D7FA0024214D00942346214A3C2103A83F
:102EC000CDE90145FFF708FC06221E492846FDF71B
:102ED000E0FB58B31B49A5F1080008398A688260F5
:102EE0008A898281897B8173A0F580712C7451F865
:102EF000272FC0F80F204A68C0F81320097AC1753F
:102F00004438807AA8B13C206874AC74EC742C7599
:102F1000EC822C836C83AC83EC832C846C62AC627B
:102F2000EC622C636C63AC6302F052FE13B00120C0
:102F300030BD6C74E9E7000090010808200600200D
:102F40006C000020B8D3000830B587B0002403948B
:102F500004940594102203A916480694FFF780FAFA
:102F6000154D00940023154A102103A8CDE9014511
:102F7000FFF7B2FB062212492846FDF78AFBA8B1EB
:102F80000F49A5F1780008398A6840F8782F8A89B6
:102F90008280897B8171A5F1E800D0F89C00A8604F
:102FA0000A2068730220287302F012FE07B0012085
:102FB00030BD000070010808100600206C000020E1
:102FC000B8D3000830B587B0002403940494059466
:102FD000102203A915480694FFF742FA144D0094F5
:102FE0000023144A102103A8CDE90145FFF774FB23
:102FF000062211492846FDF74CFB98B10E49A5F170
:10300000680008398A6840F8682F8A898280897B3D
:1030100081710120E872801E2881AC72AC81EC8144
:1030200002F0D6FD07B0012030BD000020010808E5
:10303000000600206C000020B8D30008FEE77047AF
:1030400030B50F23C27801780125FAB1144A12680D
:1030500001F1E02102F4E062C2F5E062C2F307226E
:10306000C2F10404D3404278A24084781C40144347
:10307000220181F80024007800F01F018D404009F2
:10308000800000F1E020C0F8005130BD01F01F00C9
:1030900085404809800000F1E020C0F8805130BD33
:1030A0000CED00E002490843024908607047000047
:1030B0000000FA050CED00E0BFF34F8F05480168F2
:1030C000054A01F4E06111430160BFF34F8F00BF77
:1030D000FDE700000CED00E00400FA05BFF34F8FA0
:1030E00005480168054A01F4E06111430160BFF33E
:1030F0004F8F00BFFDE700000CED00E00400FA0573
:103100000A4B1A6822F0030202431A600848026858
:1031100042F004020260012905D020BF016821F0BD
:1031200004010160704730BFF8E700000070004004
:1031300010ED00E0014988627047000000000E4277
:10314000014908617047000000000E420149086211
:103150007047000000000E420149486270470000BD
:1031600000000E42074810B50078012803D1064937
:1031700006A0FFF76DF8BDE8104000214FF4817004
:1031800002F008BE6C0100203522000850423600D3
:10319000044A0029116801D0014300E08143116015
:1031A000704700001C380240044A0029116801D011
:1031B000014300E081431160704700002438024061
:1031C000044A0029116801D0014300E081431160E5
:1031D0007047000018380240044A0029116801D0E5
:1031E000014300E081431160704700002038024035
:1031F000044A0029116801D0014300E081431160B5
:10320000704700001438024030B5254B1968A3F10F
:10321000040211F00C014FF4004405D004290AD037
:1032200008290AD00C290AD01168C1F34231491C7F
:103230008C40046019E01B4916E01B4914E0196832
:103240001A6801F47011194C02F4400204EB914128
:103250000978012404EB92521C6814F4803F1DD0BD
:10326000114C6143B1FBF2F1016019680F2202EACF
:1032700011110E4A0932545C0168E14041601C683A
:10328000072505EA1424145D21FA04F484601B6800
:1032900005EAD323D25CD140C16030BD014CE0E7E8
:1032A000083802400024F400001BB700C5010020CC
:1032B000024600205109012909D00649096802F097
:1032C0001F02012393400B4200D0012070470149A7
:1032D0003439F3E7343802400248006800F00C004B
:1032E0007047000008380240024900220A70087046
:1032F0007047000002380240014908607047000032
:1033000000004742024900220A700870704700001E
:103310003538024001490866704700000000474206
:103320000149086070470000D8064742C0F30141D8
:10333000032907D1094B196800F0C04221F0C041B0
:103340000A431A60054934310A6822F440320A609F
:103350000A6800F4403002430A60704700380240B7
:103360000149086070470000DC064742034A1168C3
:1033700021F003010143116070470000083802404A
:1033800000214FF4817002F045BD000038B50022E5
:10339000124C0092CA222260532222600F4A1C3A29
:1033A0000029116802D00143116012E081431160CD
:1033B0000A4A183A55141168009B01EA10215B1C57
:1033C0000093AB4201D00029F5D0116811EA10201A
:1033D00000D00120FF21216038BD000024280040DA
:1033E00070B500F0B1FF4FF48055284600F0B4F8F6
:1033F000154C70B10021284600F0F6F80021281184
:10340000FFF7C4FF616809B100208847284600F033
:1034100041F84FF40055284600F09EF870B10021A5
:10342000284600F0E1F800212846FFF7AFFF616869
:1034300009B101208847284600F02CF8BDE870400B
:103440004FF40030FEF788BAE0010020010901EBDB
:10345000810100F00F0000EB4100C0B27047002175
:1034600003E0491C0A38C9B2C0B20A28F9D20907D8
:1034700040EA116070470000C0F3100040F0800087
:10348000C1430348026802F08002114301607047A3
:103490000C280040C0F30F1040F08000C1430348E7
:1034A000026802F080021143016070470C2800405E
:1034B00001210170817041700021C17070470000CE
:1034C00008B50D49002000900868400612D44FF05E
:1034D000FF3008604B140868009A00F04000521C4E
:1034E00000929A4201D00028F5D00868400601D425
:1034F000002008BD012008BD0C28004002480168DA
:1035000021F08001016070470C280040020010B5D6
:103510000F480C4601680F4801EA00014FEA1140CC
:10352000E070C1F30423637001F03F03A370C1F3A3
:10353000423121700AD1FFF789FFE0706078FFF710
:1035400085FF6070A078FFF781FFA07010BD0000BC
:10355000042800403FFFFF000D4A10B5126800210B
:1035600002F004030A4A383A1268840C20FA04F480
:10357000024003EAD4331A43064B1B6803EA1010D7
:1035800003D00004000C00D00121084610BD00004B
:10359000402800400C280040020010B510480C469E
:1035A0000168104801EA0001C1F305402070C1F331
:1035B0000623637001F07F03A3704FF0400303EA1A
:1035C0001141E1700AD1FFF741FF20706078FFF7E9
:1035D0003DFF6070A078FFF739FFA07010BD0000BC
:1035E000002800407F7F7F0030B50E4DCA222A6040
:1035F00053222A600B4C0B4B1C3C1C33002920F03F
:103600000402216800F0040004D01143216019680D
:10361000014303E091432160196881431960FF2051
:10362000286030BD2428004070B5124D04460026A5
:10363000CA20286053202860FFF742FFA8B10D4838
:103640001C38016821F040010160016822681143C3
:1036500001600848A168143801600168A28841EA45
:1036600002410160FFF74AFF0126FF202860304633
:1036700070BD00002428004070B514460D46264A4F
:103680000021002810684FEA406005D000281CDAAD
:103690002078FFF7DBFE19E0002800DBE1702078DE
:1036A000FFF7DDFE06046078FFF7D9FE46EA002644
:1036B000A078FFF7D4FE0643E07846EA0046207B78
:1036C000FFF7CDFE46EA006010E0E170207BFFF7D7
:1036D000BDFEA0782178E27840EA014061780902D5
:1036E00041EA02410843217B40EA0160A168CA2205
:1036F00008436168084308491C310A6053220A6084
:10370000B5F5807F04D00A1F1060FF20086070BDEF
:10371000014A1432F8E700000828004070B50C4652
:103720000026010060780FD0FFF790FEA078FFF729
:103730008DFEA078E17840EA0145607821780002AA
:1037400040EA4130054315E0C10603D520F01000E2
:103750000A306070E078FFF782FE05046078FFF7BA
:103760007EFE45EA0025A078FFF779FE0543207824
:1037700045EA40350D4CCA20206053202060FFF7F9
:103780009FFE78B10A480540084820380560FFF7D9
:10379000B5FE06481C380068800602D400F060F8C8
:1037A00000B10126FF202060304670BD2428004073
:1037B0003FFFFF002DE9F0410C460026234F01009A
:1037C0002078396832464FEA416104D0002930DA66
:1037D000FFF73CFE2EE0002900DBE270FFF73FFE22
:1037E00005046078FFF73BFE45EA0025A078FFF767
:1037F00036FE0543E07845EA0045144CCA201C34E7
:10380000206053202060FFF75BFE68B11048054040
:103810000E4808380560FFF771FE3868800602D44C
:1038200000F01EF800B10126FF2020603046BDE800
:10383000F081E270A078217840EA01456078E17873
:10384000000240EA01400543D7E700000828004095
:103850007F7F7F000021C1700170417081707047CF
:1038600018B500200F4B0090CA2018605320186034
:103870000C491839086820F0A0000860CC130868CB
:10388000009A00F02000521C0092A24201D00028B1
:10389000F5D00868800601D5012000E00020FF2156
:1038A000196018BD242800404FF0000AC0B0D3466C
:1038B00052462821052008F0BBF8FE49FE4D0024A1
:1038C00088602CA93A9110B9FCF7DCFCFEE7F94FAF
:1038D00000235A1E2AA9B86808F0D2F8BDF8A8003B
:1038E00040F20322A0F203219042F0D02DDC40F2FE
:1038F00001184246A0F20111904209D00CDC0028C8
:103900006FD0012859D0022843D0B0F5807FDED196
:10391000387802285BD05FE001297CD0FF297BD07A
:10392000B1F5807FD3D1402001F083FC30F0CF008F
:10393000CDD18021122002F02BF9387802286CD0EA
:103940006868FDF7ABFE686016E1B1F5807F65D071
:1039500013DC0129BBD00229B9D0FE297ED0FF2972
:10396000B5D101F05FFF01F0FFFA012001F068FD21
:103970003421392002F00CF907E0A1F580710139FA
:103980006DD001296CD00229A1D101F04BFF7C70D0
:103990009DE701F047FF01F039FF01F049FBD7F83F
:1039A0000CC0BCF1000F06D04FF0080969F30F00FE
:1039B000CDF80080E047BC7089E7B878002886D150
:1039C00001F030FF07F0ACFB0120B8707FE701F099
:1039D000C9F908B101F026FF01F0C4F910B12C9823
:1039E000A4E3B0E0B4481C30FDF7A0FDBDF8A8008A
:1039F0008DF8D8408DF8A440B0F5807F14D0802099
:103A00008DF8D800BBF1000F04D020204FF0000B40
:103A10008DF8A40003E05FE063E163E2E4E29DF877
:103A2000B500379010B103E04020E9E7022037905D
:103A30009DF8B460A048711CA038FCF79BFF9E481D
:103A40003246A0382C99FCF7F4FE2C9807F0F6FCCF
:103A50004FF0000A34A8FFF773F802E05EE246E395
:103A6000F7E250B1954B00224FF4C8710520FDF7E5
:103A700087FC4FF0010A686129E78F480022A038CF
:103A8000CDE9000629A936A8379BFEF79DFE3146F1
:103A9000012001F06DF98146DDE93401FEF7F0FF08
:103AA0000022864B49461046FDF76AFC2860A8694B
:103AB00010B1FDF7F3FDA861BDF8A810414508D18C
:103AC0007C719DF8B60038717C4B012240F6B8310C
:103AD000D2E07C713C71FAE601F044F90028CBD1C8
:103AE000FEF770F80028C7D0FEF766F80746FEF725
:103AF00057F80B90FEF75AF80A90FEF769F88146DE
:103B0000FEF76CF88046384601F07AFC01210994F2
:103B1000CDE904410694CDE90049079408940B4689
:103B20000846CDE90284DDE90A2101F055FD332084
:103B300001F07FFB00F0BE013320491C02F028F8A1
:103B400002F006F8C3E62C98072895D2DFE800F0CB
:103B50000410172E374E99002C603878022801D0B7
:103B600001F054FEFF68002F86D04FF0030856E0A6
:103B70006C6038780228AED001F048FEA7E6AC6051
:103B8000B8780028A7D001F0EDF80028A3D1FEF7FF
:103B9000B1F8062805D0FEF7ADF8032801DBFEF7E3
:103BA000A9F845481C30008987B215E0EC60B87868
:103BB000002890D001F0D6F800288CD193E1052799
:103BC0002C6101F02FFE9DF8D40040F3030006287D
:103BD00001D0032800DB0827FEF78CF8014600948B
:103BE0003B4600223498FEF7B7FE70E634A86C61BD
:103BF000FEF7A6FFC0B10AF10100C0B28246032859
:103C000008D02E4B00224FF4C8710520FDF7B8FBF9
:103C100068615CE6FF68002F94D04FF0090868F3F4
:103C20000F00CDF800C060E223480022A038CDE9A3
:103C3000000629A936A8379BFEF7C6FDDDE9340149
:103C4000FEF71EFF002240F6B8391C4B49461046CD
:103C5000FDF796FB2860A86910B1FDF71FFDA8616C
:103C6000BDF8A81041457FF434AF7C719DF8B600D3
:103C7000124B3871012249460620FDF781FBA861ED
:103C800025E67879401CC0B278713979491E88429E
:103C900004DBA86910B1FDF701FDA861FEF73CFC4B
:103CA000401EFEF7A1FF044829A9A038CDE900066F
:103CB000002205E07C0000209407002077410008E6
:103CC00036A8379BFEF780FDDDE93401FEF7D8FE0C
:103CD0000022FE4B40F6B8311046FDF751FB28603C
:103CE000F5E5402001F0A5FA30F03F0029D040284A
:103CF0008FD12868FDF7D2FC28600821122001F03E
:103D000047FF3878022801D001F080FDD7F80CC0B9
:103D1000BCF1000F0BD097F80190B9F1000F75D0EE
:103D20004FF4827969F30F00CDF80080E04778788E
:103D30000028A5D13878022869D0A868002867D063
:103D4000DEE08DF800403878B946022803D0686874
:103D5000FDF7A4FC68604021122001F019FF122039
:103D600001F067FA8DF800009DF80000800604D588
:103D70002021122001F00CFFA9E53DA93CA800F08C
:103D8000CBFF132001F055FA0746401C07F04CF911
:103D90008046394601F055FA99F8010078B1A02122
:103DA00001A8FCF7E7FD3A46414601A8FCF741FDB2
:103DB000ADF8E07099F801004F4640B12BE038AB08
:103DC00001AA39464046FEF725FC3B90F2E73878D9
:103DD000022801D001F01AFD3B9818B1032801D048
:103DE0004046A3E198F800004109032901D00529C4
:103DF00011D198F805108DF8A410052298F8081034
:103E00003E91B2EB501F04D1012003E05DE05FE082
:103E10006CE000208346404607F010FBF86800285D
:103E2000AAD0AB48407810B140F2051131E09DF8BE
:103E3000A400800629D5022060F30F07A44844712E
:103E40000471A86910B1FDF729FCA861BDF8F41050
:103E5000484661F31F409DF8F010DFF874C261F32B
:103E600007008146BDF8E010399801AB61F3070007
:103E700039903E99404661F3070000908046DCF897
:103E80000CC049463846399AE0473B980328C7D0CA
:103E90000121384661F30F00BDF8F420494662F372
:103EA0001F419DF8F020399F62F30701BDF8E02023
:103EB000DDF8F8C062F3070742466CF30702009290
:103EC0003A46834F01ABFF680FE164F30F002BE725
:103ED00080487E4B00220168042001F57A71FDF7CD
:103EE0004FFA28610120FEF769FDF0E47948774B2D
:103EF00000220168022001F57A71FDF741FAA860FD
:103F0000E8680028F1D17348704B00224168032013
:103F100001F5FA61FDF734FAE860D8E420220AA836
:103F20003A99FCF7CBFCDDE90A0100226A4B08F064
:103F3000B9FC08F023FC01F063FA9DF8300030B1C1
:103F4000012804D0022819D0032817D026E08821A0
:103F5000012001F01DFEA1213D2001F019FE0121EB
:103F6000362001F015FE08211E2001F011FE8721E8
:103F70004D2001F00DFE602152200DE08021012036
:103F800001F006FEA1213D2001F002FE01213620B4
:103F900001F0FEFD08211E2001F0FAFD4F499DF8B9
:103FA000410005940694CDE907019DF84010BDF845
:103FB0003E0000B101209DF83C20CDE9030108231B
:103FC000CDE9012346480E9900220D9B405C0090EC
:103FD0009DF93110012001F079FC01207870002159
:103FE000084601F077F972E420220AA83A99FCF712
:103FF00065FCDDE90A010022374B08F053FC08F0AC
:10400000BDFB01F0FDF9BDF842004FF47A71484361
:104010009DF8411005940694CDE907109DF84010D5
:10402000BDF83E0000B101209DF83CC0CDE9030180
:104030000823CDE901C32A480E9900220D9B405C5C
:1040400000909DF93110012001F040FC4FF4817186
:1040500031E020220AA83A99FCF730FCDDE90A0198
:1040600000221D4B08F01EFC08F088FB01F0C8F987
:104070009DF841100120CDE9081006949DF84010EC
:10408000BDF83E00079400B101200522CDE90220D1
:10409000CDE904410820CDE9004011480E999DF872
:1040A0003C30425C01200D9901F096FA002001F0AD
:1040B0001DFA40F20311404661F30F0001217970AF
:1040C000FF68002F8FD02B461A460BE0774100087F
:1040D0007C000020B007002080842E41C0C62D0047
:1040E00086D500081146CDF80090B84750E400F09E
:1040F00039FE00287FF473AC9DF8B400401C06F034
:1041000093FF9DF8B4100746491CFCF711FC9DF87D
:10411000B42038462C99FCF78CFB9DF8B410384637
:1041200001F0D8F82C9807F089F9384607F086F99D
:104130002EE40FB410B5BDF8080050B103280CD020
:10414000012812D0022802AA4FF0000111D00C2041
:1041500006E000221146062002E000221146092056
:1041600001F06CFE10BC5DF814FB002102AA0720D0
:10417000F6E70820F4E701B56946002001F0A0FD4C
:1041800008BD000030B51D4985B091F883100129A4
:104190001CD100250224D8B1012817D10023012207
:1041A000022102A8CDE90045FDF72CFE012102A85D
:1041B000FDF7CEFF00230122032102A8CDE900452F
:1041C000FDF720FE002102A8FDF7C2FF05B030BDBB
:1041D00000230122022102A8CDE90045FDF712FECD
:1041E000002102A8FDF7B4FF00230122032102A849
:1041F000CDE90045FDF706FE0121E4E72805002092
:104200002DE9F0411D4D86B08046002404EB4400AA
:1042100005EB40004146FCF7FFFB10B1641C0F2C7E
:10422000F4D30F2C25D004EB440005EB400494F9A3
:104230000510F1B100250226CDE900652B462A467E
:1042400002A8FDF7DFFD02A8FDF71CFEC7B241463C
:104250000BA0FCF7E1FBCDE9006594F905102B46B6
:1042600048B1032202A8FDF7CDFD384606B0BDE8EF
:10427000F0810220FAE70022F4E7000064D400088D
:104280005042370030B50446244895B0B0F90800D4
:10429000411C02D0217B814211D194F90000009091
:1042A000B4F9023022791EA102A8FCF719F8002106
:1042B00002A801F0F3FC207908B1802802D900207F
:1042C00015B030BD154DE83D287160886880207BB1
:1042D000287320782870A86808B107F0AFF8207913
:1042E000401C06F0A1FEA8602179491CFCF720FBC8
:1042F0002279A168A868FCF79CFA01210220CDE987
:1043000000010A460023082112A8FDF77BFD0121C8
:1043100012A8FDF71DFF0120D2E7000000060020D3
:10432000526164696F20527820446F6E65204C653D
:104330006E3A256420525353493A256420534E5215
:104340003A25640D0A00000010B572B60120FEF790
:10435000CBFF3120FEF7ACFF0028FAD00120FEF79A
:10436000D9FF3920FEF7A4FF0028FAD00320FEF77A
:10437000FDFFFEF7B1FF0C28FBD10020FEF7ECFE9D
:104380000120FEF7DDFEFDF799F862B610BD2DE9BC
:10439000F05F0446DDE90B9A16460D465800DDF83D
:1043A00028B008F02FFA07466FF00700884600EBA8
:1043B000460008F010FA22462B4608F073FA4346EE
:1043C0003A4607F097FF22462B4608F04FF803F0D5
:1043D0003FFB08F0D3F9B04200D830460646C9F892
:1043E0000000584608F00EFA80468946304608F02C
:1043F00009FA22462B4608F055FA4FF0FF3208F032
:104400008CFF06460F4602222046294608F085FF0B
:1044100032463B4608F0E0FB42464B4608F0DCFBE8
:1044200003F016FB08F07AF9CAF80000BDE8F09F27
:1044300010B508F0E7F902460B46BDE81040002031
:10444000014908F013B800000000204070B506468E
:10445000084608F0D7F9044601200D46B04008F0A0
:10446000BAF922462B4608F001F8BDE87040002258
:10447000014B08F017BA000000408F4070B50024CF
:104480000546264607E0295D0D2901D00A2900D1FD
:104490002E55641CE4B22846FCF755F9A042F2D828
:1044A00070BD0FB410B5BDF80800012804D102A9F1
:1044B00040F2051001F06EFC10BC5DF814FB00002A
:1044C00090B0984800F024FA974801F087FD002248
:1044D0001821052007F0ACFA944CA06058B30026D0
:1044E0006671934B01224FF47A71E069FCF748FF43
:1044F0004FF0070B4FF480794FF001084FF0020A9C
:10450000E06100235A1E02A9A06807F0B9FABDF8BD
:104510000800B0F5817F7CD010DC80B3012837D053
:104520004845EED1009683A00196FFF769FE054647
:10453000012831D032E0FBF7A5FEFEE7A0F5807040
:10454000033867D0012815D00228DAD1142203A934
:1045500008A8FCF7B3F9B4F90600411C03D09DF894
:104560003010814205D10B98007800287ED00128B8
:104570007DD0D0E0E069FDF791F8E061C1E7FFE7A9
:104580006D4B00223221206AFCF7FAFE2062B8E768
:10459000002000F0ACF9B4E7A06908B9606910B177
:1045A000002100F031FA8DF8006064A0FFF728FECA
:1045B000C70064A0FFF724FE217947EA800040EAA3
:1045C000410762A0FFF71CFE07438DF801708DF8CC
:1045D00002600820FDF732FB8DF803008DF80460BF
:1045E0000920FDF72BFB8DF8050008EB45008DF841
:1045F00006008DF824B0CDF820D0E0788DF82500A5
:10460000A07890B103208DF8260008A940F201108F
:1046100001E00DE064E001F053FBD4E903104C4BE2
:104620000022FCF7ADFE20614EE008A94846EFE706
:10463000009640A00196FFF7E3FD0546012801D151
:10464000A06908B9606910B1002100F0DDF98DF8AA
:1046500000603AA0FFF7D4FDC7003AA0FFF7D0FDF5
:10466000217947EA800040EA410701E03AE044E06E
:1046700036A0FFF7C5FD07438DF801708DF8026085
:104680000820FDF7DBFA8DF803008DF8046009209F
:10469000FDF7D4FA8DF805002EA0FFF7B1FD40EA32
:1046A00045008DF806008DF824B0CDF820D0E078D4
:1046B0008DF82500A07880B103208DF8260008A988
:1046C00040F2011001F0FCFA207801287FF456AF87
:1046D000214920A0FDF7BCFD13E708A94846F1E7F2
:1046E00066700EE72671CDE900A60023012208219D
:1046F0000DA8FDF787FB00210AE084F80480CDE9CE
:1047000000A80023012208210DA8FDF77BFB012151
:104710000DA8FDF71DFD0B980028DDD006F08EFEDC
:104720000B96EEE681330008A34400086C010020DC
:1047300009170008504237006531000850413132F6
:1047400000000000504131310000000050423800AC
:104750005D4700085042360035220008002140F233
:10476000031001F057BB00002DE9F0414A48002436
:104770000A26C471047244728472A0F1AC05C67238
:1047800015F88C1F417384730121C17304823C228C
:1047900042822C30C172891E018184728481C4815D
:1047A000A93821218046FCF7C3F83B4821215C3819
:1047B0000746FCF7DFF8212238494046FCF739F874
:1047C0003649212221313846FCF733F834486860F5
:1047D0003448A86035493448C5E903013448686164
:1047E0003448A8612C482C773C3081604673022104
:1047F00001731030A0F584720474A0F1080152F81E
:10480000275FC1F80F505368C1F81330127ACA7588
:1048100044748474C4740475C4820483448384839C
:10482000C483048444628462C46204634463846312
:104830001A485C3884684C648489A1F84840807BBD
:1048400081F84A0001F18000212140F80E5F4360A9
:1048500002721148FC300446FCF78CF821223946DC
:104860002046FCF72BF80C482121DB300446FCF7EE
:104870005FF8212241462046FBF7DBFF0648212155
:10488000A0300446FCF776F82046BDE8F041034925
:1048900021222139FBF7CDBFD40500200CD400081C
:1048A000C0DC0337001F133760022A37A0443937B2
:1048B00048E80100D8B8050010B578B1012815D135
:1048C00044022046FEF7D8FD00212001FEF78CFEB1
:1048D0002046BDE810400021FEF758BD4FF480741B
:1048E0002046FEF7C9FD00212001EFE710BDFFF7CC
:1048F000E3BF000010B5054C2078002805D100F07A
:1049000047F800F00BF80120207010BDE0010020F6
:104910000149486070470000E001002070B54FF485
:10492000003488B02046FDF717F8002600948DF873
:10493000046008258DF8055001248DF8064068466E
:10494000FDF71AF829208DF808008DF809508DF828
:104950000A608DF80B4002A8FEF772FBE007C40D59
:10496000049003AA21460020FEF786FE00212001C4
:10497000FEF73AFE00216001FEF736FE00212046D8
:10498000FEF704FD00216000FEF700FD08B070BDD9
:1049900000B5012185B00807FEF706FC0120FEF7EF
:1049A000D5FB0120FEF7DCFC0020FEF7D9FC01203E
:1049B000FEF7A8FC4920FEF77BFC0028FAD04FF454
:1049C0008030FEF7B3FC0120FEF7AAFC03A8FEF737
:1049D00041FF04A8FEF76CFD04A90020FEF79EFE2F
:1049E00003A90020FEF7E6FEFEF73AFF7F200190C4
:1049F000FF200290002000906846FEF715FEFEF7AB
:104A00002FFF05B000BD00002DE9F04786B0064637
:104A100011B1012904D006E04FF480552C1102E0B9
:104A20004FF400552C110846FFF746FF04A900205B
:104A3000FEF7B2FD05A90020FEF768FDFEF710FFA6
:104A40003C20B6FBF0F100FB11619DF81220182705
:104A50001144B6FBF0F2B2FBF0F300FB13229DF819
:104A600011301A444FF46163B6FBF3F3B3FBF7FC68
:104A700007FB1C339DF810C06344DFF8B4C0B6FBDD
:104A8000FCF69DF816C0B444B1FBF0F600FB161A14
:104A9000B1FBF0F61644B6FBF0F800FB1869B1FB69
:104AA000F0F61644B6FBF0F6B1FBF0F11144B1FBA1
:104AB000F0F01E441844B6FBF7F8B0FBF7F007FB24
:104AC000186660449DF8171080B261B389072AD038
:104AD0009DF815201749491E515C814203D2B0FB55
:104AE000F1F201FB12008DF802A08DF801908DF813
:104AF0000C008DF800609DF813008DF80300002075
:104B000002906A4621460190FEF7B6FDFEF7A8FE28
:104B100001212846FEF768FD01212046FEF736FCFC
:104B200006B0BDE8F08703499DF815200C31D2E7A7
:104B30008051010000D9000870B5092000F079FB10
:104B40000546062000F075FB0404072000F071FB09
:104B500044EA0024082000F06CFB204307F052FEDA
:104B60000022184B07F09EFE07F008FE04460021C5
:104B7000092001F00DF83B2000F05BFB40F0400104
:104B80003B2001F005F83B2000F053FB8006FAD4EF
:104B90000D4800F035FC3B2000F04BFB40F040019D
:104BA0003B2000F0F5FF3B2000F043FB8006FAD4E9
:104BB0002946092000F0ECFF2046BDE8704000F0D7
:104BC0001FBC000080844E4000A1BC330029018836
:104BD00002D041F0400101E021F040010180704726
:104BE000114910B588420AD1841401212046FEF7EC
:104BF000FFFA2046BDE810400021FEF7F9BA0B4944
:104C0000884202D10121041404E0094988420AD1F2
:104C10000121C4132046FEF7D3FA2046BDE8104018
:104C20000021FEF7CDBA10BD003001400038004031
:104C3000003C00400246002012890A4200D00120B8
:104C40007047808970478181704730B502884C88F1
:104C500002F441530A88CD8822438C882C43224396
:104C60000C8922434C8922438C892243CC892243DC
:104C70001A430280828B22F400628283098A0182B5
:104C800030BD00001CB50024012300941A461946CB
:104C900006480194FDF7B6F80448012300941A462B
:104CA00000210C300194FDF7ADF81CBD64210020FB
:104CB0001CB5012400940023224621460748019494
:104CC000FDF7A0F80020CDE9004003460146034867
:104CD00001220C30FDF796F81CBD00006421002075
:104CE000062817D2DFE800F00306090C0F124FF474
:104CF00000700DE040F201200AE040F2022007E0DF
:104D000040F2032004E04FF4017001E040F205207E
:104D100001F026B87047000070B504460D46192012
:104D200000F087FA41B22170080605D5C843401C3F
:104D3000C0F38500444201E0C1F385041A2000F06D
:104D400078FA0749002C03DA49880844204405E032
:104D50000F23000190FBF3F049880844288070BDC0
:104D600058020020014890F854007047A820002005
:104D70002DE9F34F0100724F81B04FF000000CD0CD
:104D800001297CD10024D7F890002546072854D06B
:104D9000082855D0092858D155E0BA46F86E07F0D2
:104DA00031FD07468946029807F02CFD06468846E5
:104DB000302000F03EFA30F0F9004FF0000401D04E
:104DC000604D00E00025272000F033FA20F0F800C5
:104DD000BAF87010401C084407F014FD9AF87220CD
:104DE000012A4FF0000223D0564B07F083FA2246E7
:104DF0002B4607F07FFA3246434607F07BFA9AF8D3
:104E00007420012A4FF0000214D0002307F072FA38
:104E1000032208F082FA3A464B4607F027FB0022AD
:104E2000494B07F03FFD03B0BDE8F04F06F0B2B9C3
:104E30000023DAE74FF08043E8E70024434D04E025
:104E40000024434D01E0434D002457F8946F0120A6
:104E5000B04007F0C0FC02460B462046294607F04A
:104E600005FB02460B460020364907F0FFFA0446D0
:104E70000D46F88807F0C6FC0022374B00E05CE0E6
:104E800007F038FA22462B4607F00CFD83460091C6
:104E90007879001D07F0B6FC814638798A4600B162
:104EA0000220C0EB860007F0ADFC0746029888465A
:104EB000C000714200EB8101214890F89E0001EB97
:104EC00000111F4890F89C0000B11420081A1C30F3
:104ED00007F098FC3A46434607F0C8FA02F0B8FDDE
:104EE0004A46534607F0DEFC002207460E461346AC
:104EF00007F0D6FD02D23846314601E000200146D7
:104F00000022164B07F0F6F922462B4607F0CAFCA2
:104F100002460B465846009907F0ECF900220A4B6E
:104F200007F0C0FC0E4A0F4B07F0E4F905F008FA51
:104F300003B0BDE8F04F07F021BCBDE8FE8F0000D4
:104F4000A82000200000F03F80842E418084FE4095
:104F500080840E4180841E410000114000002040EA
:104F60002B8716D9CEF7EF3F70B500F095F9FFF714
:104F7000E3FD002000F098FA0D4800F0B1F80D4E66
:104F8000002404EB4405705D00F05AFAA8198178FA
:104F9000407800F0FDFD641CE4B2102CF1D3002039
:104FA00000F04EFA0449002081F8540070BD000062
:104FB0006402002018DC0008A82000201CB5002492
:104FC0000094234622461B2118480194FCF71AFF3F
:104FD0001648002300941A462D210C300194FCF74A
:104FE00011FF1248002300941A4619211830019429
:104FF000FCF708FF0D48002300941A4614212430C2
:105000000194FCF7FFFE0948002300941A4613217F
:1050100030300194FCF7F6FE0448002300941A4651
:105020000F213C300194FCF7EDFE1CBDB4200020A4
:1050300010B50C48FCF7CEFE0A480C30FCF7CAFE4F
:1050400008481830FCF7C6FE06482430FCF7C2FEBC
:1050500004483030FCF7BEFE0248BDE810403C304A
:10506000FCF7B8BEB42000207CB500240125CDE9B2
:105070000054234622461B211848FCF7C3FE17485C
:10508000CDE9005400231A462D210C30FCF7BAFE5E
:105090001248CDE9005400231A4619211830FCF7B4
:1050A000B1FE0E48CDE9005400231A4614212430E5
:1050B000FCF7A8FE0948CDE9005400231A46132145
:1050C0003030FCF79FFE0548CDE9005400231A4616
:1050D0000F213C30FCF796FE7CBD0000B420002080
:1050E00010B504460368022201211448FCF7DEFED5
:1050F0001248022201210C306368FCF7D7FE0F48EA
:10510000022201211830A368FCF7D0FE0B480222CE
:1051100001212430E368FCF7C9FE0848022201217E
:1051200030302369FCF7C2FE044863690222012182
:10513000BDE810403C30FCF7B9BE0000B4200020B0
:1051400070B515460E46044600F07AF9304600F078
:1051500057F95CB912210E2000F01AFD022112202D
:1051600000F016FD0221132000F012FD052000F0D2
:105170009BF964B1012006F095FA204600F066F82C
:10518000044600F043FBAC4203DD002070BD02206A
:10519000F1E7012070BD000003488168002901D0BB
:1051A000002008477047000058020020034881682B
:1051B000002901D001200847704700005802002054
:1051C00003488168002901D0022008477047000089
:1051D0005802002003488168002901D003200847B5
:1051E00070470000580200200149042089680847E0
:1051F0005802002070B50025012000F021F9FF21A0
:10520000112000F0C5FC052000F04EF9002401201B
:1052100006F048FA2C2000F00CF800F00100A04045
:10522000641C0543E4B2202CF1D300F0EFFA2846C9
:1052300070BD08B50122694601F0C6F89DF800006E
:1052400008BD0A460146002001F0BEB810B54FF077
:10525000FF3410B1012817D106E01120FFF7E9FF54
:105260004008404210D010BD1B20FFF7E2FF58B1AC
:105270000649074B8A6D07499A4201D9498800E0DF
:105280008988084400B210BD204610BDA820002027
:1052900040DD4A1F580200201CB50024009423461C
:1052A00001221A210A480194FCF7ACFD012006F006
:1052B000F9F90120CDE9004000231A461A210448DB
:1052C000FCF7A0FDBDE81C40062006F0EBB900008D
:1052D0005821002073B5344C0546002094F8551031
:1052E00011B101295DD126E00020A4F888009DF8C5
:1052F0000410A4F8861094F87200B8B1322000F0BF
:1053000047FC9DF80400411E3F2900D9202084F865
:105310008B00C1B2284600F041FCB4F8880094F834
:105320008B100844A4F88800A06F3AE0012101A87E
:1053300000F034FCE5E794F8A10001284FF03300B9
:105340001DD0FFF776FF00F0BE013320491C00F0AE
:105350001FFC9DF8041084F8AC10222000F018FC0B
:1053600000210E2000F014FC00210D2000F010FCA4
:105370000120FFF75EFF30F0F80006D00AE0FFF7EB
:1053800058FF00F0BE013320E1E700F04BFA0120A6
:1053900006F088F99DF80410284600F0FFFBD4F8C9
:1053A000A40000F04BFA7CBDA820002010B528B165
:1053B00000210848FCF7CCFE012104E0012105484A
:1053C000FCF7C6FE00210348BDE810400C30FCF796
:1053D000BFBE00006421002005490A78824205D042
:1053E000087008B1FFF74EBCFFF762BC70470000C1
:1053F00058020020014988607047000058020020D0
:105400000D4910B5886507F0FDF900220B4B07F038
:105410002DF807F0B3F90446C0F30741062000F069
:10542000B7FBC4F30721072000F0B2FBE1B2BDE8EF
:105430001040082000F0ACBBA820002080844E4023
:10544000184910B591F85520824229D081F85500AD
:1054500001284FF000000FD000F026F80120FFF7E0
:10546000E8FE00F07F01012000F092FB00214020C7
:1054700000F08EFB30210EE000F016F80120FFF75F
:10548000D8FE40F08001012000F082FB0021402086
:1054900000F07EFB0021BDE81040412000F078BB09
:1054A00010BD0000A820002010B5040012D000207C
:1054B000FFF792FF032C11D00020FFF777FF0120A8
:1054C000FFF7B7FE00F0F8012143BDE810400120CE
:1054D00000F05EBB0120FFF77FFFF0E70120ECE763
:1054E00001494880704700005802002070B5394DCE
:1054F000002495F8550010B101284DD124E015F88D
:10550000764F4020FFF795FE00F0030040F00C01BD
:10551000402000F03DFB4120FFF78BFE40F0C10131
:10552000412000F035FB3520FFF783FE00F03F00FF
:1055300028751E210D2000F02BFB0020A871E871BA
:1055400068822882763D27E095F8A10001284FF077
:10555000330029D0FFF76DFE00F0BE013320491C57
:1055600000F016FB95F89F0095F8A240012821D085
:105570001F21112000F00CFB4020FFF75AFE00F025
:105580003F01402000F004FB00210F2000F000FB51
:1055900000210D2000F0FCFA012005F8540F687876
:1055A00000B18CB1052010E0FFF743FE40F041014F
:1055B0003320D5E71D21112000F0EAFA4020FFF743
:1055C00038FE00F03301DCE70620BDE87040FFF74D
:1055D0006BBF0000A82000202DE9F84F9B46DDE9B5
:1055E0000D6A14460D468146DDF82C800F9FFFF7AB
:1055F00027FF84484FEA18225FEA0901009205D08C
:10560000B9F1010F77D1022D48D9FEE740F8645F68
:1056100084600A994160867380F80FA0077412991C
:10562000417413998174A0F80C80204607F0EAF8C1
:1056300002460B460020744906F018FF07F09EF85A
:1056400084B2210A022000F0A3FAE1B2032000F0A4
:105650009FFA2846FCF7C8FA0146122000F098FA93
:105660000A98FCF7C1FA0146132000F091FA2520B0
:10567000009900F08DFA08F0FF01262000F088FA6A
:105680003020FFF7D6FD00F06F010EB1002000E0E2
:105690008020014341EA07113020A3E08146ED1D3F
:1056A000E0E924540C2C80F809B0067380F80DA0B2
:1056B00087731099C17311990174129941741399E8
:1056C00089F8A21001D90C2402E0062C00D206248D
:1056D000072D02D0082D02D003E00B2C0CD00C2C8F
:1056E0000AD0002189F89810072D07D0082D05D081
:1056F000092D12D019E083E00121F3E73120FFF7F3
:1057000098FD20F08001312000F042FA40212F2046
:1057100000F03EFA0021302005E03120FFF789FD3E
:1057200040F08001312000F033FA1D20FFF781FDA9
:10573000290141EA4B003043C1B21D2000F028FA94
:105740001E20FFF776FD00F0080040EA041040EA52
:1057500087010C98032202EA10200143C9B21E20DF
:1057600000F016FA2620FFF764FD99F8981000F073
:10577000F70040EAC100C1B24D46262000F008FA09
:105780000C98C1B21F2000F003FA2020009900F00D
:10579000FFF908F0FF01212000F0FAF91EB151468F
:1057A000222000F0F5F995F89F0001280CD1442043
:1057B000FFF73FFD40F08001442000F0E9F995F843
:1057C000A010242000F0E4F9062C4FF031000DD099
:1057D000FFF72FFD00F0F8013120C91C00F0D8F9C7
:1057E0000A213720BDE8F84F00F0D2B9FFF721FDBC
:1057F00000F0F8013120491D00F0CAF90C21F0E752
:10580000BDE8F88FA820002080847E4110B50020DC
:10581000FFF74AFE0249002081F8540010BD000045
:10582000A820002010B50120FFF73EFE024900200D
:1058300081F8540010BD0000A820002010B5224CB3
:1058400094F8550010B101282CD119E04020FFF741
:10585000F0FC00F0030040F01001402000F098F947
:105860004120FFF7E6FC00F03E01412000F090F9F6
:105870003520FFF7DEFC00F03F0084F88A0011E0DD
:1058800094F89F00012815D0F721112000F080F92D
:105890004020FFF7CEFC00F03F0040F040014020E8
:1058A00000F076F9022084F85400BDE8104003208F
:1058B000FFF7FABDF521112000F06AF94020FFF74B
:1058C000B8FC00F03300E8E7A82000202DE9FF4FE6
:1058D00081B09A46DDE90E5BDDE910790C46DDF812
:1058E00048800198FFF7ACFD0920FFF7A2FC00906B
:1058F0004D20FFF79EFC0646009800F07F0040F028
:10590000F000010635D5112C02DD46F0070602E055
:1059100006F0F806361DF143490703D0022C0CDAD5
:1059200002240DE0052C01DA052402E0142C00DD30
:10593000142400F0F001601F05E0112C00DD11249B
:1059400000F0F001A01E00F00F000143092000F05C
:105950001FF931464D2000F01BF901983E0AA8B10D
:1059600001287DD17748BAF1020F80F88C405BD9CD
:10597000FEE74FF0FF318C4201DA0C4602E00E2CBC
:1059800000DD0E2400F0F001601CDCE76D4800F83B
:105990005C4F03990561C0E9011A878280F816906F
:1059A00080F81880159941761699C161039806F020
:1059B00029FF0022644B06F059FD06F0DFFE84B299
:1059C000210A042000F0E4F8E1B2052000F0E0F83C
:1059D000284606F017FF02460B4600205B4906F0FA
:1059E00045FD06F0CBFE84B2210A022000F0D0F87B
:1059F000E1B2032000F0CCF83146252000F0C8F8D1
:105A0000F9B2262000F0C4F83020FFF712FC00F0B5
:105A10006F01B9F1000F01D0002000E080200143A8
:105A200041EA081130207AE00AF10704C0E9244570
:105A300080F899B0A0F89A7080F89C90139980F83B
:105A40009F10149A80F8A02080F89E80159A80F804
:105A5000A120169AC0F8A4200C2D02D90C2503E031
:105A60006CE0062D00D20625072C02D0082C02D0AF
:105A700003E00B2D08D00C2D06D0002280F89820D2
:105A80008246012902D00EE00122F7E74420FFF709
:105A9000D0FB40F08001442000F07AF89AF8A01082
:105AA000242000F075F81D20FFF7C3FB210141EA17
:105AB0004B0040EA0900C1B21D2000F069F81E2029
:105AC000FFF7B7FB00F00B0040EA051141EA880040
:105AD000C1B21E2000F05CF82620FFF7AAFB00F000
