:020000040800F2
:10000000F04E002029A50008A9A30008ABA3000812
:1000100000000000000000000000000000000000E0
:100020000000000000000000000000006F35020822
:100030000000000000000000C7010008BDA3000888
:100040003BA500083BA500086D6B01083BA5000817
:100050003BA50008FB650108176601083366010827
:100060003BA500083BA500083BA500083BA50008F0
:100070003BA500083BA500083BA500087F780108C8
:10008000897801083BA500083BA500080000000096
:100090003BA500083BA500083BA500083BA50008C0
:1000A0003BA500083BA500083BA50008A375010877
:1000B000997501083BA500083BA500083BA5000871
:1000C00000F002F800F059F80CA030C808382418E5
:1000D0002D18A246671EAB4654465D46AC4201D180
:1000E00000F04BF87E460F3E0FCCB6460126334259
:1000F00000D0FB1AA246AB46334318472CBF020080
:100100004CBF02000023002400250026103A01D332
:1001100078C1FBD8520700D330C100D50B607047BF
:1001200010B5662902D129F015F910BD642902D154
:1001300025F0B6FC10BD782902D125F0E7FC10BDF2
:10014000732902D127F0FAF910BD002010BD1FB5A8
:100150000098019926F013FF27F076FB0400002099
:10016000002128F021FF401C60600020002128F0C1
:1001700031FFE0601FBD10B510BD27F020FF114614
:10018000FFF7E5FF00F05CF828F0A0F903B4FFF7F3
:10019000F2FF03BC28F000FA064B1968086820300B
:1001A00080F30988022080F314883FBCAE4662B613
:1001B00000BD000064030020EFF3108072B67047AA
:1001C00080F310887047EFF309800E4B1A682038CF
:1001D0001060F0C044464D4656465F46F0C008B534
:1001E00072B622F0BFF962B60CBC11680868103014
:1001F000F0C8A046A946B246BB4680F3098820381D
:10020000F0C818476403002070B505460C46164632
:1002100002E00FCC0FC5103E102EFAD2082E02D3EA
:1002200003CC03C5083E042E07D301CC01C5361FFD
:1002300003E021782970641C6D1C761EF9D270BD14
:100240001FB515F057FE02F07CF800200123019045
:10025000029000930390034660227CA17E4821F027
:10026000A8FE00200423019002900093039003460F
:10027000FF22813279A17C4821F09BFE00200323DC
:1002800001900290009303900346FF22193277A158
:10029000794821F08EFE0020022301900290009305
:1002A00003900346602275A1774821F082FE22F078
:1002B0000FFB002004B010BD744A1060744A116036
:1002C00000BFFEE700BFFEE710B504460020206037
:1002D00025F066F915F027FE0CF0F4FF0DF094F808
:1002E0000DF082F8012108460DF019F810BD10B587
:1002F000044615F0FFFD25F0F5F810BDF1B582B00C
:1003000017F074FA002800D0FEBD17F015FA002887
:1003100000D0F9E75F4902980968884202D95D4830
:10032000006802905C480069400840005A49086132
:10033000084681690298401E584A126850430C18BA
:1003400057480068844202D955480068241A72B69A
:1003500022F0F2FC00280FD14F4880694E494861D5
:1003600008460069012108434B4908614B48006871
:10037000401E486162B666E0474844610020464935
:1003800088610846006901210843434908610298D1
:10039000019001A8FFF798FF0198002804D0BFF34F
:1003A0004F8F30BFBFF36F8F02A8FFF7A0FF3A480F
:1003B0000769780840003849086162B601200004E6
:1003C0003840002816D035490968491E324A9269DA
:1003D000A21A881A32490968884203D32F4909684A
:1003E000884202D92D490968481E2B494861029963
:1003F0004D1E13E029490298096848432649896936
:10040000461A26480168304625F074FE0546681CE9
:10041000224909684843801B1F49486100201E4942
:10042000886123F0FDF81C480069012108431A493E
:100430000861284622F024FB18480068401E16492F
:10044000486123F0F8F800BF5EE7000054696D656D
:10045000725461736B000000712300084C6F52618D
:100460004D61635461736B003FFC01085374617408
:10047000655461736B000000851D0008556172743E
:100480005461736B00000000FD2700081C00002071
:1004900020000020BC03002000E000E0B8030020A2
:1004A000C003002070B588B004460E4668468480BC
:1004B00000258088FF380338002802D0012802D1A7
:1004C00000E000BF00E000BF00BF00231A4601A902
:1004D000F948006821F051FB012809D1012D04D110
:1004E000002D02D00007F5494860002008B070BD1B
:1004F0000120FBE710B50446002C05D10021FF20A8
:100500000130FFF7CFFF06E0012C04D10021FF20CE
:100510000230FFF7C7FF10BD30B58DB005460C4661
:1005200068460583008B002806D0012807D00228E2
:1005300021D003287ED11FE02068079090E0A268B8
:1005400021686068059203910490049908910499C8
:10055000481C22F017FF07906846017D06A801732A
:10056000049A511C079825F047FD049A03990798AF
:1005700025F0DCFC74E073E0182221466846FFF7A2
:1005800043FE68460088012805D068460088FF21A0
:100590000631884224D1684601888183017C06A8FF
:1005A00001756846C18806A841816846017906A898
:1005B00001726846017A06A801736946097A481CE7
:1005C00022F0E0FE0A906A46127A511C0A9825F041
:1005D00013FD6B461A7A03990A9825F0A7FC3DE0B3
:1005E00068460088132834D16846018881830179E0
:1005F00006A801726846017B06A801746946097B5A
:10060000481C22F0BFFE09906A46127B511C0998D3
:1006100025F0F2FC6B461A7B0299099825F086FCBE
:100620006846017D06A801766946097D481C22F0CE
:10063000A9FE00E013E00B906A46127D511C0B9856
:1006400025F0DAFC6B461A7D04990B9825F06EFCB8
:1006500004E01822694607A8FFF7D6FD00E000BFB6
:1006600000BF00231A4606A99348006821F075F8D8
:10067000012802D100200DB030BD0120FBE701B5FB
:1006800069460020FFF748FF08BD0FB410B502A966
:100690000320FFF741FF10BC08BC04B01847F0B5B9
:1006A00085B007460E461446204622F06BFE0546EE
:1006B0002146284625F0A0FC002000900346804AF1
:1006C000214602950190304620F0E7FD224629465A
:1006D000384615F08CFD0390284622F0DCFE039886
:1006E00005B0F0BD10B507F02BFC05F0E5F806F0FD
:1006F00020F803F081FE734C902273492046FFF7E7
:10070000CEFF9034A62271492046FFF7C8FFA634D9
:1007100034226F492046FFF7C2FF34343B221201D6
:100720006C49204615F063FD10BDFEB506460C462B
:100730001546284622F026FE07462946384625F06B
:100740005BFC2A463946304615F03AFD0020009001
:1007500003465B4A294602940190384620F005FE84
:10076000384622F098FE06225B49204625F009FB18
:10077000002801D00020FEBD0120FCE770B5012457
:10078000504D902250492846FFF7CFFF0440903546
:10079000A6224E492846FFF7C8FF0440A63534225A
:1007A0004B492846FFF7C1FF044034353B22120174
:1007B0004849284615F004FD002C09D108F0EAF854
:1007C00008F0A4F808F075F804F0C0FBFFF78AFF02
:1007D000204670BDF8B505460E46174600240EE0CB
:1007E00000200090600041190A786846027049783C
:1007F00041701022002125F089FA3055641CBC425A
:10080000EEDBF8BDF7B586B005460F46142233A1DE
:1008100001A8FFF7F9FC00240DE03E5D301101A9AD
:10082000085C610068543007000F01A9095C600092
:10083000401C2954641C08988442EEDB09B0F0BDCA
:10084000FFB58DB01D462148C77D0E9801780C91EB
:10085000169804780026FDE30D990C98085C214653
:10086000621CD4B268540C99481CC2B20C920D9808
:10087000405CBD2801D100F0C6FF43DC0A2875D0DA
:1008800010DCC01E072801D301F0E4F943007B44CB
:100890009B885B009F4452007A02DB02DE09BD03A5
:1008A0009A04FE04BA2801D100F0F6FE23DCB22837
:1008B0001ED100F074FE00005000002000ED00E0AA
:1008C0003E00002040060808400A0020D00A002010
:1008D000780B0020B00B0020AC930208303132338B
:1008E000343536373839414243444546000000002C
:1008F000B928C9D1FCE3BB2801D100F002FFBC2814
:10090000C2D1F6E3BE381428BED243007B449B8894
:100910005B009F44BA07FB079F099F093C087D08BD
:100920008D08C008F9089F099F099F099F099F0921
:100930002D099F096E098709CF0502060C99481CED
:10094000C2B20C920D98465C012E01D0F22E7DD1E0
:100950000C99481CC2B20C920D98435CF22E06D141
:1009600002212046621CD4B2295404E0FEE3204652
:10097000611CCCB22E542046611CCCB22B54012FEA
:1009800007D0022F05D0032F03D0062F01D0072F49
:1009900027D1F748C0790101F548007A0007000F18
:1009A00001432046621CD4B22954F1488038808823
:1009B00001122046621CD4B22954ED4880380179D6
:1009C0002046621CD4B22954702018400101E84826
:1009D000407A0007000F01432046621CD4B229541C
:1009E000D3E1042F05D0052F03D0082F01D0092F04
:1009F000F6D1E048C0790001DE49097A0907090FFC
:100A00000843C1B22046621CD4B229545900D948C7
:100A10008438405A01122046621CD4B2295459002D
:100A2000D4488438415C2046621CD4B229547020DA
:100A300018400001CF49497A0907090F0843C1B29C
:100A40002046621CD4B229549FE1FFE7022E7CD1DC
:100A500000210991089107910491059106910C9943
:100A6000481CC2B20C920D98435C012F07D0022F94
:100A700005D0032F03D0062F01D0072F05D1BC4886
:100A800080388088694608821EE0BB48C07D042803
:100A900007D0B948C07D052803D0082F01D0092F01
:100AA00012D100200B900CE00B984100B148843823
:100AB000415A0B98400004AA11520B98401CC1B235
:100AC0000B910B980628EFDB0C99481CC2B20C92D4
:100AD0000D98405C41B2089108980107090F0991EF
:100AE00008980006010F08910C99481CC2B20C929C
:100AF0000D98405C01020A910C99481CC2B20C92FC
:100B00000D98415C0A9801430A910C99481CC2B2A5
:100B10000C920D98415C079107984006430F079887
:100B20000107090F07910798002801D101200790BC
:100B3000012F07D0022F05D0032F03D0062F01D09D
:100B4000072F2FD100200B9014E019E1062B0DD1B7
:100B50000B98C1008648FC384058002806D0012078
:100B60000B9988400A99084380B20A900B98401C60
:100B7000C1B20B91814909780B988842E6DB68463F
:100B80000A9901820898C1B27948C1710998C1B225
:100B900077480172079941726846018A7448803823
:100BA0008180DBE0042F03D0052F01D0082F71D105
:100BB000062B34D100210391029126E00020019000
:100BC00018E0019903984018C1006948FC38405862
:100BD00000280BD00298400004A9095A012201986C
:100BE000824011430298400004AA11520198401C0F
:100BF000C1B2019101981028E3DB03981030C1B213
:100C000003910298401CC1B202915C4800780838F8
:100C100003998842D2DC69460A9808830FE0072BC3
:100C200009D100216846018241828182C1826946E0
:100C30000A98088303E0590004AA0A9850520898B9
:100C4000C1B24C48C1710998C1B24A4801724949C0
:100C5000079848726846018A464888388180684605
:100C6000418A4448843841806846818A41488438B2
:100C700081806846C18A3F488438C1806846018BBC
:100C80003C48843801816846418B3A488438418128
:100C900064E0FFE7092F61D1062B30D100210391D9
:100CA000029126E00020019018E001990398401875
:100CB000C1002F48FC38405800280BD00298400053
:100CC00004A9095A01220198824011430298400068
:100CD00004AA11520198401CC1B201910198102838
:100CE000E3DB03981030C1B203910298401CC1B2FB
:100CF00002912249097803988842D3DB05E0072B4B
:100D000003D0590004AA0A9850520898C1B2194851
:100D1000C1710998C1B21748017216490798487203
:100D20006846018A1348883881806846418A11489C
:100D3000843841806846818A0E48843881806846BC
:100D4000C18A0C488438C1806846018B09488438C0
:100D500001816846418B074884384181F221204651
:100D6000621CD4B229542046611CCCB22B540CE036
:100D7000B80C0020400F0020D00A002024000020E2
:100D800000262046611CCCB22E54FDE30C99481C71
:100D9000C2B20C920D98465C012E01D0F22E2BD1DE
:100DA000F22E05D102202146621CD4B2685403E021
:100DB0002046611CCCB22E54012F07D0022F05D043
:100DC000032F03D0062F01D0072F06D1FA488079D0
:100DD0002146621CD4B2685438E0042F05D0052F98
:100DE00003D0082F01D0092F30D1F4488079214653
:100DF000621CD4B2685429E0022E22D10C99481CFE
:100E0000C2B20C920D98435C012F07D0022F05D07F
:100E1000032F03D0062F01D0072F02D1E64883719C
:100E200009E0042F05D0052F03D0082F01D0092F8A
:100E300001D1E2488371F2212046621CD4B22954C8
:100E400004E000262046611CCCB22E549DE70C998C
:100E5000481CC2B20C920D98465C012E01D0F22EB5
:100E600079D1F22E05D102202146621CD4B26854F9
:100E700003E02046611CCCB22E54012F07D0022F74
:100E800005D0032F03D0062F01D0072F2DD1CA483C
:100E9000007B0101C848007D0007000F0143C8B274
:100EA0002146621CD4B26854C3490869642125F004
:100EB00021F9000E2146621CD4B26854BE4908696B
:100EC000642125F017F90002000E2146621CD4B2FD
:100ED0006854B9490869642125F00CF90004000E32
:100EE0002146621CD4B2685492E0042F05D0052F2D
:100EF00003D0082F01D0092F2BD1B048007B00016F
:100F0000AE49097D0907090F08432146621CD4B286
:100F10006854AA490869642125F0ECF8000E2146BE
:100F2000621CD4B26854A5490869642125F0E2F82E
:100F30000002000E2146621CD4B268549F49086921
:100F4000642125F0D7F80004000E2146621CD4B2BB
:100F500068545DE0FFE7022E55D100BF00BF00BF1F
:100F60000D990C98085C4006410F0A910D990C9858
:100F7000085C0107090F0B910C98401CC1B20C9141
:100F80000C99481CC2B20C920D98405C03040C9959
:100F9000481CC2B20C920D98405C01020B430C99A4
:100FA000481CC2B20C920D98415C0B436420434331
:100FB000012F07D0022F05D0032F03D0062F01D019
:100FC000072F09D10A98C1B27B4801730B98C1B2AF
:100FD00079480175036110E0042F05D0052F03D077
:100FE000082F01D0092F08D10A98C1B273480173A4
:100FF0000B98C1B2714801750361F2212046621C51
:10100000D4B2295404E000262046611CCCB22E54F0
:10101000BBE60C99481CC2B20C920D98465C012E9E
:1010200001D0F22E66D1012F07D0022F05D0032F59
:1010300003D0062F01D0072F4CD10C99481CC2B207
:101040000C920D98415C0B91F22E07D102202146A3
:10105000621C00E0FEE3D4B2685403E02046611C49
:10106000CCB22E542146621CD4B20B9868540B9912
:10107000CA005149FC398858642125F03BF8000228
:10108000000E2146621CD4B268540B99CA004A492A
:10109000FC398858642125F02DF80004000E214603
:1010A000621CD4B268540B99CA004349FC39885871
:1010B000642125F01FF82146621CD4B268540B98B5
:1010C000C1003D48FC38081800792146621CD4B2A2
:1010D00068547AE0042F05D0052F03D0082F01D0E3
:1010E000092F72D100202146621CD4B268546CE0F2
:1010F0009DE247E3022E63D100BF00BF00BF0C9901
:10110000481CC2B20C920D98405C41B20B910C99F4
:10111000481CC2B20C920D98405C03040C99481C08
:10112000C2B20C920D98405C01020B430C99481C12
:10113000C2B20C920D98415C0B43642019464143A6
:101140000B460C99481CC2B20C920D98415C0A9156
:10115000012F07D0022F05D0032F03D0062F01D077
:10116000072F1AD10B98C100134800E001E1FC38A9
:1011700043500A9841B20B98C2000F48FC3810182F
:101180000171F2212046621CD4B229540B98C1B2DD
:101190002046621CD4B229540CE0042F05D0052F40
:1011A00003D0082F01D0092F04D100212046621C52
:1011B000D4B2295409E003E0B80C0020400F00200D
:1011C00000262046611CCCB22E54DEE50C99481C4A
:1011D000C2B20C920D98465C012E01D0F22E2BD19A
:1011E000F22E05D102202146621CD4B2685403E0DD
:1011F0002046611CCCB22E54012F07D0022F05D0FF
:10120000032F03D0062F01D0072F06D1F748C07A4D
:101210002146621CD4B268543BE0042F05D0052F50
:1012200003D0082F01D0092F33D1F148C07A2146CD
:10123000621CD4B268542CE0022E25D100230C99F4
:10124000481CC2B20C920D98405C03071B0F012F83
:1012500007D0022F05D0032F03D0062F01D0072F70
:1012600002D1E248C37209E0042F05D0052F03D054
:10127000082F01D0092F01D1DD48C372F221204689
:10128000621CD4B2295404E000262046611CCCB272
:101290002E547AE50C99481CC2B20C920D98465C0B
:1012A000012E01D0F22E2AD1062F01D0072F20D1F6
:1012B000F22E05D102202146621CD4B2685403E00C
:1012C0002046611CCCB22E54C848007E400120212B
:1012D0000840C649497E0901102211400843C3490C
:1012E000897E0907090F08432146621CD4B268545D
:1012F0003EE000202146621CD4B2685438E0022E41
:1013000031D100230C99481CC2B20C920D98435C59
:10131000012F07D0022F05D0032F03D0062F01D0B5
:10132000072F12D1202018404111B048017610201B
:1013300018400111AD4841761907090F8176F22155
:101340002046621CD4B229540CE0042F05D0052F8E
:1013500003D0082F01D0092F04D100212046621CA0
:10136000D4B2295404E000262046611CCCB22E548D
:101370000BE50C99481CC2B20C920D98465C012EEC
:1013800001D0F22E4AD1062F01D0072F40D10C995F
:10139000481CC2B20C920D98415C0B91F22E05D103
:1013A00002202146621CD4B2685403E02046611C2E
:1013B000CCB22E542146621CD4B20B9868540B99BF
:1013C0008A008A491C318858642124F093FE000267
:1013D000000E2146621CD4B268540B998A008349DE
:1013E0001C318858642124F085FE0004000E21463B
:1013F000621CD4B268540B998A007C491C3188580D
:10140000642124F077FE2146621CD4B2685450E077
:1014100000202146621CD4B268544AE0022E43D117
:101420000C99481CC2B20C920D98415C0B910C991E
:10143000481CC2B20C920D98405C03040C99481CE5
:10144000C2B20C920D98405C01020B430C99481CEF
:10145000C2B20C920D98415C0B4364201946414383
:101460000B46012F07D0022F05D0032F03D0062FE4
:1014700001D0072F0AD10B9881005C481C304350E3
:10148000F2212046621CD4B229540CE0042F05D06E
:10149000052F03D0082F01D0092F04D100212046A9
:1014A000621CD4B2295404E000262046611CCCB250
:1014B0002E54D5E30C99481CC2B20C920D98465C90
:1014C000012E01D0F22E12D1F22E05D1022021469A
:1014D000621CD4B2685403E02046611CCCB22E5486
:1014E0004448407B2146621CD4B2685414E0022E6A
:1014F0000DD10C99481CC2B20C920D98405C3D492C
:101500004873F2202146621CD4B2685404E00026DD
:101510002046611CCCB22E54A2E302210B910C99FF
:10152000481CC2B20C920D98465C012E01D0F22EDE
:101530001AD1F22E05D102202146621CD4B2685481
:1015400003E02046611CCCB22E5402220AA92A488C
:10155000FFF740F9291908A8007A087008A8407A0E
:101560004870A01CC4B219E0022E12D10D9A0C983A
:10157000111802222048FFF745F90C98801CC1B2CF
:101580000C91F220214600E000E2621CD4B26854C3
:1015900004E000262046611CCCB22E5460E30421F6
:1015A0000B910C99481CC2B20C920D98465C012E0E
:1015B00001D0F22E22D1F22E05D102202146621C4A
:1015C000D4B2685403E02046611CCCB22E540422ED
:1015D0000AA908485B30FFF7FDF8281904220AA978
:1015E00024F0A4FC201DC4B220E00000B80C0020B0
:1015F000400F0020D00A0020A20A0020022E10D1A5
:101600000D9A0C9811180422FA48FFF7FBF80C9871
:10161000001DC1B20C91F2202146621CD4B2685464
:1016200004E000262046611CCCB22E5418E30C992D
:10163000481CC2B20C920D98465C012E01D0F22ECD
:1016400013D1F22E05D102202146621CD4B2685477
:1016500003E02046611CCCB22E54E6485B38007B88
:101660002146621CD4B2685415E0022E0ED10C99AA
:10167000481CC2B20C920D98405CDE495B3908737D
:10168000F2202146621CD4B2685404E000262046B1
:10169000611CCCB22E54E3E20C99481CC2B20C92ED
:1016A0000D98465C012E01D0F22E13D1F22E05D1F9
:1016B00002202146621CD4B2685403E02046611C1B
:1016C000CCB22E54CB485B38807D2146621CD4B20C
:1016D000685415E0022E0ED10C99481CC2B20C922F
:1016E0000D98405CC3495B398875F2202146621C25
:1016F000D4B2685404E000262046611CCCB22E54BB
:10170000AEE210210B910C99481CC2B20C920D98BC
:10171000465C012E01D0F22E1AD1F22E05D1022004
:101720002146621CD4B2685403E02046611CCCB24E
:101730002E54102207A9AF480930FFF74BF828199B
:10174000102207A924F0F2FB20461030C4B218E0A2
:10175000022E11D10D9A0C9811181022A5480930AB
:10176000FFF750F80C981030C1B20C91F2202146CE
:10177000621CD4B2685404E000262046611CCCB23E
:101780002E546DE210210B910C99481CC2B20C92A0
:101790000D98465C012E01D0F22E1AD1F22E05D101
:1017A00002202146621CD4B2685403E02046611C2A
:1017B000CCB22E54102207A98E482A30FFF70AF81F
:1017C0002819102207A924F0B1FB20461030C4B21A
:1017D00018E0022E11D10D9A0C981118102285488C
:1017E0002A30FFF70FF80C981030C1B20C91F2209C
:1017F0002146621CD4B2685404E000262046611CD5
:10180000CCB22E542CE208210B910C99481CC2B288
:101810000C920D98465C012E01D0F22E1BD1F22EB7
:1018200005D102202146621CD4B2685403E0204650
:10183000611CCCB22E54082209A96E484338FEF729
:10184000C9FF2819082209A924F070FB2046083096
:10185000C4B219E005E2022E11D10D9A0C981118AC
:10186000082264484338FEF7CDFF0C980830C1B217
:101870000C91F2202146621CD4B2685404E0002688
:101880002046611CCCB22E54EAE108210B910C9940
:10189000481CC2B20C920D98465C012E01D0F22E6B
:1018A0001AD1F22E05D102202146621CD4B268540E
:1018B00003E02046611CCCB22E54082209A94D48F1
:1018C0001138FEF787FF2819082209A924F02EFBFA
:1018D00020460830C4B218E0022E11D10D9A0C989F
:1018E0001118082243481138FEF78CFF0C98083075
:1018F000C1B20C91F2202146621CD4B2685404E0BB
:1019000000262046611CCCB22E54A9E110210B9177
:101910000C99481CC2B20C920D98465C012E01D065
:10192000F22E1AD1F22E05D102202146621CD4B229
:10193000685403E02046611CCCB22E54102207A943
:101940002C483238FEF746FF2819102207A924F048
:10195000EDFA20461030C4B218E0022E11D10D9AD3
:101960000C981118102223483238FEF74BFF0C98C0
:101970001030C1B20C91F2202146621CD4B26854DE
:1019800004E000262046611CCCB22E5468E10C997C
:10199000481CC2B20C920D98465C012E01D0F22E6A
:1019A00013D1F22E05D102202146621CD4B2685414
:1019B00003E02046611CCCB22E540E485B38C07D3B
:1019C0002146621CD4B2685421E0022E1AD10C992F
:1019D000481CC2B20C920D98435C0E2B0CDA002B03
:1019E0000AD004485B38C375F2212046621CD4B289
:1019F000295406E02B0B002000262046611CCCB2A7
:101A00002E5404E000262046611CCCB22E5427E15F
:101A10000C99481CC2B20C920D98465C012E06D05F
:101A2000022E04D000262046611CCCB22E5417E1B1
:101A30000C99481CC2B20C920D98465C012E01D044
:101A4000F22E12D1F22E05D102202146621CD4B210
:101A5000685403E02046611CCCB22E54FE48C07A84
:101A60002146621CD4B2685414E0022E0DD10C99A8
:101A7000481CC2B20C920D98405CF749C872F22023
:101A80002146621CD4B2685404E000262046611C42
:101A9000CCB22E54E4E007210B910C99481CC2B241
:101AA0000C920D98465C012E01D0F22E13D1F22E2D
:101AB00005D102202146621CD4B2685403E02046BE
:101AC000611CCCB22E5428190722E44924F02EFAC6
:101AD000E01DC4B217E0022E10D10D9A0C98111817
:101AE0000722DE4824F022FA0C98C01DC1B20C91E6
:101AF000F2202146621CD4B2685404E0002620463D
:101B0000611CCCB22E54ABE013210B910C99481CF4
:101B1000C2B20C920D98465C012E01D0F22E19D162
:101B2000132206A9CE48FEF755FEF22E05D102205B
:101B30002146621CD4B2685403E02046611CCCB23A
:101B40002E542819132206A924F0F0F92046133048
:101B5000C4B20CE0022E05D100262046611CCCB296
:101B60002E5404E000262046611CCCB22E5477E0AF
:101B70000C99481CC2B20C920D98465C012E05D1FE
:101B800000262046611CCCB22E5431E0022E2AD110
:101B9000FEF7A8FDFEF7F2FD0F990D9824F02CFA40
:101BA000224629460D9824F0C1F901210B9116987F
:101BB00001780A910AA80090A01EC2B22B460BA978
:101BC0000D98FEF73DFECC2108A8027A501CC3B246
:101BD0000A93A95408A8017A481CC2B20A926E540A
:101BE00008A8047A04E000262046611CCCB22E54DA
:101BF00036E00C99481CC2B20C920D98465C012E3E
:101C00000FD0022E08D1FEF7B9FDFEF76BFD20467E
:101C1000611CCCB22E5404E000262046611CCCB2DC
:101C20002E541DE000BF00BF00BF00BF00BFBFF3C8
:101C30004F8F00BF00BF00BF8A488B49C86000BFFC
:101C400000BF00BFBFF34F8F00BF00BF00BF00BF8A
:101C500000BFFDE700262046611CCCB22E5400BF19
:101C600000BF0F990C98884201DAFEF7F5FD002EAF
:101C700004D116980470002011B0F0BD16980470BD
:101C80000120F9E7FFB587B005460C4674E02178DE
:101C9000481C20706E5CD02E04D0D12E03D0D22EE2
:101CA00066D141E000BF00210491FF20013021F006
:101CB00069FB0746FF210131384624F09DF968464B
:101CC000017C481CC2B204927E541098017811988D
:101CD000401E814217DA10980178481CC2B2109851
:101CE00002700A984654D02E0CD160480078012822
:101CF00008D104A83B46009021462846099AFEF7E1
:101D00009FFD00E000BF05976846017C0176022137
:101D100041760021C17605A9FF20013017F07AF93C
:101D2000384621F0B8FB26E014206946888004205C
:101D300021F028FB0390042101A80173D22103980C
:101D400001702178481C2070695C039841702178EB
:101D5000481C2070695C039881702178481C2070B1
:101D6000695C0398C17001A90320FEF7D5FB02E06E
:101D700000200BB0F0BD00BF21780998814286DBBE
:101D80000120F6E788B03A4814F0FBFC39481DF012
:101D900031FF39481DF031FF00221C2105201FF0C2
:101DA0000EFC3649086008460068002802D172B669
:101DB00000BFFEE708F0E0F900BF00235A1E01A9AA
:101DC0002E4800681FF0D9FD01A808F0F6F9F4E7E5
:101DD000417800290CD10178002904D0012903D0D1
:101DE000032903D101E002E001E000E000BF00BFF1
:101DF0000121234A1170704710B58EB004466078F7
:101E0000002801D00EB010BD2078002806D001288F
:101E100005D0022844D0032843D140E000BFA07C75
:101E2000012807D109206946088102A90320FEF78D
:101E300073FB00BF13480078002802D0E078002828
:101E40002CD1012168460184E18908A8C180A168DC
:101E50000B91E178017417E0D00A0020470A0020B6
:101E6000949302080400FA0500ED00E05D000020F4
:101E7000F50400088B060008851C000850000020AF
:101E80005C000020F8040020217B0172207C41B21C
:101E900008A8017108A90320FEF73EFB02E001E05B
:101EA00000E000BF00BFFE480078012804D1FC48D4
:101EB0008089401CFA498881607B01287DD1207B84
:101EC00000287AD0E078012804D0022803D0E02846
:101ED00074D101E000BFB1E0F148007800283CD1A6
:101EE000207B042838D1A06800780128FAD1A068A6
:101EF00040780128F6D1A06880780128F2D1A06846
:101F0000C0780128EED10020E6490870E020E649BB
:101F100008700220E54908700020E1498881887333
:101F2000C873087401200870487002216846017562
:101F30000121017605A81DF02AFBDD480078032861
:101F400002D100201DF050FE0120400269460884A5
:101F500008A90320FEF7E0FA6EE0A0680078D049F7
:101F6000487008464078030026F0F7FD07052C303E
:101F7000363D515864000020CA4908700220CA4901
:101F800008701020C94908700020C5498881087070
:101F90000221684601750121017605A81DF0F7FAB6
:101FA000C3480078032802D101201DF01DFEC1485E
:101FB0006946088408A9032001E040E03DE0FEF7FF
:101FC000ABFA38E00220B949087034E00120B54985
:101FD0000870B34948702EE00020B2490870012013
:101FE000AF49487027E0207BB04908700420B2490F
:101FF0000870012006E0A168095C491CAE4A115432
:10200000411CC8B2A94909788842F4DB13E00120D9
:102010006946087101A81DF08BFC0CE00020A04966
:102020000870A448401C6946088408A90320FEF7EC
:1020300073FA00E000BF00BF00E000BF00BF00BFB8
:10204000E0E610B586B004466078002842D12078DA
:10205000002804D0012806D0022839D126E001202A
:102060009649087035E08E480078012806D18C49E1
:102070008873207CC873607C087416E0152069465C
:102080000880032021F07EF9029003216846017345
:10209000022102980170217C02984170617C0298B3
:1020A000817069460320FEF737FA12E01620694670
:1020B0000880012021F066F9029001216846017331
:1020C0000D210298017069460320FEF725FA00E011
:1020D00000BF00BF01207949087006B010BD01465D
:1020E000022902D0E0293CD10CE0002004E00022CB
:1020F000714B1A54421CD0B21028F8DB10206B4AE6
:1021000010702FE06648807B012812D10020644ABD
:1021100090730320654A10700520674A107060486C
:10212000C07B50705E48007C907001205C4A50700B
:1021300016E05B484078012805D004280FD1012023
:10214000574A50700BE00220584A1070544880895A
:102150000012594A10705248007B507000BF00BFF7
:1021600000E000BF00BF70474D48007870470EB5D3
:1021700004206946087068461DF084F9019806F04D
:10218000CEFC4B481EF0B8FE4D48807D002801D0A3
:1021900002F032F90EBD4B49087070473EB507207A
:1021A00043490870087203244548C07D012801D1C5
:1021B00000240AE04248C07D022801D1012404E045
:1021C0003F48C07D032800D10224002015E01421DF
:1021D00061433D4A891882008A58C30034490C3152
:1021E000CA505022C30059180A710022C300304956
:1021F0000C3159184A71411CC8B20428E7DB0F2181
:102200002B4888308180142060432F494018016991
:102210002E4801610B2101750521C1710121017059
:1022200002214170002181704021C1702021017183
:102230000021417181710172012141720521817278
:102240000121C172002101730721817600210176ED
:102250004176002006E0002283001C491C31CA5050
:10226000411CC8B21028F6DB114819F0BAFEFEF77F
:1022700085FA002168460170022101711DF087F97D
:102280000321684601700020019068461DF07FF927
:102290000421684601701022002109485B3017E0D4
:1022A000F8040020560000205400002055000020B3
:1022B000B00B002001020000B80400205C000020E8
:1022C000D00A00205D000020709A0208B80C00209F
:1022D00023F01CFD019068461DF059F90521684660
:1022E00001700A48019068461DF051F906216846C0
:1022F00001700748019068461DF049F901216846C0
:10230000017001711DF043F93EBD0000609A0208A2
:10231000509A020800B587B000200690002306AA54
:102320006946C24800681FF028FC0698012806D1BB
:102330000698002803D001200007BD49486007B077
:1023400000BD10B5002218210A201FF038F9B74946
:10235000086001201FF0A8FAB64908607821B64845
:1023600023F04CFE15F0FDF9B44815F0F7F910BD57
:1023700086B000BF0024002500235A1E6946AB48E2
:1023800000681FF0FAFA00BF00235A1E1946A94838
:1023900000681FF0F2FA012867D100BF5BE0182047
:1023A0006043A54940180079012809D118206043ED
:1023B00040188068401E182161439F4A8918886030
:1023C000182060439C4940188068002841D118209B
:1023D00060434018007901283BD1182060430E5813
:1023E00001251820604340184069002806D01820B5
:1023F00060430A4680184169304688471820604388
:102400008D494018007C012809D1182060434018EC
:10241000C16818206043884A8018816018E0002154
:1024200018206043844A801881601820604311504E
:10243000182060438018C160182060438018017420
:102440001820604380180171182060438018416192
:1024500000BF601CC4B2052CA1DB00231A4619463C
:10246000744800681FF079F901E000BFFEE7012D14
:1024700015D1002410E0182060436F4940180079FE
:10248000012800D10AE0042C04D115F0AAF900209B
:102490006B490870601CC4B2052CECDB00BF69E717
:1024A000FFB587B006460D461746002403950495F0
:1024B000684607750196012101720A98069000236B
:1024C0008A1E19465B4800681FF057FA01282BD175
:1024D00000BF1EE0182060435749401800790028CB
:1024E00011D118216143544A8818182201A9FDF717
:1024F0008BFE53480078002804D115F06DF90120B7
:102500004F49087007E0042C01D100BFFEE7601CB2
:10251000C4B2052CDEDB00BF00231A46194645482D
:1025200000681FF01AF901E000BFFEE718206043C1
:10253000414940180BB0F0BD70B50446002C00D1E5
:1025400070BD00235A1E19463A4800681FF015FA5C
:10255000012826D125460020A860E860287428605C
:1025600028716861002600BF10E0182070433249CE
:1025700040180079012800D10AE0042E04D115F09A
:1025800030F900202E490870701CC6B2052EECDB15
:1025900000BF00231A461946264800681FF0DDF8E0
:1025A00001E000BFFEE70020CAE770B50446002C3A
:1025B00000D170BD00235A1E19461E4800681FF046
:1025C000DCF9012809D12646B56800231A461946C8
:1025D000184800681FF0C1F801E000BFFEE7284678
:1025E000E7E770B50446002C00D170BD00235A1EE9
:1025F0001946104800681FF0C0F901280AD1254685
:10260000E868A86000231A4619460A4800681FF0C7
:10261000A4F801E000BFFEE70020E6E710B515F0E2
:10262000DBF810BD10B515F0DCF810BD600000201F
:1026300000ED00E0640000200C05002015230008D8
:102640006800002070B586B005460E461446684600
:10265000858186738089030026F07FFA05210407AF
:102660000506240000BF00BF1DE0616820680291DC
:1026700001906A46117A03A80172117A481C20F071
:1026800081FE04906A46127A511C049823F0B4FC2F
:102690006B461A7A0199049823F048FC03E02068FD
:1026A000049000E000BF00BF00231A4603A9F848C9
:1026B00000681FF052F8012802D1002006B070BD5A
:1026C0000120FBE770B50546F248407801280DD19E
:1026D000284623F0ADFBC6B2002404E0295DED4896
:1026E00014F0CAFE641CB442F8DB00BF70BD10B524
:1026F0000446E9A0FFF7E6FF01201FF080FE00225C
:1027000011460120FFF79EFF10BDFEB504460D46A1
:10271000164668460480857000270088FF38023816
:10272000002803D130786946087100E000BF00BF7F
:1027300000231A466946D64800681FF01EFA012891
:1027400008D1012F04D1002F02D00007DA494860D8
:102750000020FEBD0120FCE710B5D8480068002825
:102760000CD1D7480068002808D10120D44908605E
:1027700000221146FF200330FFF7C7FF10BD10B540
:10278000D0480078002811D1CE4806F078FACD481C
:1027900000787D22D20050430146CB4B0022C7482F
:1027A0000068FFF77DFEC549086003E0C348006884
:1027B000FFF717FF10BD37B505460C46002C06D1B4
:1027C00002AA2946FF200130FFF79FFF07E0012CF6
:1027D00005D102AA2946FF200230FFF796FF3EBD31
:1027E0001CB504460094204623F022FB694608717C
:1027F0006A4600210220FFF725FF1CBD86B0542247
:10280000B249A448FDF700FD5422B149A148543013
:10281000FDF7FAFC00209F49487000219D48543084
:102820004170AC4814F009FE00220C210F201EF06C
:10283000C6FE9749086008460068002802D172B6B3
:1028400000BFFEE700BF00235A1E03A9904800689E
:102850001FF093F86846808904287AD008DC0028A5
:102860000FD0012876D0022875D0032874D176E2E3
:10287000FF380138002870D001286FD00228F5D128
:1028800087E290480078002805D0934813F08FFE27
:102890000020914948809149049808606846807BEF
:1028A000542148437B494018806B002811D1C42033
:1028B00020F068FD8A4908606946897B54225143AB
:1028C000744A891808463430C4228549096815F0CD
:1028D0006EFA6846807B542148436E494018406C2C
:1028E000002813D1FF20F53020F04CFD7D49086011
:1028F0006946897B54225143664A8918084640300C
:10290000FF22F5327749096815F051FA6846807B55
:10291000012824D1801E00906A460190917B0A46CE
:1029200054235A435B4BD0180323022214F047FC74
:102930000020009001906A460290917B54225143FE
:10294000544A881800234B22D201022114F07EFC45
:1029500027E011E23EE0C0E13EE298E1D4E06846C3
:10296000807B00281DD1401E00906A460190917B1B
:102970000A4654235A43474BD0180A23092214F01D
:102980001EFC0020009001906A460290917B542228
:102990005143404A8818002350490A68022114F024
:1029A00055FC01216846807B54225043394A8018E7
:1029B000417000216846807B54225043354A80187C
:1029C000403001743E480068012802D146A0FFF75C
:1029D00007FF02E26946897B542251432D4A881839
:1029E00014F0E4FC6946887B542148432949401887
:1029F000806B002810D06946897B54225143254AB8
:102A00008918886B20F047FD00226946887B542195
:102A100048432049401882636846807B54214843DC
:102A20001C494018406C002810D06946897B54220C
:102A30005143184A8918486C20F02DFD0022694640
:102A4000887B54214843134940184264002168465A
:102A5000807B542250430F4A8018417019480078F7
:102A600000280FD000200221034602460091019069
:102A70000A21194813F056FC224B02220121164864
:102A800013F0FAFC00200D4908600D490860A4E12C
:102A9000A0000020C00600200D0A456E746572205B
:102AA000506F77657220536176696E67204D6F6451
:102AB00065210D0A0D0A000000ED00E0A4000020D1
:102AC000A8000020B4000020EF260008180600200F
:102AD0006C060020B727000868070020B00000201F
:102AE000980000209C0000200D0A45786974205051
:102AF0006F77657220536176696E67204D6F6465EC
:102B0000210D0A005927000869460C7CB34800686B
:102B1000FFF767FD6946897B54225143B04A891803
:102B20000846403015F082F900280AD16946897BB1
:102B300054225143AA4A891808464030214615F0CC
:102B40003CF96846807B54214843A54940184030F1
:102B5000007C01285FD1082C01D07F2C3BD1694635
:102B6000897B542251439E4A89180846403015F00B
:102B700043F96946897B54225143994A891808468A
:102B8000403015F04AF9002845D16946897B542226
:102B90005143934A89180846403015F02DF969468B
:102BA000897B542251438E4A8818082114F064FC12
:102BB0006946897B54225143894A8818202114F0A0
:102BC0005BFC6946897B54225143854A8818082159
:102BD00014F052FC1FE00A2C01D00D2C12D16946D2
:102BE000897B542251437E4A88180A2114F044FC00
:102BF0006946897B54225143794A88180D2114F083
:102C00003BFC08E06946897B54225143744A88188A
:102C1000214614F031FC0A2C01D00D2C36D10025B0
:102C2000FF20F63020F0AEFB0090FF21F631009837
:102C300023F0E2F90DE06946897B54225143684A4A
:102C400089180846403015F0C4F800994855681CAA
:102C500085B26946897B54225143614A89180846E6
:102C6000403015F0DAF80028E5D0002D0ADD681EA6
:102C700080B2054601906846817B01726946012059
:102C8000FDF74AFC009820F006FC00BFA5E069466D
:102C9000897B54225143524A89180846343015F032
:102CA000BCF8002814D16946897B542251434C4A10
:102CB00089180846343015F08CF804466946897B3B
:102CC00054225143464A8818214614F0B9FB03E0C8
:102CD00000210220FDF720FC7FE06846807B542124
:102CE00048433F4940184078012834D100240DE082
:102CF000049A115D6A46927B54235A43384BD2188A
:102D00001046343015F059F8601CC4B203A8007A9C
:102D1000A042EDDC6946897B54225143304A891830
:102D20000846343015F079F8002814D16946897BBB
:102D3000542251432A4A89180846343015F049F87C
:102D400005466946897B54225143254A88182946FD
:102D500014F076FB00BF049820F09DFB3DE00120BD
:102D60002049087001216846807B542250431C4A48
:102D700080184030017430E000201A4908700021AA
:102D80006846807B54225043154A801840300174B5
:102D900023E0154A00210846FFF754FC114800784B
:102DA000002805D0002211460320FFF74BFC04E069
:102DB000002211460420FFF745FC0C4800787D22D4
:102DC000D200504301460A4B002204480068FFF736
:102DD00067FB0249086000E000BF34E5A400002062
:102DE000C0060020AC000020B0000020B40000208D
:102DF000EF26000807B56846C088F949C88000205A
:102E000048816846008908810521F548401C23F067
:102E1000F3F8042200A90131F148401C23F086F8A0
:102E20000EBD10B5EF48806A002805D0ED49886ACC
:102E3000FFF782FBEB49886210BD0EB5EA48407A85
:102E4000002803D1E94814F0A9FD02E0E84814F095
:102E5000A5FDE548807A012805D1E348407A00289D
:102E600001D1FFF78CFC0121E2A003F017FE002046
:102E700069460870DC48C07D042807D0DA48C07D68
:102E8000082803D0D848C07D092804D1DA48407802
:102E90006946087103E0D948407869460871684678
:102EA0001CF075FB0EBD7047F0B5A7B00646344662
:102EB0002088002804D0012844D003287BD163E077
:102EC0006068072802D00A2839D12CE00020C549C3
:102ED000C861012020A9087424A81CF0D3FA054673
:102EE000002D17D120A8007D012810D1FFF73FF950
:102EF000C3A0FFF775FCBC48407A002803D1BB484B
:102F000014F04CFD0EE0BA4814F048FD0AE005F05C
:102F1000D3FE07E0C14B0022C1490720FFF7C0FAEA
:102F2000B049C8610CE0FF20073020A9888000204C
:102F3000AC49886221A90320FDF7EEFA00E000BF4A
:102F400000BF00E2A568002025902690681C20F0B4
:102F500019FA0746691C384623F04EF82A463846C7
:102F6000616822F0E3FF606820F095FA269720A8B8
:102F7000C58200218182002D02D025A814F068FDB1
:102F8000384620F088FADEE11822211D21A8FDF73D
:102F90003BF920A88188FF220332881A91425BD036
:102FA0000FDC092942D007DC002911D001292ED0DD
:102FB000022911D11FE0C5E10F293BD01129F8D119
:102FC00043E0030025F0C9FD06087D498ED7D608E9
:102FD00094480078002800D100E105F011FD92A08E
:102FE000FFF7FEFB002194A003F058FD012181A012
:102FF00003F054FDF2E091A0FFF7F2FB00218EA058
:1030000003F04CFD01217BA003F048FDE6E022A87F
:1030100005F020FD21A8C068002806D021A9C868B5
:1030200020F039FA002121A8C160D7E088A0FFF77D
:10303000D7FBD3E0FFF79BF871A0FFF7D1FB01208E
:1030400078490870072027B0F0BD87A0FFF7C8FBBC
:10305000002074490870C1E000BF6148C0880028A2
:1030600006D18FA0FFF7BCFB002005F005FEB5E000
:103070005B48C088401E5A49C88000201E901F909F
:1030800020900846C088002808D193A000681E90B0
:103090000422491C1FA822F049FF08E090A0006804
:1030A0001E9004224E49491C1FA822F03FFF2020F9
:1030B00018A908751EA81C901CA98B4815F0AAFF1A
:1030C0008CE0002046494881084600897D22D200D4
:1030D00050430146514B00220A20FFF7E1F94149D4
:1030E00088627BE021A8C56804223D49491C281D4F
:1030F00022F0C0FE002803D0284620F0CCF96DE075
:10310000042277A1284622F0B5FE002805D13448D4
:103110004089401C3249488114E004226EA12846AF
:1031200022F0A8FE00280DD12D484089401C2C49D2
:103130004881FF20083010A9888113A90320FDF7DA
:10314000EBF900BF284620F0A6F920A90823CB56AA
:1031500021A80622825E65A119A822F03DFC204923
:1031600048890A2122F0D0FF002902D119A8FFF7CF
:1031700037FB33E000BF20A88088FF210731884259
:1031800007D11748038942895EA101A822F024FCD7
:1031900018E01449886AFFF708FA07467D21C9003C
:1031A00022F0A8FF0E4909890D1A0D4842892B46C5
:1031B000634901A822F010FC0A49886AFFF7BCF9AC
:1031C0000849886201A8FFF70BFB00216120C000BD
:1031D00015F020FF002005F04FFD00BF00BFB2E05A
:1031E0000808002080040020D00A00208C9D0208DE
:1031F000549F020850413300400F0020B80C0020BB
:103200004F7665722D7468652D4169722041637433
:1032100069766174696F6E0D0A0000007F06000810
:1032200010270000E2000020526164696F2054788A
:1032300020446F6E650D0A0050413200526164698E
:103240006F2054782054696D656F75740D0A000005
:10325000526164696F2054782052656365697665B0
:10326000642041636B0D0A005374617274204A6FCD
:10327000696E206E6574776F726B3A204F544141CE
:103280002C20506C65617365207761697420666FCE
:10329000722061637469766174696E670D0A00005B
:1032A0005061636B65747320616C72656164792031
:1032B0007472616E736D69747465642C206E6F77BF
:1032C000206C656176696E672054585050206D6F90
:1032D00064652E0A0D000000444F4E4500000000BA
:1032E00050494E4700000000060300005253534966
:1032F000203D202534642C20534E52203D2025347F
:10330000640A0D002564207061636B65747320721C
:103310006563656976656420696E20256420736540
:10332000636F6E64732C206E6F77206C65617669B5
:103330006E672054585050206D6F64652E0A0D0042
:103340008CBC020800BF00BF0B207CE600BF00BFA2
:1033500000BFBFF34F8F00BF00BF00BFF948FA495D
:10336000C86000BF00BF00BFBFF34F8F00BF00BFEA
:1033700000BF00BF00BFFDE7F0B595B005460026D1
:10338000284614F0D8FB0746022F04D0032F10D094
:10339000042F6DD109E0ED48427AEDA1684622F094
:1033A0001BFB6846FFF71CFA64E0ECA0FFF718FA75
:1033B00060E00A2214A9284614F054FC0446012CAB
:1033C00001D0012656E010A8007C002830D1DF484B
:1033D000407A01282CD10020DC4948720846807DC3
:1033E000002807D1E1480068002803D1E04814F024
:1033F000D5FA3CE0D548807D012815D1D3485B3013
:1034000022F016FD00280BD0D048643022F010FDC9
:10341000002805D0CD48853022F00AFD002803D1D0
:10342000D34814F0BBFA22E0D24814F0B7FA1EE0F9
:1034300010A8007C012818D1102210A9284614F0E9
:1034400063FC0446012C06D1102210A9CA4822F0C0
:1034500011FD002801D001260CE010A8007CBB491A
:103460004872C64814F09AFA01E0012602E001E031
:10347000012600BF00BF304615B0F0BDF0B595B0D5
:1034800004460025204614F056FB0646022E04D0C2
:10349000032E0FD0042E2BD108E0B74AB8A101A803
:1034A00022F09AFA01A8FFF79BF923E0B8A0FFF7F2
:1034B00097F91FE0102211A9204614F000FC0746DE
:1034C000012F09D111A822F0B3FC102804D811A8AB
:1034D00022F0AEFC082801D201250BE01021A648FD
:1034E00022F08AFD102211A9A34822F01FFD01E05D
:1034F000012500BF00BF284615B0F0BDF0B595B05E
:1035000005460026284614F016FB0746022F04D075
:10351000032F10D0042F35D109E08C48027AACA1DA
:1035200001A822F059FA01A8FFF75AF92CE0ABA044
:10353000FFF756F928E06888092803D001263046AD
:1035400015B0F0BD0A2214A9284614F08BFB0446DE
:10355000012C15D11498022812D27C4914980872B3
:103560000846007A002805D1002211460420FFF702
:1035700069F806E0002211460320FFF763F800E037
:10358000012601E0012600BF00BF3046D8E7F0B5B4
:1035900095B005460026284614F0CDFA0746022FBE
:1035A00004D0032F10D0042F30D109E08F48C27906
:1035B0008FA101A822F010FA01A8FFF711F927E066
:1035C0008EA0FFF70DF923E06888092803D00126B3
:1035D000304615B0F0BD0A2214A9284614F042FB6B
:1035E0000446012C10D1149802280DD27F4914985A
:1035F000C8710846C079002802D112F044FD04E0E9
:10360000012012F040FD00E0012601E0012600BF8C
:1036100000BF3046DDE700B501460B0025F09DFAFE
:10362000061404070A0D10134B20C00100BD4B20E7
:103630000002FBE74B204002F8E7E1200002F5E73B
:10364000E1204002F2E700BF4B20C001EEE7F0B5F9
:1036500095B00546002014900026284614F06BFA19
:103660000746022F04D0032F10D0042F3CD109E0CD
:103670003648C27965A1684622F0AEF96846FFF780
:10368000AFF833E064A0FFF7ABF82FE00A2214A9EB
:10369000284614F0E7FA0446012C02D114980528B4
:1036A00001D9012622E029491498C871C879FFF789
:1036B000B2FF1390002211460120FEF7C3FF13AAA8
:1036C00000210846FEF7BEFF2048007A002805D1F9
:1036D000002211460420FEF7B5FF04E00022114647
:1036E0000320FEF7AFFF01E0012600BF00BF304618
:1036F00015B0F0BD70B596B004460025204614F014
:103700001AFA0646022E13D0042E1AD10F48407A18
:10371000002801D10125BBE043A048A34AA24DA146
:10372000009002A822F058F902A8FFF759F8AFE07C
:10373000514A52A102A822F04FF902A8FFF750F80F
:10374000A6E0A3E00400FA0500ED00E0D00A0020A6
:103750002B4741444D3A25640D0A00002B47414454
:103760004D3D3C302D313E0D0A000000200100206F
:1037700090A2020848A40208BE0A002010A602086F
:103780002B474350573A222573220D0A00000000B0
:103790002B474350573D2250617373776F726420FB
:1037A0006C656E677468206D757374206265206D3A
:1037B0006F7265207468616E203720616E64206CC2
:1037C000657373207468616E203136220D0A000023
:1037D0002B4543484F3A25640D0A00002B454348CA
:1037E0004F3D3C302D313E0D0A000000780B00208B
:1037F0002B435041453A25640D0A00002B435041AC
:10380000453D3C302D313E0D0A0000002B4942520F
:103810003A25640D0A0000002B4942523D3C302DF0
:10382000353E0D0A000000004F6E204C4F575F5090
:103830004F5745525F4D4F444500000031303A33F9
:10384000343A3537000000004175672032392032A4
:10385000303138002B52656C6561736520446174AA
:10386000653A2025732C2054696D653A2025730D27
:103870000A25730D0A0000007CA102082B53474D56
:10388000523A222573220D0A00000000012500BFD4
:1038900000BF284616B070BD70B594B00446002530
:1038A000204614F048F90646022E08D1F74AF8A13E
:1038B000684622F091F86846FEF792FF01E0012584
:1038C00000BF00BF284614B070BD70B594B0044668
:1038D0000025204614F02FF90646022E08D1F04AA2
:1038E000F0A1684622F078F86846FEF779FF01E01B
:1038F000012500BF00BF284614B070BD70B594B05C
:1039000004460025204614F016F90646022E08D17A
:10391000E84AE9A1684622F05FF86846FEF760FFD2
:1039200001E0012500BF00BF284614B070BD70B58E
:1039300094B004460025204614F0FDF80646022EF9
:1039400002D0042E10D10BE0D04B603B1A4610324F
:10395000DDA1684622F040F86846FEF741FF05E029
:10396000DEA0FEF73DFF01E0012500BF00BF2846B5
:1039700014B070BDF0B595B005460026284614F089
:10398000DAF80746022F04D0032F11D0042F41D1BB
:103990000AE0DD48438A828ADCA101A822F01CF8F3
:1039A00001A8FEF71DFF37E0DCA0FEF719FF33E0AA
:1039B0000A2213A9284614F055F90446012C05D112
:1039C00010A880892D214901884201DD012623E0CC
:1039D0000A2214A9284614F045F90446012C12D1F4
:1039E00010A8008AFF216E31884201DD012613E014
:1039F00010A88089002806D110A8008AC2494882F0
:103A00000020888208E00020BF49488210A88089F1
:103A1000888201E0012600BF00BF304615B0F0BD2E
:103A2000F0B595B004460025204614F084F806460B
:103A3000022E04D0032E10D0042E21D109E0B2486A
:103A4000827BC4A101A821F0C7FF01A8FEF7C8FE30
:103A500018E0C3A0FEF7C4FE14E00A2214A9204611
:103A600014F000F90746012F03D110A8007C0128AB
:103A700001DD012506E010A8007CA349887301E060
:103A8000012500BF00BF284615B0F0BDF1B588B0D4
:103A9000002006900590049011F00EFF089811F098
:103AA00029FF0590B24811F025FF0490049823F0F7
:103AB00062F801910090059823F05DF80446AD4A44
:103AC000AD4B23F09DF80646019B009A22F0ACFD19
:103AD0000391029022F0BEFB0690A849069825F0BB
:103AE0006DFB044623F0DAF9C0B209B0F0BD70B541
:103AF00086B0054600240AE006216143A04A8818E2
:103B0000294622F0B3FA002800D102E0641C0F2CF1
:103B1000F2D300BF0F2C06D006206043984940180E
:103B20004079002802D1022006B070BD0020022199
:103B30000091019006206043914A8018052141566A
:103B400000231A4603A812F0EDFB03A812F042FD71
:103B5000C6B200200090019006206043884A801879
:103B6000052141560023032203A812F0DBFB304657
:103B7000DAE7F1B59EB000201D901E9813F0DBFF30
:103B80001C901C98022802D0042842D13DE07D48B8
:103B9000FFF77CFF04467C48FFF778FF05467BA0D3
:103BA000FFF7A5FF06467BA0FFF7A1FF07467BA016
:103BB000FFF79DFF07907AA0FFF799FF069079A085
:103BC000FFF795FF019702960395049405900798D7
:103BD000009075A108A8069B059A21F0FDFE08A893
:103BE000FEF7FEFD4848807A01280DD14648407A0C
:103BF000002809D1022103460246009101901721B5
:103C000005A812F08FFB00BF06E06F48FEF7E8FD45
:103C100002E001201D9000BF00BF1D981FB0F0BD45
:103C2000F0B595B004460025204613F084FF064603
:103C3000022E04D0032E10D0042E25D109E06348B3
:103C4000027A63A101A821F0C7FE01A8FEF7C8FD12
:103C5000DAE063A0FEF7C4FDD6E00A2214A92046EC
:103C600014F000F80746012F03D110A8007CFF28AC
:103C700001DD0125C8E010A8007C002805D12249FB
:103C8000887252490872BCE0BCE0B3E0A70A002089
:103C90002B534C4D523A222573220D0A000000008E
:103CA00094A102082B53474D493A222573220D0A4D
:103CB000000000008FA102082B53474D4D3A2225EA
:103CC00073220D0A000000002B53474D443A222571
:103CD00073222C222573220D0A0000002B53474D1E
:103CE000443D224D41433A6C656E677468206973A8
:103CF0002038222C22534E3A6C656E677468206916
:103D000073203133220D0A00D00A00202B5354496E
:103D10004D45523A25642C25640D0A002B53544915
:103D20004D45523D3C76616C206F66206D696E7525
:103D30007465733A20312D313434303E2C3C766139
:103D40006C206F6620646179733A312D3336353ECD
:103D50000D0A00002B534952513A25640D0A000008
:103D60002B534952513D3C302D313E0D0A0000008D
:103D70000000024451DA1B7C6132F33F0000204115
:103D800033A2020800020024000100205041313219
:103D90000000000050413131000000005042380066
:103DA00050423700504236002B534750494F3A2576
:103DB000642C25642C25642C25642C25642C256416
:103DC0002C25640D0A00000040BD0208780B00207D
:103DD0002B5350574D4F443A25640D0A0000000004
:103DE0002B5350574D4F443D3C302D3235353E0D11
:103DF0000A0000000120FD49887210A8007CFC49DF
:103E0000087201E0012500BF00BF284615B0F0BDD3
:103E100070B596B004460025204613F08CFE064689
:103E2000022E2DD100200190F048807D002807D17E
:103E3000F0480068020EF0A102A821F0CDFD1BE0C1
:103E4000EA48807D01280CD1E8484330027E69466B
:103E50000A71407E487101AAEBA102A821F0BCFDC5
:103E60000AE0ED48C27D69460A71007E487101AAE8
:103E7000E5A102A821F0B0FD02A8FEF7B1FC01E027
:103E8000012500BF00BF284616B070BD70B594B0C4
:103E900004460025204613F04EFE0646022E09D1A8
:103EA000DD4A6232DDA1684621F096FD6846FEF7E4
:103EB00097FC01E0012500BF00BF284614B070BD8B
:103EC000F1B586B000200590069813F034FE0490FA
:103ED0000498022870D1D44B1A681B1D0BCB01AC7F
:103EE0000BC4009200266846FEF7ECFBCF481DF09D
:103EF00003F8BE48C07D042807D0BC48C07D082810
:103F000003D0BA48C07D092854D1B848C07D0428E0
:103F100003D0B648C07D082801D1482500E06025BF
:103F2000002444E0E217120F121912115300C04A84
:103F3000D25A2046E3171B0F1B181B111B01E71A4F
:103F40000123BB401A40002A00D12FE0002020F0BE
:103F500098F9E200B5490C31885820F0FDF912219A
:103F60000E2020F0E9F80221122020F0E5F80221CD
:103F7000132020F0E1F8052020F063F902201EF064
:103F80003EFA002020F09EFA064620F092FA002029
:103F9000009001900290039033462246A5A1684606
:103FA00021F01AFD6846FEF78DFB00BF641CAC4291
:103FB000B8DB45E0002441E043E02046E117090F6B
:103FC000091809110901621A01219140974A8832A2
:103FD00092881140002900D12FE0002020F051F9F3
:103FE000E20092490C31885820F0B6F912210E20D7
:103FF00020F0A2F80221122020F09EF802211320C6
:1040000020F09AF8052020F01CF902201EF0F7F9A4
:10401000002020F057FA064620F04BFA00200090CE
:104020000190029003903346224682A1684621F017
:10403000D3FC6846FEF746FB00BF641C102CBCDBBB
:1040400002E00120059000BF00BF059807B0F0BD59
:10405000F8B506460C46154600200090002C0AD004
:1040600022466946304621F019FE00980078002863
:1040700001D00020F8BD002D06D0304621F0D8FE3A
:10408000A84201D00020F5E70120F3E7F0B595B094
:1040900004460025204613F04EFD0646022E04D0AD
:1040A000032E10D0042E26D109E0504A4A3263A1D3
:1040B00001A821F091FC01A8FEF792FB1DE063A08E
:1040C000FEF78EFB19E0112210A9204613F01CFE0A
:1040D0000746012F06D11022114610A8FFF7B8FF9E
:1040E000002801D1012508E0112210A93F484A30DB
:1040F00021F01CFF01E0012500BF00BF284615B0DC
:10410000F0BDF0B595B004460025204613F013FD30
:104110000646022E04D0032E10D0042E26D109E02C
:10412000324A183252A101A821F056FC01A8FEF72C
:1041300057FB1DE052A0FEF753FB19E0112210A916
:10414000204613F0E1FD0746012F06D1102211464B
:1041500010A8FFF77DFF002801D1012508E01122FA
:1041600010A92248183021F0E1FE01E0012500BF2E
:1041700000BF284615B0F0BDF0B595B00446002547
:10418000204613F0D8FC0646022E04D0032E1AD087
:10419000042E29D113E010221449293101A813F06B
:1041A000BEFE102101A814F0CEFB07463A463DA101
:1041B00005A821F011FC05A8FEF712FB94E03DA034
:1041C000FEF70EFB90E021220CA9204613F09CFD87
:1041D0000746012F06D1202210210CA8FFF738FF37
:1041E000002879D101257FE07CE075E0D00A00202D
:1041F000780B0020200100202B435349443A22250C
:10420000303258220D0A00002B435349443A2225EC
:1042100073220D0A00000000400A00202B43504981
:104220004E3A25730D0A000038A80208B00B002092
:10423000BC0E002025643A25640D0A002B43415032
:10424000504555493A25730D0A0000002B43415053
:10425000504555493D3C4170704555493A6C656E35
:104260006774682069732031363E0D0A0000000033
:104270002B434445564555493A25730D0A00000025
:104280002B434445564555493D3C44657645554983
:104290003A6C656E6774682069732031363E0D0A8A
:1042A000000000002B434150504B45593A25303215
:1042B000580D0A002B434150504B45593D3C41702D
:1042C000704B65793A6C656E67746820697320334A
:1042D000323E0D0A0000000021220CA9FB4821F00B
:1042E00025FE01E0012500BF00BF284615B0F0BD46
:1042F000F0B595B005460026284613F01CFC07468D
:10430000022F04D0032F17D0042F4ED140E0EF48E6
:104310002938807D022805D1ED4AEEA101A821F0BF
:104320005BFB05E0E94A3232F6A101A821F054FB1B
:1043300001A8FEF755FA3AE0E4482938807D0228C2
:1043400001D1012633E0092212A9284613F0DCFC32
:104350000446012C06D10822102112A8FFF778FE8E
:10436000002801D1012622E0092212A9D7483230C3
:1043700021F0DCFD2121D5485C3021F03DFE2121DA
:10438000D2483B3021F038FEE948FEF729FA0EE02A
:10439000CE482938807D022803D1E6A0FEF720FA16
:1043A00002E0EFA0FEF71CFA01E0012600BF00BF0B
:1043B000304615B0F0BD70B594B0044600252046D7
:1043C00013F0B9FB0646022E02D0042E0ED109E0EE
:1043D000EE48EFA10268684621F0FEFA6846FEF753
:1043E000FFF905E0EEA0FEF7FBF901E0012500BFB3
:1043F00000BF284614B070BD10B50124B348293859
:10440000C07D042836D0B1482938C07D062831D077
:10441000AE482938C07D03282CD0AC482938C07D4F
:10442000022827D0A9482938C07D012822D0A748D2
:104430002938C07D07281DD0A4482938C07D082808
:1044400018D0A2482938C07D092813D09F482938A0
:10445000C07D0B280ED09D482938C07D0A2809D080
:104460009A482938C07D0C2804D098482938C07D46
:104470000D2807D13B221201D349D44811F0B7FED1
:10448000044600E00024002C01D1002010BD0120D2
:10449000FCE7F0B585B00446032C77D1CA49087013
:1044A0000021CB4841700320C7490872002723E050
:1044B000384622F060FB05460022C64B22F0A0FBE6
:1044C0000D221207C44B0191009022F07DF8039158
:1044D000029022F003FB0246F900BB480C30425028
:1044E0005022F900081802710122F900B6480C3078
:1044F00008184271781CC7B2032FD9DB03200EE0E5
:104500000022C300B0490C31CA50C30059180A71C7
:10451000C300AD490C3159184A71411CC8B210286A
:10452000EEDB0721AA488038818068482938817DE0
:10453000A748017000214170012181704021C170A4
:10454000202101710121417100218171C17101722C
:1045500001214172052181720121C1720021017383
:104560009E490161002101750521817600210176B6
:104570004176002006E00022830095491C31CA5094
:10458000411CC8B21028F6DBF1E2FFE7042C7DD114
:1045900004208D49087000219148417004208A4907
:1045A0000872002723E0384622F0E5FA054600228B
:1045B000884B22F025FB0B2212078A4B01910090B9
:1045C00022F002F80391029022F088FA0246F900E4
:1045D0007D480C3042503022F90008180271002248
:1045E000F90079480C3008184271781CC7B2402F86
:1045F000D9DB402724E03846403822F0B4FA0022C4
:10460000794B0191009022F0FBFA054607225207F0
:10461000764B21F0D9FF0391029022F05FFA024617
:10462000F90069480C3042504422F9000818027120
:104630000022F90064480C3008184271781CC7B297
:10464000482FD8DB0021C943654888388180002184
:10465000001D41808180C180018141811B48293832
:10466000817D5F48083801720021083041700121C6
:1046700081704021C170202101710021417181713F
:10468000C171052101720121417200E00FE0052195
:1046900081720121C1720021017355490161082114
:1046A00001750D2181760021017641766CE7062C9B
:1046B0000AD106204449087000214548417006206F
:1046C000414908720027B6E0FAE00000F90A00202C
:1046D000570A00202B43444556414444523A25731F
:1046E000202844657669636520616464726573732C
:1046F000206F662047494F54206D6F6465290D0A6D
:10470000000000002B43444556414444523A25736F
:1047100020284465766963652061646472657373FB
:10472000206F6620414250206D6F6465290D0A009C
:10473000E0BC02082B43444556414444523D3C44AE
:1047400065766963652061646472657373206F6662
:104750002047494F54206D6F64653E0D0A000000EC
:104760002B43444556414444523D3C44657669637D
:10477000652061646472657373206F6620414250E6
:10478000206D6F64653E0D0A0000000020010020CE
:104790002B434445564D493A253038580D0A000000
:1047A0002B434445564D493D3C446576696365203D
:1047B00061646472657373206F66204F54414120B9
:1047C0006D6F64653E0D0A00B00B00200002080802
:1047D000B80C0020006A084113DFC94108E6D33352
:1047E000400F002000E4CA41006A384157E9CA413D
:1047F000A0700837384622F0BEF905460022F74B74
:1048000022F0FEF90022F64B0191009021F0DCFE2F
:104810000391029022F062F90246F900F1484250F9
:104820005022F900081802710022F900ED4808181A
:104830004271781CC7B2022FDCDB02200CE00022A0
:10484000C300E849CA50C30059180A71C300E549BA
:1048500059184A71411CC8B21028F0DB0321E14805
:104860007C308180E048817DDE48FC300170002191
:104870004170012181704021C1702021017100210E
:1048800041718171C17101720121417205218172F1
:104890000121C17200210173D44901610221017516
:1048A00005218176002101764176002005E0002275
:1048B0008300CF49CA50411CC8B21028F7DB42E33D
:1048C000072C64D10720C7490C3908700021C8485B
:1048D0001C3841700720C3490C390872002721E0B9
:1048E000384622F048F905460022BC4B22F088F9F0
:1048F00003225207BF4B0191009021F065FE039106
:10490000029022F0EBF80246F900B64842505022DD
:10491000F900081802710022F900B2480818427123
:10492000781CC7B2102FDBDB0021C943AD487C30B7
:104930008180AD48817DAE481C38017000214170F6
:10494000012181704021C17020210171002141713C
:104950008171C171017201214172052181720121B0
:10496000C17200210173A449016100210175072171
:104970008176002101764176002005E00022830047
:104980009B49CA50411CC8B21028F7DBDBE2082C57
:104990007ED1082093490C39087000219748417056
:1049A000082090490C390872002720E0384622F090
:1049B000E2F805460022894B22F022F90022904BB2
:1049C0000191009021F000FE0391029022F086F800
:1049D0000246F900834842505022F900081802713B
:1049E0000022F9007F4808184271781CC7B2402F96
:1049F000DCDB402722E03846403822F0B4F8054698
:104A00000022804B22F0FCF8032212077E4B01911A
:104A1000009021F0D9FD0391029022F05FF8024648
:104A2000F900704842506622F9000818027100220D
:104A3000F9006C4808184271781CC7B2482FDADBBD
:104A40000021C9436D48883881800021001D4180C4
:104A50008180C180018141816348817D6748083838
:104A60000172002108304170012181704021C17024
:104A700020210171002141718171C17105210172F3
:104A800001214172052181720121C172002100E0E2
:104A90000AE001735D490161082101750D218176EC
:104AA0000021017641764EE2092C61D109204D4961
:104AB0000C390870002151484170092049490C39CE
:104AC0000872002721E0384622F055F805460022FA
:104AD000424B22F095F803225207464B0191009079
:104AE00021F072FD0391029021F0F8FF0246F900D7
:104AF0003C4842505022F900081802710022F90087
:104B0000384808184271781CC7B2602FDBDB0021DF
:104B1000C9433A48883881800021001D4180818046
:104B2000C180018141813048817D3448083801725B
:104B3000002108304170012181704021C170202185
:104B40000171002141718171C171017201214172B4
:104B5000052181720121C172002101732649016181
:104B60000021017506218176002101764176EAE176
:104B70000A2C7DD10A201B490C39087000211C48E1
:104B80001C3841700A2017490C390872002721E0AF
:104B9000384621F0F0FF05460022104B22F030F895
:104BA000092212071A4B0191009021F00DFD03918B
:104BB000029021F093FF0246F9000A484250502229
:104BC000F900081802710022F9000648081842711D
:104BD000781CC7B2032FDBDB032028E0006A084102
:104BE0007583CB41BC0B0020D00A002000EA0637B9
:104BF000D40C00203508BC4120441E1E400F00206C
:104C00006C46CB41006A3841C34BCB41A07008379A
:104C1000107BCB410022C300FA49CA50C300591887
:104C20000A71C300F74959184A71411CC8B21028CB
:104C3000F0DB0721F3487C308180F348817DF14827
:104C4000FC300170012181704021C170202101716F
:104C50000221417100218171C171017201214172F2
:104C6000052181720121C17200210173E74900E031
:104C700012E0016100210175042181760021017695
:104C80004176002005E000228300E149CA50411C22
:104C9000C8B21028F7DB56E10B2C74D10B20D94990
:104CA0000C3908700021DA481C3841700B20D549B6
:104CB0000C390872002721E0384621F05CFF0546D8
:104CC0000022D44B21F09CFF09221207D24B019104
:104CD000009021F079FC0391029021F0FFFE024642
:104CE000F900C84842505022F90008180271002209
:104CF000F900C44808184271781CC7B2032FDBDBE7
:104D000003200CE00022C300BE49CA50C30059185A
:104D10000A71C300BB4959184A71411CC8B2102816
:104D2000F0DB0721B7487C308180B748817DB848E7
:104D30001C380170012181704021C1702021017156
:104D40000121417100218171C17101720121417202
:104D5000052181720121C17200210173AF490161F6
:104D60000021017505218176002101764176002020
:104D700005E000228300A649CA50411CC8B2102891
:104D8000F7DBE0E0FFE70C2C75D10C209D490C39D6
:104D9000087000219E481C3841700C2099490C393C
:104DA0000872002721E0384621F0E5FE0546002282
:104DB000984B21F025FF05221207994B0191009095
:104DC00021F002FC0391029021F088FE0246F900D6
:104DD0008C4842505022F900081802710022F90054
:104DE000884808184271781CC7B2022FDBDB02200A
:104DF0000CE00022C3008349CA50C30059180A714D
:104E0000C300804959184A71411CC8B21028F0DB10
:104E100003217C487C3081807B48817D7C481C3824
:104E2000017000214170012181704021C170202159
:104E30000171002141718171C171017201214172C1
:104E4000052181720121C17200210173754901613F
:104E5000002101750521817600210176417600202F
:104E600005E0002283006A49CA50411CC8B21028DC
:104E7000F7DB68E0FFE70D2C65D10D2061490C39A7
:104E80000870002162481C3841700D205D490C39C2
:104E9000087265495B480C38C160644941616449E6
:104EA000C16100200BE05022C300564959180A7115
:104EB0000022C300534959184A71411CC8B2032843
:104EC000F1DB03200CE00022C3004E49CA50C300AE
:104ED00059180A71C3004B4959184A71411CC8B28C
:104EE0001028F0DB072147487C3081804648817DCF
:104EF00047481C3801700021417001218170402118
:104F0000C17020210171002141718171C171017253
:104F100001214172052181720121C17200210173B9
:104F200044490161022101750D218176002101763C
:104F30004176002005E0002283003549CA50411C1B
:104F4000C8B21028F7DB012005B0F0BD10B52E481F
:104F5000C07D04282BD02C48C07D062827D02A48A5
:104F6000C07D032823D02848C07D02281FD02648B2
:104F7000C07D01281BD02448C07D072817D02248B7
:104F8000C07D082813D02048C07D09280FD01E48B6
:104F9000C07D0B280BD01C48C07D0A2807D01A48BA
:104FA000C07D0C2803D01848C07D0D2807D13B22B6
:104FB000120114490C39204811F002F901E00020D7
:104FC00010BD1148C07D0F490C390978884208D0BE
:104FD0000D49C87DFFF75DFA002800D1F0E7FFF723
:104FE0000BFA0120ECE770B504460025204612F0CC
:104FF000A2FD0646012E31D0042E45D10FA0FDF7AB
:10500000EFFB43E0BC0B0020D00A0020E013F33696
:10501000D40C0020006A08413C4ACB41E0A09D36F8
:105020002EE5C941E069CD3364CE8F3384FE9433DD
:10503000E8E19D33F080A633000208082B434A4F75
:10504000494E3A20446F206A6F696E20666C6F7714
:1050500020666F72204F5441410D0A00FD48807D4B
:1050600000280CD1FC490860FFF770FFFB4816F0E0
:10507000B8FFFB4812F092FC03F01EFE03E0F9A01B
:10508000FDF7AEFB012501E0012500BF00BF28466A
:1050900070BDF0B595B004460025204612F04BFDDA
:1050A0000646022E04D0032E10D0042E32D109E081
:1050B000E848827DF3A101A820F08EFC01A8FDF74D
:1050C0008FFB29E0F2A0FDF78BFB25E00A2214A953
:1050D000204612F0C7FD0746012F03D110A8007C1F
:1050E000022801DD012517E010A8007C02280CD160
:1050F000EB4820F09DFE002805D0E948213020F043
:1051000097FE002801D1012506E010A8007CD149B6
:10511000887501E0012500BF00BF284615B0F0BD2D
:10512000F0B595B004460025204612F004FD064671
:10513000022E04D0032E1AD0042E30D113E01022F8
:10514000C449853101A812F0EAFE102101A813F02C
:10515000FAFB07463A46D3A105A820F03DFC05A876
:10516000FDF73EFB1DE0D4A0FDF73AFB19E021223C
:105170000CA9204612F0C8FD0746012F06D12022B7
:1051800010210CA8FEF764FF002801D1012508E0DA
:1051900021220CA9AF48853020F0C8FE01E001258E
:1051A00000BF00BF284615B0F0BDF0B595B004466D
:1051B0000025204612F0BFFC0646022E04D0032E26
:1051C0001AD0042E30D113E01022A249643101A874
:1051D00012F0A5FE102101A813F0B5FB07463A46D0
:1051E000C0A105A820F0F8FB05A8FDF7F9FA1DE01D
:1051F000C1A0FDF7F5FA19E021220CA9204612F012
:1052000083FD0746012F06D1202210210CA8FEF7AE
:105210001FFF002801D1012508E021220CA98D489B
:10522000643020F083FE01E0012500BF00BF284666
:1052300015B0F0BDF0B595B005460026284612F031
:105240007AFC0746022F04D0032F10D0042F28D158
:1052500009E08048C27AB4A101A820F0BDFB01A8F2
:10526000FDF7BEFA1FE0B3A0FDF7BAFA1BE06888AD
:105270000A2803D00126304615B0F0BD0A2214A931
:10528000284612F0EFFC0446012C03D110A8007C44
:10529000012801DD012606E010A8007C6D49C872D6
:1052A00001E0012600BF00BF3046E5E7F0B595B04C
:1052B00004460025204612F03EFC0646022E04D08D
:1052C000032E10D0042E22D109E06248027B9DA15A
:1052D00001A820F081FB01A8FDF782FA19E09DA04A
:1052E000FDF77EFA15E00A2214A9204612F0BAFC56
:1052F0000746012F05D11498002802D01498DF2802
:1053000001D9012505E053491498087301E00125EE
:1053100000BF00BF284615B0F0BDF0B595B00446FB
:105320000025204612F007FC0646022E04D0032E6C
:1053300011D0042E2DD10AE046481022825E8AA1A7
:1053400001A820F049FB01A8FDF74AFA23E089A053
:10535000FDF746FA1FE00A2214A9204612F082FC4B
:105360000746012F0DD110A8008A002809D010A9E6
:105370001020085EDF2804DC1020085EB91E884279
:1053800001DA012507E010A91020085E31490882E2
:1053900001E0012500BF00BF284615B0F0BDF0B503
:1053A00097B0054600201690284612F0C4FB06462A
:1053B000022E4DD174A102A820F00EFB02A8FDF729
:1053C00081F9502102A820F019FE24481BF094FD19
:1053D0002048C07D042803D01E48C07D082838D14D
:1053E000002432E0E217120F121912115300724A10
:1053F000D25A2046E3171B0F1B181B111B01E71A7B
:105400000123BB401A40002A00D11DE0E1001348EF
:105410000C3008184179E20010480C3012180420B2
:10542000105601910090E1000C480C304358224680
:1054300062A102A820F0D0FA02A8FDF743F950219A
:1054400002A820F0DBFD00BF641C482CCADB2CE165
:105450002CE1C1E0D00A002020010020B00B002088
:1054600090A20208506C65617365206368616E6785
:1054700065206D6F646520746F204F5441410D0AA3
:10548000000000002B434D4F44453A25640D0A00AF
:105490002B434D4F44453D3C302D323E0D0A00001C
:1054A000600A00202B43415050534B45593A253058
:1054B00032580D0A000000002B43415050534B4519
:1054C000593D3C4170702073657373696F6E206B3A
:1054D00065793A6C656E6774682069732033323E73
:1054E0000D0A00002B434E574B534B45593A25307C
:1054F00032580D0A000000002B434E574B534B45CA
:10550000593D3C4E6574776F726B20736573736998
:105510006F6E206B65793A6C656E6774682069738D
:105520002033323E0D0A00002B4353594E433A2597
:10553000640D0A002B4353594E433D3C302D313E00
:105540000D0A00002B4341504F52543A25640D0A76
:10555000000000002B4341504F52543D3C312D324E
:1055600032333E0D0A0000002B434241503A25647D
:105570000D0A00002B434241503D3C2D312C20317F
:105580002D3232333E0D0A002B435143483A0D0A67
:105590004368616E6E656C5B695D3A204672657149
:1055A00075656E63792C20447252616E67652C209C
:1055B00042616E640D0A0000BC0E00204368616EFB
:1055C0006E656C5B2532645D3A2025642C2025587D
:1055D0002C2025640D0A0000F848C07D092834D12C
:1055E00000242FE0E217120F121912115300F44A8F
:1055F000D25A2046E3171B0F1B181B111B01E71A79
:105600000123BB401A40002A00D11AE0E100ED4816
:1056100008184179E200EB48121804201056019155
:105620000090E100E74843582246E74902A820F0ED
:10563000D3F902A8FDF746F8502102A820F0DEFCBD
:1056400000BF641C602CCDDB2FE000242BE0204643
:10565000E117090F091809110901621A0121914086
:10566000D84A7C3292881140002900D11AE0E1002A
:10567000D44808184179E200D24812180420105684
:1056800001910090E100CF4843582246CE4902A83C
:1056900020F0A2F902A8FDF715F8502102A820F089
:1056A000ADFC00BF641C102CD1DB02E00120169081
:1056B00000BF00BF169817B0F0BDF0B595B0054615
:1056C0000026284612F037FA0746BC48C07D042859
:1056D00007D0BA48C07D082803D0B848C07D092843
:1056E00005D1BAA0FDF77CF8002015B0F0BD022F5F
:1056F00035D1B4480C381BF0FFFBBBA101A820F04A
:105700006BF901A8FCF7DEFF502101A820F076FC20
:10571000002421E02046E117090F091809110901A9
:10572000621A01219140A74A7C32928811400029D7
:1057300000D10FE0A100B54843582246B4A101A80A
:1057400020F04AF901A8FCF7BDFF502101A820F084
:1057500055FC00BF601CC4B2102CDBDB01E001264D
:1057600000BF00BF3046C0E7F0B595B00446002545
:10577000204612F0E0F90646AA48C07C002802D173
:10578000012015B0F0BD022E04D0032E10D0042E3F
:1057900021D109E08948427BA3A101A820F01CF98E
:1057A00001A8FDF71DF818E0A2A0FDF719F814E014
:1057B0000A2214A9204612F055FA0746012F03D1F8
:1057C00010A8007C012801DD012506E010A8007C5E
:1057D0007A49487301E0012500BF00BF2846D0E7A1
:1057E000F0B595B004460025204612F0A4F906460F
:1057F000022E04D0032E31D0042E57D122E071485E
:105800000C381BF079FB6D48C07D042807D06B482D
:10581000C07D082803D06948C07D092807D16848A1
:105820008430027A87A101A820F0D6F806E07748F4
:105830001C38027A83A101A820F0CEF801A8FCF759
:10584000CFFF35E0824803788248027882A101A820
:1058500020F0C2F801A8FCF7C3FF29E00A2214A92E
:10586000204612F0FFF90746012F05D1784800784D
:1058700010A9097C884201DA012519E04F48C07D52
:10588000042807D04D48C07D082803D04B48C07D70
:10589000092805D110A8017C49488430017204E030
:1058A00010A8017C59481C38017201E0012500BF95
:1058B00000BF284615B0F0BD10B5AEB0A82104A8B1
:1058C00020F09CFB04A8002100910B466B4A01913B
:1058D0000290A62139481BF0E0FCA62204A96848E2
:1058E00010F085FC0446002C01D12EB010BD012023
:1058F000FBE770B504460E461546072D01DA002079
:1059000070BD2946304620F077FB230023F025F9AF
:105910000EEF080E141A20262C32383E444A50EF5F
:10592000052258A1304620F001FBE7E0052257A1EF
:10593000304620F0FBFAE1E0052256A1304620F087
:10594000F5FADBE0052255A1304620F0EFFAD5E06C
:10595000062254A1304620F0E9FACFE0052253A1F7
:10596000304620F0E3FAC9E0042252A1304620F08C
:10597000DDFAC3E0062251A1304620F0D7FABDE09F
:10598000052250A1304620F0D1FAB7E005224FA100
:10599000304620F0CBFAB1E007224EA1304620F08D
:1059A000C5FAABE007224DA1304620F0BFFAA5E0D2
:1059B00007224CA1304620F0B9FA9FE0D00A00201F
:1059C000BC0E0020BC0B0020BC5500085468697355
:1059D00020726567696F6E206E6F742073757070CA
:1059E0006F7274210D0A00002B43514443483A0D55
:1059F0000A4368616E6E656C5B695D3A204672654C
:105A00007175656E63790D0A00000000D40C0020EA
:105A10004368616E6E656C5B2532645D3A20256477
:105A20000D0A0000A00A00202B435250544D3A2585
:105A3000640D0A002B435250544D3D3C302D313EF5
:105A40000D0A00002B435458503A25640D0A0000FB
:105A5000ED000020EE0000202B435458503D3C54F4
:105A60007820506F77657220696E6465783E2C20CF
:105A70005B25642C25645D0D0A000000FE000020FB
:105A8000000108084555343333000000434E3738D1
:105A90003000000045553836380000005553393184
:105AA0003500000055533931354800004153393233
:105AB0003300000046756C6C000000004155393120
:105AC00035000000434E3437300000004B5239326D
:105AD00030000000495352393135000052553836F4
