:020000040800F2
:1000000030460020E13D0008013C0008273C000884
:10001000333C0008353C0008373C00080000000075
:1000200000000000000000000000000009020008BD
:10003000393C0008000000004D020008C9270008F4
:10004000FB3D0008FB3D0008FB3D0008FB3D0008B0
:10005000FB3D0008FB3D00086D7000089170000832
:10006000B5700008D9700008FD700008FB3D00085D
:10007000FB3D0008FB3D0008FB3D0008FB3D000880
:10008000FB3D0008FB3D0008FB3D0008FB3D000870
:10009000FB3D0008FB3D0008FB3D00082171000806
:1000A000FB3D0008FB3D0008FB3D0008FB3D000850
:1000B000A3730008FB3D000807740008FB3D00081F
:1000C000FB3D0008FB3D0008FB3D0008FB3D000830
:1000D000FB3D0008AB8200083F820008FB3D0008A2
:1000E0009D71000809780008FB3D0008FB3D0008F1
:1000F000FB3D000800F002F800F077F80AA090E855
:10010000000C82448344AAF10107DA4501D100F0D2
:100110006CF8AFF2090EBAE80F0013F0010F18BF28
:10012000FB1A43F001031847EC8801000C89010019
:100130000A444FF0000C10F8013B13F0070408BF0D
:1001400010F8014B1D1108BF10F8015B641E05D0AB
:1001500010F8016B641E01F8016BF9D113F0080F60
:100160001EBF10F8014BAD1C0C1B09D16D1E58BFF2
:1001700001F801CBFAD505E014F8016B01F8016B29
:100180006D1EF9D59142D6D370470000002300249C
:1001900000250026103A28BF78C1FBD8520728BF97
:1001A00030C148BF0B607047642913F0E985782996
:1001B00013F02286732914F05E82002070471FB569
:1001C0009DE8030014F080F914F0FEFA040000200A
:1001D000002115F07FFE401C60600020002115F01A
:1001E0008FFEE0601FBD10B510BD14F04AFB114634
:1001F000FFF7E5FF08F066F914F0BAFD03B4FFF766
:10020000F2FF03BC14F0EAFD204B19680868B0E85F
:10021000F00F80F30988BFF36F8F4FF0000080F379
:1002200011884EF00D0E704700000000064800686F
:10023000006880F3088862B661B6BFF34F8FBFF3E2
:100240006F8F00DF00BF00BF08ED00E0EFF3098013
:10025000BFF36F8F0D4B1A6820E9F00F106008B5DF
:100260004FF0500080F3118801F0AEFC4FF0000019
:1002700080F31188BDE8084019680868B0E8F00FFD
:1002800080F30988BFF36F8F704700BF2000002004
:10029000EFF311804FF0500181F31188704780F324
:1002A00011887047EFF30580704700007047000029
:1002B00000230380438041600281704770B50D4682
:1002C0000446418800F033F8608061680D5470BDC9
:1002D00070B50446018800F02AF861680D5C218839
:1002E000204600F024F82080284670BD00210180BF
:1002F00041807047028841888A4203D001B9018950
:10030000491E4180704701884088814201D1012007
:1003100070470020704710B50446418800F007F888
:100320002188884201D1012010BD002010BD008924
:10033000491CB1FBF0F200FB121080B270470000C4
:100340005E495F4A0868504343F23902104408602E
:100350006FF00041B0FBF1F201FB1200704757490A
:100360000860704710B50C460346FFF7E9FFE11A35
:10037000491C90FBF1F201FB1200184410BD10B5AE
:1003800004466FF0004090FBF4F104FB1101431AA6
:10039000FFF7D6FF9842FBDA93FBF4F190FBF1F004
:1003A00010BD30B50C4605460CE02046FFF7E7FFD0
:1003B000631E984205D029192A5C11F8014D2C546E
:1003C0000A70DCB2002CF0D130BD0A2801D23030E6
:1003D00002E0102802D2373040B270473F20704709
:1003E0000EB501460922684613F0D7FF10220021FE
:1003F000684613F001FE0EBD2DE9F84300241546B2
:100400000E460746A0460FE006EB4401022268466E
:10041000CDF8008013F0C1FF10220021684613F0D0
:10042000B3FD3855641CE4B2AC42EDD3BDE8F883AB
:1004300030B5002314E0C45C250904F00F04092D35
:1004400001D8303500E0373501F81350092C01D8B8
:10045000303400E0373401EB43055B1C6C70DBB2D9
:100460009342E8D330BD70B500240546264607E028
:10047000295D0D2901D00A2900D12E55641CE4B252
:10048000284613F04CFEA042F2D870BD1044401E26
:1004900003E011F8013B00F80139521E92B2F8D284
:1004A000704708B5002300938DF800000A461946EE
:1004B000684613F069FDC0B208BD000000000020CE
:1004C0006D4EC6417FB504460146684600F0C8F946
:1004D0009DF80000F8499DF80A5001F580720B5C08
:1004E0009DF805009DF80F60105C4340A1F58070F9
:1004F000455D865D75406B4023709DF800309DF82A
:1005000005509DF80F60C35C4D5D865D6B409DF8A6
:100510000A50555D75406B4063709DF800309DF842
:1005200005509DF80F60C35C455D965D6B409DF87E
:100530000A504D5D75406B40A3709DF800309DF8EA
:1005400005509DF80F60D35C455D8E5D6B409DF856
:100550000A50455D75406B40E3709DF804309DF88E
:1005600009509DF80360CB5C555D865D6B409DF83E
:100570000E50455D75406B4023719DF804309DF829
:1005800009509DF80360C35C4D5D865D6B409DF82E
:100590000E50555D75406B4063719DF804309DF8B9
:1005A00009509DF80360C35C455D965D6B409DF806
:1005B0000E504D5D75406B40A3719DF804309DF861
:1005C00009509DF80360D35C455D8E5D6B409DF8DE
:1005D0000E50455D75406B40E3719DF808309DF805
:1005E0000D509DF80760CB5C555D865D6B409DF8B6
:1005F0000250455D75406B4023729DF808309DF8B0
:100600000D509DF80760C35C4D5D865D6B409DF8A5
:100610000250555D75406B4063729DF808309DF83F
:100620000D509DF80760C35C455D965D6B409DF87D
:1006300002504D5D75406B40A3729DF808309DF8E7
:100640000D509DF80760D35C455D8E5D6B409DF855
:100650000250455D75406B40E3729DF80C309DF88B
:100660000150CB5C555D9DF80B606B409DF80650CA
:10067000865D455D75406B4023739DF80C309DF899
:1006800001509DF80B60C35C4D5D865D6B409DF82D
:100690000650555D75406B4063739DF80C309DF8B6
:1006A00001509DF80B60C35C455D965D6B409DF805
:1006B00006504D5D75406B40A3739DF80C30D25CC5
:1006C0009DF80130C35C5A409DF80630C05C9DF82F
:1006D0000B30C95C48404240E2737FBD2DE9F04FCA
:1006E000102909D0182907D0202905D0002082F828
:1006F000F000FF20BDE8F08F14460B4603E010F831
:10070000015B04F8015B5B1EDBB2F8D2880070303D
:10071000FF2300F0FF0A03EB1A1082F8F0000B46EB
:100720000127DFF898B150E0B3FBF1FCD418A146E3
:1007300014F8040D01FB1C3C6678A57819F8014CEF
:10074000BCF1000F09D0182923D9B3FBF1FC01FB40
:100750001C3CBCF1100F14D01BE080461BF80600B7
:100760001BF805601BF804501BF808404FEAD71C23
:100770004FF01B0878400CFB08FC8CEA4707FFB2DF
:1007800007E01BF800001BF806601BF805501BF87B
:100790000440A3EB010C0CF0FF0C12F80C8088EA6B
:1007A000000802EB0C0002F8038090F801C08CEA0C
:1007B000060C89F801C086786E4089F80260C0781E
:1007C00060401B1D89F80300DBB25345ACD3002009
:1007D00090E77FB50E46014692F8F0001546E8B165
:1007E000684600F057F8012408E0FFF76BFE684602
:1007F00005EB041100F03DF8641CE4B295F8F0003C
:10080000A0426846F1D800F05BF805EB0412694697
:10081000304600F03FF8002004B070BDFF20FBE739
:100820002DE9F0411F4614460D460646DDF81880B6
:1008300012E03146384600F01CF839464246084678
:10084000FFF7C7FF10B10120BDE8F0813946284607
:1008500000F006F8103510362046641EE9D2F3E7A2
:100860000A6802604A6842608A688260C968C1603A
:10087000704702680B685A40026042684B685A40F1
:10088000426082688B685A408260C268C9684A4088
:10089000C260704710B50B681468634003604B6812
:1008A0005468634043608B68946863408360C968A0
:1008B000D2685140C16010BD6C6F01086C6E0108B8
:1008C000027818498A5C027002798A5C0271027AA5
:1008D0008A5C0272027B8A5C027343794278CB5C49
:1008E0004370437ACB5C4371437BCB5C43728A5C3D
:1008F0004273837A8278CB5C83708A5C8272837B5A
:100900008279CB5C83718A5C8273C37AC27BCB5C55
:10091000C373C379CB5CC372C378CB5CC371895C8E
:10092000C17070476C6E010810B504461021F1309B
:1009300013F0EAFC0020C4F814012046BDE8104082
:10094000F02113F003BD0B46024610211846FFF7B5
:10095000C5BE2DE9FF470546D0F814010E461446E2
:1009600005F2011805F1F10918B3C0F11007A7420B
:1009700000D3174640443A46314613F046FCD5F8BA
:1009800014013844C5F81401102837D3BC4235D0BF
:1009900000202918401C11F8F12F0B7C5A400A70D6
:1009A0001028F6DB49462A460846FFF712FF3E4468
:1009B000E41B1AE00022A818B35C10F8F11F521CC7
:1009C00059400170102AF6DB10224946684613F0A0
:1009D0001CFC69462A460846FFF7FBFE10226946C2
:1009E000484613F012FC103C1036102CE2D8224678
:1009F0003146404613F009FCC5F81441BDE8FF87B5
:100A000070B588B000250C460A4606466946009532
:100A10000195029508460395FFF7DBFE9DF800005F
:100A20006A46000628460FD51318115C5B7849000A
:100A300041EAD3111154401C0F28F5DB9DF80F003B
:100A4000400080F087000CE01318115C5B784900CF
:100A500041EAD3111154401C0F28F5DB9DF80F001B
:100A600040008DF80F00D4F81401102814D09DF820
:100A7000000000061CD500201318115C5B784900AB
:100A800041EAD3111154401C0F28F5DB9DF80F00EB
:100A9000400080F0870019E000202118155C91F8D3
:100AA0000131401C6B4081F801311028F5DB29E051
:100AB00000215318505C5B78400040EAD31050543A
:100AC000491C0F29F5DB9DF80F0040008DF80F0041
:100AD000D4F8143104F201118020585400E0455438
:100AE000D4F81401401CC4F814011028F7D30020D6
:100AF0002118155C91F80131401C6B4081F80131DF
:100B00001028F5DB00202118401C11F8F12F0B7C78
:100B10005A400A701028F6DB102204F1F10104A8F3
:100B200013F073FB2246314604A8FFF752FE08B0CB
:100B300070BD000010B5C24C84E80F0010BDC04964
:100B40000861704770B5BE4D044614354168686849
:100B500013F04EFC002815D0686808B101F058FF6A
:100B60006088401C01F0F6FE68606188491C13F043
:100B7000CBFB62886168686813F047FB6088688017
:100B80002088288070BD2DE9F04106464FF0FF38DF
:100B90000024AB4F0CE013F0C2FA85B238692A4644
:100BA00050F83410706813F08CFA48B1641CA4B289
:100BB000386950F834000028EDD14046BDE8F08196
:100BC0003580386900EBC40041683046884780466C
:100BD000F3E770B5044600264068032299A113F09C
:100BE00070FA974D10B398A1606813F083FA20B3A0
:100BF00097A1606813F07EFA30B396A1606813F095
:100C000079FA70B395A1606813F074FA50B395A1A6
:100C1000606813F06FFA28B193A1606813F06AFA64
:100C200038B3761E2968304688472BE02046FFF708
:100C300089FF2046FFF7A7FF19E02046FFF782FF54
:100C400069682869884712E0BFF34F8F87480168B9
:100C5000874A01F4E06111430160BFF34F8F00BF89
:100C6000FDE700E001E0A86800E0E868804706468C
:100C7000D8E77348143040880028D3D07048143027
:100C8000FFF7A7FF304670BD10B50188428891423A
:100C900019D243685C5C3D2C07D03F2C01D000206A
:100CA00010BD491C0180022010BD491C89B2018081
:100CB000914202D25A5C3F2A01D0032010BD491C48
:100CC0000180042010BD012010BD30B503880B80C9
:100CD0000023138003884488A34206D3002030BD3C
:100CE0005B1C038013885B1C138003884488A34229
:100CF00003D24468E45C2C2CF2D144889DB2A54216
:100D000001D25B1C0380108809880144A14201D9EB
:100D1000401E1080012030BD30B503884488A342B6
:100D200027D24468E45C222C23D15B1C03800B8017
:100D3000012303E05B1C038013885B1C1380038882
:100D40004488A34203D24468E45C222CF2D19CB2D2
:100D50004588641CAC4201D29B1C03804068098812
:100D6000431810880146401E1B5C222B01D101292B
:100D700001D8002030BD1080012030BDFEB51646E0
:100D80000C460025074602AA01A90095FFF79DFF22
:100D9000012812D1BDF8080078B1BDF804107868B8
:100DA00032460844694613F0EFF82060009818B105
:100DB00000782C2803D010B125600020FEBD012052
:100DC000FEBD7CB50D00064614460ED011462846E1
:100DD00013F09AFA01AA69463046FFF79DFF0128F1
:100DE00003D1BDF80420A24201D900207CBDBDF88A
:100DF000001070680144284613F007FA01207CBDFA
:100E00007CB50D00064614460ED01146284613F058
:100E10007BFA01AA69463046FFF757FF012803D144
:100E2000BDF80420A24201D900207CBDBDF800100D
:100E300070680144284613F0E8F901207CBD0000E9
:100E40000400002041542B004154264800000000BB
:100E500041545A0041542646000000004154265790
:100E60000000000041540000412F00000CED00E0A4
:100E70000400FA0570B506464FF6FF7000234AF2EB
:100E800001050BE0F25C5040002204464008E407F4
:100E900000D06840521C082AF7D35B1C8B42F1D368
:100EA00070BD70B50646002003464AF201050DE00C
:100EB000F25C5040002204464008E40700D068403D
:100EC000521C92B2082AF6D35B1C9BB28B42EFD322
:100ED00070BD00F108014FF0FF32C0E90112C1609E
:100EE0000161002101607047002101617047426883
:100EF0004A6093688B6093685960916008610168EB
:100F0000491C0160704730B50C68621C02D000F1CA
:100F1000080202E0026904E01A4653681D68A5420F
:100F2000FAD953684B6099608A6051600861016822
:100F3000491C016030BDD0E9013201699A60D0E9F5
:100F400001235A604A68824201D182684A600022C5
:100F500002610868401E08607047000070B50D46C9
:100F6000040023D001F009FCD4E90F20216802FB22
:100F7000001161600021A1632168A1600A46D4E9E3
:100F80000F01401E00FB01214FF0FF30E160606463
:100F9000A06404F1100065B1FFF79BFF04F1240089
:100FA000FFF797FF01F001FC012070BDFFF770F91A
:100FB000FEE721690029F5D001F03DF80128F1D1C3
:100FC00001F0D1FBEEE72DE9F04117460D46060092
:100FD00017D0CDB106FB05F0401C543001F0BAFC2F
:100FE000B0B1044695B104F154002060C4E90F6526
:100FF00001212046FFF7B2FF84F850702046BDE87B
:10100000F081FFF745F9FEE70020E6E72460EDE711
:10101000FFF73EF9FEE770B5044601F0AEFB04F1C0
:1010200024050AE0606A58B1284601F004F808B1C6
:1010300001F097F8A06C401EA064A06C0028F1DCC1
:101040004FF0FF35A56401F0B0FB01F096FB04F111
:1010500010060AE0206958B1304600F0ECFF08B1F4
:1010600001F07FF8606C401E6064606C0028F1DC69
:101070006564BDE8704001F098BB70B51646026C1F
:101080000446002582B1C6B1E06813F0BEF8E168FD
:10109000206C091AE1602268914202D26168081A44
:1010A000E060022E16D01AE02068C0B9606801F036
:1010B000C4F805460020606011E0A06813F0A5F8B0
:1010C000216CA0680844A0606168884207D320684A
:1010D000A06004E0A06B10B1A06B401EA063A06BE9
:1010E000401CA063284670BD2DE9FF4383B01F4616
:1010F000894604004FF0000603D0B9F1000F03D079
:1011000007E0FFF7C5F8FEE7206C10B1FFF7C0F865
:10111000FEE7022F05D1E06B012802D0FFF7B8F8F7
:10112000FEE701F040F84FF0000820B9059810B133
:10113000FFF7AEF8FEE701F020FBA06BE16B884201
:1011400005D3022F03D00598C0B1D6B11DE03A46B1
:1011500049462046FFF791FF616A31B104F124004E
:1011600000F069FF012801D002E008B101F0FBFAAC
:1011700001F01BFB012007B0BDE8F08301F015FB77
:101180001FE0684600F0B9FF012601F00EFB00F0F9
:1011900081FC01F0F2FA606C401C01D1C4F844807B
:1011A000A06C401C01D1C4F8488001F0FEFA05A9EA
:1011B000684600F0ADFF30B12046FFF72CFF00F08D
:1011C000FFFB0020D7E701F0D8FAA06BE16B884263
:1011D00001D1012500E0002501F0E7FA75B104F125
:1011E0001000059900F0C6FE2046FFF714FF00F03E
:1011F000E7FB00289FD101F0B6FA9CE72046FFF7F5
:101200000AFF00F0DDFB96E770B50546542001F0BB
:10121000A1FB04001DD0002161602160A160E1609C
:10122000A1630120C4E90F01801E6064A06484F8FA
:10123000505004F11000FFF74CFE04F12400FFF7BA
:1012400048FE00231A4619462046FFF74DFF204668
:1012500070BDFFF71DF8FEE710B5040009D000F0DF
:101260009FFF616888420FD1E068401EE06003D0B4
:1012700008E0FFF70DF8FEE700231A46194620465E
:10128000FFF732FF012010BD002010BD30B4026C0A
:101290000B46002A0BD0C1681144C1604468A142CA
:1012A00001D30168C16030BC184612F0AEBF30BC3B
:1012B00070472DE9FF4383B09946884604004FF0FC
:1012C000000603D0B8F1000F03D007E0FEF7E0FFFF
:1012D000FEE7206C10B1FEF7DBFFFEE700F063FFD6
:1012E000002720B9059810B1FEF7D2FFFEE701F004
:1012F00044FAA06B38B341462046E568FFF7C6FFC5
:10130000B9F1000F0DD0E560606A30B104F124003E
:1013100000F091FE08B101F026FA01F046FA012032
:1013200029E7A06B401EA063206810B900F0CEFF33
:10133000606020690028F0D004F1100000F07BFE0E
:101340000128E8D0E9E7059808B11EB106E001F0F0
:101350002CFA1DE0684600F0D0FE012601F025FAC7
:1013600000F098FB01F009FA606C401C00D1676442
:10137000A06C401C00D1A76401F017FA05A96846CB
:1013800000F0C6FE30B12046FFF745FE00F018FB26
:101390000020F0E601F0F1F9A06B30B1002501F07A
:1013A00004FAD5B1206810B108E00125F7E701F093
:1013B000E4F9606800F002FF01F0F7F904F124009D
:1013C000059900F0D7FD2046FFF725FE00F0F8FA5A
:1013D00000288CD101F0C7F989E72046FFF71BFEF2
:1013E00000F0EEFA83E770B50D46040009D000F076
:1013F000D7FE6168884207D1E068401CE0600120A8
:1014000070BDFEF745FFFEE700232A461946204639
:10141000FFF74FFF0128F3D1E168491CE16070BD7F
:1014200010B50C4620B1844205D9FEF731FFFEE726
:10143000FEF72EFFFEE702220021FFF7C4FD08B1F0
:10144000846310BDFEF724FFFEE72DE9F0411D4641
:1014500016460F46040001D01FB107E0FEF718FF43
:10146000FEE7206C10B1FEF713FFFEE7022D05D159
:10147000E06B012802D0FEF70BFFFEE701F020FA37
:10148000FEF706FF8046A06BE16B884207D3022D72
:1014900005D000244046FEF702FF2046AFE52A466D
:1014A00039462046FFF7E9FDA06C401C04D0A06C33
:1014B000401CA0640124EDE7606A0028FAD004F122
:1014C000240000F0B8FD0028F4D0002EF2D0012056
:1014D0003060EFE770B50D46040004D0206C28B1F1
:1014E000FEF7D6FEFEE7FEF7D3FEFEE7206820B942
:1014F000606810B1FEF7CCFEFEE701F0E1F9FEF7FF
:10150000C7FE0646A06BE16B884218D2A06B401C58
:10151000A063A06C401C04D0A06C401CA0640124FB
:101520000EE0606A0028FAD004F1240000F083FD88
:101530000028F4D0002DF2D001202860EFE700242D
:101540003046FEF7ACFE204670BD2DE9F041154651
:101550000F46040001D01FB107E0FEF799FEFEE739
:10156000206C10B1FEF794FEFEE701F0A9F9FEF73A
:101570008FFE0646A06BE0B139462046FFF786FE97
:10158000A06B401EA063606C401C04D0606C401CCB
:10159000606401240EE020690028FAD004F11000F4
:1015A00000F049FD0028F4D0002DF2D00120286081
:1015B000EFE700243046FEF772FE20461FE52DE9D6
:1015C000F0410F46040011D09FB1206CB0B101F082
:1015D00077F9FEF75DFE0646A06B90B139462046CE
:1015E000E568FFF753FEE56001240BE0FEF750FECF
:1015F000FEE7006C10B1FEF74BFEFEE7FEF748FE7B
:10160000FEE700243046FEF74AFE2046F7E410B518
:10161000040006D001F0B1F8A46B01F0C6F8204632
:1016200010BDFEF735FEFEE710B5040008D001F04E
:10163000A4F8D4E90E10441A01F0B7F8204610BD02
:10164000FEF726FEFEE710B508B1806B10BDFEF771
:101650001FFEFEE7254A002102EBC1035B688342BF
:1016600003D1002042F831007047491C0829F3D308
:10167000704710B5040006D0FFF7ECFF2046BDE828
:10168000104001F0C5B9FEF703FEFEE7C06C7047DD
:10169000C164704790F85000704710B518B1806B66
:1016A00020B1002010BDFEF7F3FDFEE7012010BDC4
:1016B00010B528B1816BC06B814204D1012010BDEF
:1016C000FEF7E6FDFEE7002010BD10B5074B002237
:1016D00053F832401CB1521C082AF9D310BD43F80C
:1016E000321003EBC201486010BD0000E002002090
:1016F0002DE9FF5F5FEA000BDDE90F900E9E1546B6
:101700008A4604D0072E05D3FEF7C2FDFEE7FEF79A
:10171000BFFDFEE7A900884610B9084601F01AF996
:1017200007000FD05C2001F015F9040006D0A522B7
:1017300041463846276312F0DFFD04E0384601F0E9
:1017400067F900E00024002C72D06FF00300216BD9
:1017500000EB8500084420F00707780702D0FEF769
:1017600097FDFEE751463546002022180B5C82F8B3
:1017700034300A5C12B1401C1028F6D3002184F8E2
:101780004310072D00D30625E562C4E913518846AE
:10179000201DFFF7A9FB04F11800FFF7A5FB24614A
:1017A000C5F107016462A161C4F8548084F85880CF
:1017B00059463846039A00F06BFF2060B9F1000FDC
:1017C00001D0C9F8004000F0D8FFFD4FB868401CB8
:1017D000B8603868DFF8EC8310B1786948B32EE060
:1017E0003C60B86801282AD1002505EB850108EB8B
:1017F0008100FFF76EFB6D1C072DF6D3F1488C308E
:10180000FFF767FBEF48A030FFF763FBED48B4300C
:10181000FFF75FFBEB48C830FFF75BFBE948DC30C4
:10182000FFF757FBE7488C3038631430786306E0E5
:1018300025E0FFE73868C06AB04200D83C60786AAB
:101840000121401C78626064E06A3A69814011437A
:10185000396100EB800108EB8100211DFFF747FB98
:10186000012400F0A2FF786928B13868C06AB0424C
:1018700001D200F078FF04B02046BDE8F09F4FF0A1
:10188000FF34F8E770B5044600F077FFCC4D04B99B
:101890002C68201DFFF74FFB58B9E06AC94A00EBDE
:1018A000800152F8211021B9012181402869884323
:1018B0002861A06A18B104F11800FFF73CFBC14889
:1018C000211DC830FFF713FB6868401C6860686A18
:1018D000401C686200F069FF6869002813D028681E
:1018E000844208D1E86A10B1FEF7D2FCFEE7BDE8F9
:1018F000704000F038BF00F040FF00F071FEBDE81E
:10190000704000F052BF70BD2DE9F041AC4F002592
:10191000F86A40B1B869401CB861F86900B10125A6
:101920002846BDE8F081F868401CF860FE6876B98A
:10193000386B006810B1FEF7ABFCFEE7386B796BD3
:1019400039637863386A401C386200F049FEB86A2F
:10195000DFF87082864209D3386B006880B1386B3B
:10196000C068C468606886420DD2B8623868C06AD0
:1019700000EB800158F821000128CED90125CCE7E1
:101980004FF0FF30F1E7201DFFF7D5FAA06A18B13C
:1019900004F11800FFF7CFFAE06A01213A698140AB
:1019A0001143396100EB800108EB8100211DFFF735
:1019B0009EFAE06A3968C96A8842CDD30125CBE72F
:1019C0002DE9F0477E4D0027E86A38B100F0D5FEDA
:1019D000E86A401EE862E86A18B13EE0FEF758FC8B
:1019E000FEE7A8687749B4310126B0B3DFF8D49197
:1019F0008846D8F80010E9B1D8F80C00C46804F1A2
:101A00001800FFF798FA201DFFF795FAE06A2A6997
:101A100006FA00F11143296100EB800109EB810016
:101A2000211DFFF764FAE06A2968C96A8842E0D399
:101A3000EE61DEE7A86938B909E0FFF765FF00B19C
:101A4000EE61A869401EA861A8690028F5D1E8697F
:101A5000012802D1012700F086FE00F0A6FE3846DC
:101A6000BDE8F08770B5564D044628684460E868C4
:101A70002968844205D2686BBDE87040091DFFF7F4
:101A800042BA286B091DFFF73EFAA86A844200D2C9
:101A9000AC6270BD4A48C16A491CC162704770B5EA
:101AA00002001DD0464CE06A10B1FEF7F1FBFEE7E4
:101AB000FFF7F0FFE06885182068001DFFF73BFA8C
:101AC00038B92068012190F82C00814020698843B2
:101AD00020612846FFF7C6FFFFF772FF002803D1F9
:101AE000BDE8704000F03FBE70BD10B5044600F088
:101AF00044FE0CB932480468E46A00F056FE204601
:101B000010BD10B5044600F0DBFEFEF7C1FB0CB9BA
:101B10002B490C68E46AFEF7C2FB204610BD2DE994
:101B2000F04100260D460446072902D3FEF7B0FB1C
:101B3000FEE700F022FE224F04B93C68E06CA842A8
:101B400039D03968854206D98C4207D03968C96ACC
:101B5000A94202D902E08C4200D10126E16A8846FE
:101B6000884200D1E562E564A069002802DBC5F186
:101B70000700A061134D08EB8800616905EB800048
:101B8000814215D1201DFFF7D6F9012120B938690E
:101B900001FA08F290433861E06A3A6981401143E2
:101BA000396100EB800005EB8000211DFFF79FF9F4
:101BB0000EB100F0D8FDBDE8F04100F0F6BD000028
:101BC000200000202003002010B5FA4CE06A10B17C
:101BD0000120E06110BD0020E061206821680068FC
:101BE000096B884204D821682068343106F0A2FCD1
:101BF0002069F149B0FA80F0C0F11F0000EB8000CD
:101C000051F820206AB101EB800000F10802416820
:101C100049684160914201D149684160C8682060CB
:101C200010BDFEF735FBFEE770B5044600F0A5FDDC
:101C3000E04D04B92C68201DFFF77DF958B9E06A22
:101C4000DD4A00EB800152F8211021B901218140C9
:101C5000286988432861A06A18B104F11800FFF7C9
:101C60006AF9D548211DDC30FFF741F900F09DFDF0
:101C700028688442686915D140B1E86A10B1FEF75E
:101C800007FBFEE7BDE8704000F06DBDCA48A968DB
:101C9000DC300068884202D10020286070BDBDE8B9
:101CA000704091E70028F9D000F067FD00F098FC43
:101CB000BDE8704000F079BD70B504000BD0BD4D9B
:101CC0002868844226D000F058FD204600F095FC9C
:101CD000012803D01AE0FEF7DBFAFEE7201DFFF72C
:101CE0002AF9E06A01212A69814011432961B24938
:101CF00000EB800001EB8000211DFFF7F8F8E06A9F
:101D00002968C96A884201D300F02DFDBDE8704002
:101D100000F04BBD70BD2DE9F041002504000AD054
:101D200000F0CEFDFEF7B4FA0746204600F065FC51
:101D3000012803D021E0FEF7ABFAFEE79D4EF06AE2
:101D400020B19D4804F11801B43014E0E06A316814
:101D5000C96A884200D30125201DFFF7ECF8E06A2C
:101D600001213269814011433161934900EB8000C8
:101D700001EB8000211DFFF7BAF83846FEF78FFA15
:101D80002846CEE58B480168C96A09B10020704732
:101D9000894909680129F9D8816AC068081A704719
:101DA000854D844C00F03DFC2868012801D900F0E5
:101DB000DAFCFFF7E7FFC928F4D3FFF76BFEA06A50
:101DC000E168884202D2FEF763FAFEE7FFF7DAFF26
:101DD000C92801D306F0D0FBFFF7F2FDE2E71FB5FB
:101DE00000240094019402942346802273A1754834
:101DF0000394FFF77DFC012804D000280CD1FEF7E6
:101E000047FAFEE7FEF744FA6A4801214161C460DF
:101E1000BDE81F4000F067BC1FBD10B5FEF738FAE3
:101E2000644900204861BDE8104000F092BC614860
:101E3000C068704710B500F043FD5E48C06810BD33
:101E40005C48806870472DE9F04781460B680020A8
:101E5000002B3BD04B6801F108065B684B60B34236
:101E600001D15C684C604B684FF0000ADF684B683A
:101E70005B684B60B34201D15C684C604B6809EB16
:101E80004015DB6803F13404C5E900345C6CAC60D8
:101E90002A73DC6A2C61032A03D19C6A0CB10224E8
:101EA0002C73DC6CC5E9054A1C6B4FF0000C02E09A
:101EB000641C0CF1010C94F80080B8F1A50FF7D068
:101EC0004FEA9C04401CAC83BB42D0D1C8E52DE94D
:101ED000F04717460A46064600240725FFF7DAFDB5
:101EE000DFF8D080D8F80800824231D3DFF8C890FC
:101EF0006D1E05EB850109EB810106EB4410012203
:101F0000FFF7A1FF0444002DF2D106EB441002229A
:101F10004546D8F83010FFF796FF044406EB44100E
:101F20000222696BFFF78FFF2349044406EB44103C
:101F30000422C831FFF787FF1F49044406EB441011
:101F40000322DC31FFF77FFF04440FB1002038602B
:101F5000FFF736FD204683E5164910B5CA688B6A3F
:101F600002449A4202D9FEF793F9FEE7CA68104488
:101F7000C86010BD70B50D4650B10E4C21681831C7
:101F8000FEF7C1FF2068001DFEF7D5FF18B10AE07B
:101F9000FEF77EF9FEE7206890F82C1001208840BB
:101FA000216981432161681C0ED0E0682844BDE8A6
:101FB000704057E5200000202003002049444C4594
:101FC00000000000A11D00082168BDE87040FD4828
:101FD000091DFEF78CBF70B5154680B1FA4CE26A58
:101FE00082B1226841F00041916121681831FEF709
:101FF0007EFF2068001DFEF79EFF30B10DE0FEF76A
:1020000047F9FEE7FEF744F9FEE7206890F82C1048
:1020100001208840216981432161681C04D0E06867
:102020002844BDE870401DE52168BDE87040E548E2
:10203000091DFEF75CBF2DE9F041C068C468ACB172
:1020400004F118000746FEF776FFDF4DE86A012627
:1020500078B1DC4839462838FEF749FFE06A29683C
:10206000C96A884216D90124EE6114E0FEF710F91E
:10207000FEE7201DFEF75FFFE06A2A6906FA00F11D
:1020800011432961CF4900EB8000DC3901EB80006E
:10209000211DE1E7002400F0A3FA204641E470B5D9
:1020A000C94DEA6A0AB341F000410160C468FCB15D
:1020B000FEF741FF201DFEF73EFFE06A01262A6978
:1020C00006FA00F111432961BE4900EB8000DC39BA
:1020D00001EB8000211DFEF70AFFE06A2968C96A4A
:1020E000884208D90120EE6170BDFEF7D1F8FEE705
:1020F000FEF7CEF8FEE7002070BD10B528B1B2495A
:102100000A6A0260C968416010BDFEF7C1F8FEE7C7
:1021100070B50D46040019D0DDB100F02EFBAA4ABF
:10212000D06829684B1C0FD02368126A934202D0F2
:102130006268824210D96268801A88420CD2081AFA
:1021400028602046FFF7D9FF002406E0FEF7A0F83C
:10215000FEE7FEF79DF8FEE7012400F026FB20468F
:1021600070BD99490120C8617047002800D0806C7B
:102170007047002800D081647047924901202839B7
:10218000096809B1002070478F49CA69002AF9D14E
:102190008C4A89681268491E8A42F4D1022070472D
:1021A0008948006870478848416919B1C06A18B108
:1021B00000207047012070470220704770B504006E
:1021C0003AD0814DE06A2968C96A884234D2A06950
:1021D000002804DB2868C06AC0F10700A061E06A3B
:1021E000784E00EB8000DC3E616906EB80008142A6
:1021F0001FD1201DFEF79FFE012150B9E06A00EBC0
:10220000800256F8222022B92A6901FA00F082439E
:102210002A612868C06AE0622A6981401143296105
:1022200000EB800006EB8000211DBDE87040FEF74A
:102230005EBE2868C06AE06270BD70B504004FF0F1
:10224000000038D0604D29688C4202D0FEF720F89B
:10225000FEE7216D79B1491E2165E36CE26A9A427D
:1022600029D0002927D1201DFEF765FE5549DC390C
:10227000012218B10DE0FEF70BF8FEE7E06A00EB73
:10228000800351F8233023B92B6902FA00F083430D
:102290002B61E06CE062C0F10700A061E06A2B698D
:1022A00082401A432A6100EB800001EB8000211D6F
:1022B000FEF71DFE012070BD434908680A68806969
:1022C000D26A0968C2F107028A6170473E4908680C
:1022D00018B10868026D521C0265086870472DE944
:1022E000F0410C46064600F048FA374D2868406D2C
:1022F000C0B92868012780F858709CB12868001D73
:10230000FEF719FE30B9286890F82C00874028693C
:10231000B8432861601C11D0E8682044FFF7A2FB95
:1023200000F021FA00F041FA00F027FA2868446D25
:1023300000226CB146B12868426509E0296821484D
:10234000091DFEF7D4FDEBE72968486D401E48657E
:10235000286880F8582000F028FA204611E52DE979
:10236000F0411C4616468846074600F006FA164D10
:10237000286890F8580002281CD02868416DB9439D
:1023800041652868012780F858709CB12868001DB5
:10239000FEF7D1FD30B9286890F82C0087402869F5
:1023A000B8432861601C25D0E8682044FFF75AFB39
:1023B00000F0D9F900F0F9F900F0DFF93EB1286832
:1023C000406D03E0FC0300202000002030602868FE
:1023D00090F85800012813D02868416D21EA0801BF
:1023E000416501242968002081F8580000F0DDF9DA
:1023F0002046C6E429689F48091DFEF778FDD7E707
:102400000024EFE72DE9F0411F4690460D460126D6
:1024100090B1044600F0B1F90FB1606D386094F8E6
:102420005800022184F85810B8F1050F11D2DFE8E6
:1024300008F01006090F0D00FDF72AFFFEE7616D99
:10244000294301E0616D491C616502E0022803D067
:102450006565012802D020E000261EE0201DFEF761
:102460006AFD854DE06A01212A6981401143296195
:10247000804900EB8000DC3901EB8000211DFEF774
:1024800036FDA06A10B1FDF703FFFEE7E06A296898
:10249000C96A884201D900F066F900F086F9304631
:1024A0006FE42DE9F0471F4690460D4604004FF0BB
:1024B000010611D000F004FAFDF7EAFE814694F817
:1024C0005800022184F85810B8F1050F11D2DFE846
:1024D00008F01006090F0D00FDF7DAFEFEE7616D4A
:1024E000294301E0616D491C616502E0022803D0C7
:1024F0006565012802D019E0002617E0A06A10B136
:10250000FDF7C6FEFEE75C4DE86A4FF0010890B1AA
:10251000584804F118012838FEF7E9FCE06A2968F8
:10252000C96A884202D90FB1C7F800804846FDF752
:10253000B6FE3046CAE4201DFEF7FDFCE06A2A69BB
:1025400008FA00F1114329614A4900EB8000DC39A7
:1025500001EB8000211DDFE72DE9F0410E4604006C
:102560000FD000F0ADF9FDF793FE804694F85800C7
:10257000022184F85810616D491C6165012803D05F
:1025800018E0FDF785FEFEE7A06A10B1FDF780FEBA
:10259000FEE7394DE86A012788B1364804F1180191
:1025A0002838FEF7A4FCE06A2968C96A884201D984
:1025B00006B137604046BDE8F041FDF770BE201D12
:1025C000FEF7B9FCE06A2A6907FA00F111432961B4
:1025D000284900EB8000DC3901EB8000211DE0E799
:1025E0002548016B096829B1016BC968C968496848
:1025F000816270474FF0FF31FAE710B5002150B10A
:102600001C4B42699A420AD1806AA3F12802904287
:1026100005D018B103E0FDF73BFEFEE701210846B7
:1026200010BD70B5134E144D143E1FE0FFF732FA83
:10263000306820B10024FFF7C3F9BCB901E00124E0
:10264000F9E700F09AF8F068C468201DFEF773FC03
:10265000A868401EA8606868401E686000F0A5F881
:10266000206B00F0D5F9204600F0D2F96868002808
:10267000DCD170BDFC030020200000209E48406893
:10268000401C02D0FDF704FEFEE7FDF701FEFEE769
:1026900010B5031F4FF080741C601B1F1960191FB9
:1026A000964B0B60143940380A6010BD10B5944841
:1026B0004FF47A73904A00686FF07F44B0FBF3F1F7
:1026C0009160B4FBF1F1D160B0FBF0F12D24B4FBCB
:1026D000F1F11161B0FBF3F14FF0E020491E4161CF
:1026E0000721016110BD1CB5864908780190FF20C3
:1026F000087008788DF800009DF800007E4C00F00E
:10270000500020700720606107E06069401E606132
:102710009DF8000040008DF800009DF800000006C4
:10272000F3D4207D000200F4E0606061019808703D
:102730007548016841F470010160016841F0704121
:102740000160FFF7B3FF00206060FDF76FFD002020
:102750001CBD694810B54068B0F57A7F02D0FDF71E
:1027600097FDFEE710BD68494FF080501C390860A6
:10277000BFF34F8FBFF36F8F704710B5FDF788FD24
:102780005D484168491C4160BFF34F8FBFF36F8FB5
:102790004068012808D15C481C38006810F0FF0F21
:1027A00002D0FDF775FDFEE710BD534910B548682E
:1027B00030B1401E486006D1BDE81040FDF76FBD46
:1027C000FDF766FDFEE710BD10B5FDF761FDFFF7F3
:1027D0009BF820B14C494FF080501C390860BDE88F
:1027E00010400020FDF75BBD2DE9F041424E04464C
:1027F000F068844200D904464FF0E027386920F0A1
:1028000001003861B969B268601E02FB00153069C9
:10281000854200D92D1A72B6FFF7AFFC48B37D612F
:102820004FF00008C7F81880386940F0010038619F
:10283000204605F084FE24B1BFF34F8F30BFBFF3B5
:102840006F8F204605F091FE386920F00101396153
:1028500062B6C00319D5B869B168281A081A326976
:10286000401E904201D3884200D9481E7861641E00
:1028700015E0B8697861386940F001003861B068E6
:10288000401E786162B6BDE8F081B068B969444322
:10289000611AB1FBF0F4621C4243501A7861C7F828
:1028A0001880FFF76AFF386940F001003861204660
:1028B000FFF752FBB068401E7861BDE8F04174E755
:1028C00010B5FDF7EFFC0C49102809D300F1E0200A
:1028D00090F8F0030A78904202D2FDF7D9FCFEE7A7
:1028E000094814380068496900F4E060884202D958
:1028F000FDF7CEFCFEE710BD580000207D26000845
:10290000B000002000E400E020ED00E030B56749B1
:1029100000E011460A688242FBD34B685C1884428F
:1029200003D1406818444860084643681C18944224
:1029300009D15E4C103C2468A24209D052681A4466
:1029400042600A6812680260814200D0086030BDAF
:102950000460F9E72DE9F04105460026FFF79AF8F3
:10296000524F103F386808B900F07EF8F868054209
:1029700041D1EDB30835680709D005F00700C0F173
:1029800008000544680702D0FDF782FCFEE77DB32E
:10299000786885422FD845490846046801E02146F9
:1029A00004466068A84202D220680028F7D138683F
:1029B000844220D00E682068086060680836411B99
:1029C000102909D96019420702D0FDF761FCFEE722
:1029D00041606560FFF79AFF61687868401A786027
:1029E000BA68904200D2B860F8680143002000E065
:1029F00001E0C4E90001FEF7E3FF0EB905F09EFD1A
:102A0000700702D0FDF744FCFEE73046BDE8F081D8
:102A100070B500281ED0254DA0F10804103D606857
:102A2000E968084202D1FDF733FCFEE7226812B1E3
:102A3000FDF72EFCFEE788436060FFF72BF8606827
:102A40006968084468602046FFF760FFBDE8704091
:102A5000FEF7B6BF70BD1548103840687047134880
:102A6000103880687047704711484FF42051420772
:102A700006D0C01D0E4920F00700411AC1F52051B3
:102A80000A4A00230144C2E900030839103A21F040
:102A9000070111604B600B600B1AC0E900139360D3
:102AA0004FF000405360D06070470000800000206D
:102AB000100400201CB500240094234601221A2192
:102AC000F848019404F081F90120FEF7E8FF0120A5
:102AD000CDE9004000231A461A21F24804F075F9A6
:102AE000BDE81C400620FEF7DABFEF49886070475A
:102AF00013B5012201A905F008F91CBD08B5012292
:102B0000694605F01DF99DF8000008BD10B530B10B
:102B1000E44800210C3004F047F9012105E0E148C8
:102B200001210C3004F040F90021DE48BDE81040DE
:102B3000183004F039B91CB500240123D948009499
:102B40001A4619460C30019404F03FF9D548012388
:102B500000941A4600211830019404F036F91CBD87
:102B60001CB50124CF4800940023224621460C3096
:102B7000019404F02AF90020CDE900400346014603
:102B8000C8480122183004F020F91CBDC6490A7853
:102B9000824203D0087000B1CDE7E1E7704710B57D
:102BA000040011D00020FFF7F1FF032C10D000200B
:102BB000FFF7ACFF0120FFF7A1FF00F0F801214370
:102BC000BDE81040012093E70120FFF7DFFFF1E7A8
:102BD0000120EDE7B34910B5B03991F85520824294
:102BE00028D081F8550001284FF000000FD0FFF7E2
:102BF000D6FF0120FFF782FF00F07F010120FFF7E1
:102C000077FF00214020FFF773FF30210EE0FFF730
:102C1000C6FF0120FFF772FF40F080010120FFF79F
:102C200067FF00214020FFF763FF0021BDE810404F
:102C300041205DE710BD10B50446036899480222A3
:102C40000121A43804F0FDF89648022201219838A9
:102C5000636804F0F6F89348022201218C38A368D7
:102C600004F0EFF88F48022201218038E36804F075
:102C7000E8F88C48022201217438236904F0E1F855
:102C80008848636902220121BDE81040683804F0D9
:102C9000D8B8844910B5B039886513F03DFC0022DE
:102CA000824B13F031FA13F0F3FB0446C0F30741F3
:102CB0000620FFF71DFFC4F307210720FFF718FFC9
:102CC000E1B2BDE81040082012E770B5FFF7F2FE50
:102CD00000F034FF0020FFF762FF73480C30FFF76D
:102CE000AAFF734E002404EB4405705DFFF772FFEA
:102CF000A81981784078FFF7FBFE641CE4B2102C21
:102D0000F1D30020FFF766FF66490020B03981F853
:102D1000540070BD6348B03890F854007047614863
:102D2000B03890F8550070475E49B03981F85400CA
:102D3000704710B50020FFF732FF5A490020B03924
:102D400081F8540010BD10B54FF0FF3410B10128C8
:102D500018D106E01120FFF7D1FE4008404211D003
:102D600010BD1B20FFF7CAFE60B14E49514BB03970
:102D70008A6D4D499A4201D9498800E08988084402
:102D800000B210BD204610BD70B515460E46044673
:102D9000FFF720FF3046FFF77CFF5CB912210E20C1
:102DA000FFF7A6FE02211220FFF7A2FE0221132048
:102DB000FFF79EFE0520FFF7F2FE64B10120FEF74B
:102DC0006EFE2046FFF7BFFF0446FFF7B2FFAC429E
:102DD00003DD002070BD0220F1E7012070BD10B5B9
:102DE0000120FFF7DCFE2F490020B03981F85400A4
:102DF00010BD2C48B038806D704770B504460D4644
:102E00001920FFF77BFE41B22170080605D5C843A3
:102E1000401CC0F38500444201E0C1F385041A2040
:102E2000FFF76CFE2049002C03DA4988084420444F
:102E300005E00F23000190FBF3F049880844288047
:102E400070BD1B4A0021303252F83130834208D81D
:102E500002EBC1039B68834203D902EBC1000079F6
:102E60007047491CC9B21529EED3FEE72DE9F84F8A
:102E70009A46DDE90D6B14460D468146DDF83C802F
:102E80000B9FFFF7A7FE07484FEA17225FEA0901E9
:102E9000A0F1B00000920FD0B9F1010F73D1022D53
:102EA00058D9FEE7C02C00208800002080844E40C6
:102EB0006C71010840DD4A1F40F8645F84600A9924
:102EC0004160867380F80FB080F8108012994174C9
:102ED000139981748781204613F01EFB02460B462E
:102EE0000020FE4913F010F913F0D2FA84B2210A3F
:102EF0000220FFF7FDFDE1B20320FFF7F9FD2846B0
:102F0000FFF79FFF01461220FFF7F2FD0A98FFF737
:102F100098FF01461320FFF7EBFD25200099FFF7EE
:102F2000E7FDF9B22620FFF7E3FD0EB1594600E0B8
:102F3000FF213220FFF7DCFD3020FFF7DFFD00F03E
:102F40006F010EB1002000E08020014341EA08112A
:102F500030208DE08146ED1DE0E924540C2C80F8F2
:102F600009A04781067380F80DB080F80E80109993
:102F7000C1731199017412994174139989F8A210BF
:102F800002D90C2403E087E0062C00D20624072D8A
:102F900002D0082D02D003E00B2C46D00C2C44D0DC
:102FA000002189F898101D20FFF7A8FD290141EAAA
:102FB0004A003043C1B21D20FFF79AFD1E20FFF7E3
:102FC0009DFD00F0080040EA041141EA88000C99D8
:102FD000032202EA11210843C1B21E20FFF788FD37
:102FE0002620FFF78BFD00F0F70199F8980041EAE1
:102FF000C000C1B22620FFF77BFD0C98C1B21F2094
:10300000FFF776FD20200099FFF772FDF9B221202D
:10301000FFF76EFD1EB159462220FFF769FD99F8B2
:103020009F004E46012802D00EE00121B9E744205E
:10303000FFF764FD40F080014420FFF759FD96F84A
:10304000A0102420FFF754FD092D14D003213620B1
:10305000FFF74EFD062C4FF0310013D0FFF74EFD69
:1030600000F0F8013120C91CFFF742FD0A2137208A
:10307000BDE8F84F3CE502213620FFF739FD7F21FE
:103080003A20E5E7FFF73AFD00F0F8013120491D4D
:10309000FFF72EFD0C21EAE7BDE8F88F802070478E
:1030A0002DE9FF4F81B09A46DDE90E5BDDE910792D
:1030B0000C46DDF848800198FFF78CFD0920FFF7EA
:1030C0001DFD00904D20FFF719FD0646009800F009
:1030D0007F0040F0F000010635D5112C02DD46F0EE
:1030E000070602E006F0F806361DF143490703D053
:1030F000022C0CDA02240DE0052C01DA052402E092
:10310000142C00DD142400F0F001601F05E0112CE8
:1031100000DD112400F0F001A01E00F00F000143BB
:103120000920FFF7E5FC31464D20FFF7E1FC01984F
:103130003E0AA8B101287DD16948BAF1020F80F892
:103140008C405BD9FEE74FF0FF318C4201DA0C4630
:1031500002E00E2C00DD0E2400F0F001601CDCE724
:103160005F4800F85C4F03990561C0E9011A878246
:1031700080F8169080F81880159941761699C161EB
:10318000039813F0C9F90022564B12F0BDFF13F05B
:103190007FF984B2210A0420FFF7AAFCE1B20520DE
:1031A000FFF7A6FC284613F0B7F902460B460020AD
:1031B0004A4912F0A9FF13F06BF984B2210A0220E8
:1031C000FFF796FCE1B20320FFF792FC3146252081
:1031D000FFF78EFCF9B22620FFF78AFC3020FFF7BC
:1031E0008DFC00F06F01B9F1000F01D0002000E06C
:1031F0008020014341EA0811302082E00AF10704EF
:10320000C0E9244580F899B0A0F89A7080F89C90A5
:10321000139980F89F10149A80F8A02080F89E805F
:10322000159A80F8A120169AC0F8A4200C2D02D976
:103230000C2503E074E0062D00D20625072C02D0F1
:10324000082C02D003E00B2D08D00C2D06D0002254
:1032500080F898208246012902D00EE00122F7E78B
:103260004420FFF74BFC40F080014420FFF740FC76
:103270009AF8A0102420FFF73BFC1D20FFF73EFC2E
:10328000210141EA4B0040EA0900C1B21D20FFF7CD
:103290002FFC1E20FFF732FC00F00B0040EA051166
:1032A00041EA8800C1B21E20FFF722FC2620FFF76A
:1032B00025FC00F0F7019AF8980041EAC000C1B27D
:1032C0002620FFF715FC31462020FFF711FCF9B24C
:1032D0002120FFF70DFC062D06E0000080847E41D2
:1032E000102C002080844E404FF031000ED0FFF7AC
:1032F00005FC00F0F8013120C91CFFF7F9FB0A2199
:10330000372005B0BDE8F04FFFF7F2BBFFF7F6FB43
:1033100000F0F8013120491DFFF7EAFB0C21EFE72F
:1033200005B0BDE8F08F2DE9F34F0100F94F81B0F2
:103330004FF000000CD001297ED10024D7F8900076
:103340002546072852D0082853D0092856D153E0E3
:10335000BA46F86E13F0E0F807468946029813F073
:10336000DBF8064688463020FFF7C8FB30F0F9004E
:103370004FF0000401D0E84D00E000252720FFF7C2
:10338000BDFB20F0F800BAF87010401C084413F0A0
:10339000C3F89AF87220012A4FF0000221D0DE4BC8
:1033A00012F0F6FD22462B4612F0F2FD324643465D
:1033B00012F0EEFD9AF87420012A4FF0000212D0AC
:1033C000002312F0E5FD032213F0DEFC3A464B46E3
:1033D00012F09AFE0022D14B13F0EEF812F030FDFD
:1033E0007FE00023DCE74FF08043EAE70024CC4D88
:1033F00004E00024CB4D01E0CB4D002457F8946F3E
:103400000120B04013F071F802460B4620462946D1
:1034100012F07AFE02460B460020BF4912F074FEFD
:1034200004460D46F88813F077F80022BF4B12F0DF
:10343000AFFD22462B4600E058E013F0BDF883466E
:1034400000917879001D13F067F8814638798A4633
:1034500000B10220C0EB860013F05EF80746029828
:103460008846C000714200EB8101AA4890F89E0096
:1034700001EB0011A74890F89C0000B11420081A35
:103480001C3013F049F83A46434612F03DFE12F064
:1034900095FB4A46534613F08FF8002207460E4626
:1034A000134613F087F902D23846314601E0002076
:1034B000014600229E4B12F06BFD22462B4613F074
:1034C0007BF802460B465846009912F061FD002237
:1034D000924B13F071F8974A974B12F059FD12F086
:1034E000DBFB03B0BDE8F04F12F0D2BFBDE8FE8FAA
:1034F00010B5884C94F8550010B101282CD119E072
:103500004020FFF7FBFA00F0030040F010014020DC
:10351000FFF7EEFA4120FFF7F1FA00F03E014120FB
:10352000FFF7E6FA3520FFF7E9FA00F03F0084F8EC
:103530008A0011E094F89F00012815D0F72111208E
:10354000FFF7D6FA4020FFF7D9FA00F03F0040F02D
:1035500040014020FFF7CCFA022084F85400BDE877
:1035600010400320FFF71BBBF5211120FFF7C0FA25
:103570004020FFF7C3FA00F03300E8E70A460146AF
:10358000002004F0C2BB73B5624C0546002094F8DD
:10359000551011B1012964D126E00020A4F888005B
:1035A0009DF80410A4F8861094F87200B8B1322087
:1035B000FFF79EFA9DF80400411E3F2900D9202004
:1035C00084F88B00C1B22846FFF7D8FFB4F8880012
:1035D00094F88B100844A4F88800A06F41E0012102
:1035E00001A8FFF7CBFFE5E794F8A10001284FF011
:1035F000330021D0FFF782FA00F0BE013320491CCE
:10360000FFF776FA1D213B20FFF772FA9DF80410B0
:1036100084F8AC102220FFF76BFA00210E20FFF790
:1036200067FA00210D20FFF763FA0120FFF766FA21
:1036300030F0F80009D00DE0FFF760FA00F0BE01AD
:103640003320FFF755FA1921DDE7FFF7C8FB01200A
:10365000FEF725FA9DF804102846FFF78FFFD4F8EF
:10366000A400FFF745FF7CBD70B52A4C002594F8F7
:10367000550010B1012824D124E014F8765F4020D1
:10368000FFF73CFA00F0030040F00C014020FFF788
:103690002FFA4120FFF732FA40F0C1014120FFF735
:1036A00027FA3520FFF72AFA00F03F0020751E2187
:1036B0000D20FFF71DFA0020A071E07160822082CA
:1036C000763CACE094F8A10001284FF033003CD0E8
:1036D000FFF714FA00F0BE013320491CFFF708FA87
:1036E0001D213B20FFF704FAD4F8900009284FF081
:1036F000310075D2FFF702FA00F07F013120FFF7A9
:10370000F7F900213020FFF7F3F9D4F890000928E9
:103710006BD213E0102C00200000F03F00408F40DF
:103720008084FE4080840E4180841E410000114050
:10373000000020402B8716D9CEF7EF3FDFE800F0DE
:103740000E18222C364051515100FFF7D7F940F0A6
:1037500041013320FFF7CCF91921C2E748212F207E
:10376000FFF7C6F9A06D12F0D7FE0022FE4B30E045
:1037700044212F20FFF7BCF9A06D12F0CDFE0022EE
:10378000FA4B26E044212F20FFF7B2F9A06D12F08A
:10379000C3FE0022F64B1CE044212F20FFF7A8F9BE
:1037A000A06D12F0B9FE0022F24B12E044212F204E
:1037B000FFF79EF9A06D12F0AFFE0022EE4B08E07D
:1037C00044212F20FFF794F9A06D12F0A5FE0022EE
:1037D000EA4B12F0DDFB12F05BFEFFF75AFA04E051
:1037E00025E040212F20FFF783F994F89F0094F8FB
:1037F000A250012821D01F211120FFF779F9402084
:10380000FFF77CF900F03F014020FFF771F900213C
:103810000F20FFF76DF900210D20FFF769F9012056
:1038200004F8540F607800B18DB1052010E0FFF767
:1038300065F940F080013120D5E71D211120FFF707
:1038400057F94020FFF75AF900F03301DCE7062072
:10385000BDE87040FFF7A3B910B5C94C94F8550006
:10386000002815D0012813D1FA211120FFF740F9C3
:103870004020FFF743F900F03F014020FFF738F9FF
:10388000032084F85400BDE810400720FFF787B9F3
:1038900010BD70B500250120FFF79CF9FF21112014
:1038A000FFF726F90520FFF77AF900240120FEF73B
:1038B000F6F82C20FFF722F900F00100A040641C6C
:1038C0000543E4B2202CF1D3FFF733FA284670BD4C
:1038D000AB48002100F87C1F417081814181704715
:1038E000A7487C307047A6485C307047A448A83091
:1038F0007047A3488C307047A14890F89F007047EC
:103900007CB5002401259E48CDE90054234622467B
:103910001B210C3003F059FA9948CDE900540023DB
:103920001A462D21183003F050FA9548CDE900547D
:1039300000231A461921243003F047FA9048CDE9B4
:10394000005400231A461421303003F03EFA8C480C
:10395000CDE9005400231A4613213C3003F035FA18
:103960008748CDE9005400231A460F21483003F060
:103970002CFA7CBD824810B50C3003F0CEFA80489A
:10398000183003F0CAFA7E48243003F0C6FA7C48A7
:10399000303003F0C2FA7A483C3003F0BEFA78487F
:1039A000BDE81040483003F0B8BA1CB50024744894
:1039B0000094234622461B210C30019403F005FAA3
:1039C0006F48002300941A462D211830019403F00B
:1039D000FCF96B48002300941A4619212430019405
:1039E00003F0F3F96648002300941A46142130309E
:1039F000019403F0EAF96248002300941A46132167
:103A00003C30019403F0E1F95D48002300941A462C
:103A10000F214830019403F0D8F91CBD010058482B
:103A200002D090F8A200704790F87600704701200D
:103A300070475449488070472DE9F041DFF84081D4
:103A4000D8F86C0012F068FD06460F462720FFF7F5
:103A500055F820F0F80012F05FFD00224A4B12F0FA
:103A600097FA04460D46B8F8700012F055FD22464C
:103A70002B4612F08DFA0022444B12F089FA0322F1
:103A800013F082F932463B4612F03EFB0022404BD7
:103A900012F092FD12F092F800223E4B12F078FAEA
:103AA000BDE8F04112F0F4BC04F04AB904F02DB9BD
:103AB0000A460146002004F043B970B50D4604469D
:103AC000FFF788F824B1012C0DD12946232006E008
:103AD0002B4890F87200002805D129463220BDE815
:103AE0007040FFF705B870BD4220FFF707B82548C2
:103AF0008168002901D0002008477047214881686B
:103B0000002901D00120084770471E48816800291C
:103B100001D00220084770471A488168002901D067
:103B2000032008477047174904208968084715484B
:103B30008168002901D005200847704770B5092029
:103B4000FEF7DCFF05460620FEF7D8FF0404072039
:103B5000FEF7D4FF44EA00240820FEF7CFFF2043FD
:103B600012F0DAFC002217E00082BE40005AC44086
:103B70000082CE408057D4408084DE40C058E4406C
:103B8000102C0020880000200000F03F000024409E
:103B900000408F4000001040174B12F00DFD12F056
:103BA00077FC044600210920FEF7A2FF3B20FEF728
:103BB000A5FF40F040013B20FEF79AFF3B20FEF7B7
:103BC0009DFF8006FAD40D48FFF763F83B20FEF70F
:103BD00095FF40F040013B20FEF78AFF3B20FEF7B7
:103BE0008DFF8006FAD429460920FEF781FF204682
:103BF000BDE87040FFF74DB880844E4000A1BC3353
:103C0000704708B501680091416800918168009192
:103C1000C168009101690091416900918169009139
:103C2000C0690090FEE7EFF3098004490860FCF7E3
:103C30003DBBFEE7FEE7FEE770470000AC0000205A
:103C40000CB500225D4900920192086840F4803072
:103C500008604FF4A043086800F400300190009819
:103C6000401C0090019810B900989842F3D1086860
:103C700080033FD5012001905148026842F00402C0
:103C80000260026842F002020260026842F0010231
:103C900002604A482430026842F080520260C21436
:103CA000484802604268D206FCD4444808300268A2
:103CB00002600268026002680260026822F47D020B
:103CC0000260026842F40D0202600A6842F08072EB
:103CD0000A600A689201FCD5016821F003010160C5
:103CE000016841F0030101600168C1F3810103290A
:103CF000FAD10CBD01920CBD304810B5016841F4F9
:103D0000807101602D4908310A682F4B1A400A6002
:103D100002682E4B1A400260026822F48022026080
:103D2000086820F47D000860091D00200860FFF786
:103D300087FF27494FF00060086010BD1F4B10B58A
:103D400008331868234910F00C00A3F104024FF463
:103D5000004405D004280AD008280AD00C280AD02C
:103D60001068C0F34230401C84400C601AE01A48CE
:103D700017E01A4815E018681A6800F47010154C1E
:103D800002F44002241D04EB90400078012404EB6F
:103D900092521C6814F4803F0ED0104C6043B0FB6C
:103DA000F2F0086018680B4AC0F303100D32105C83
:103DB0000A68C2400A6010BD074CEFE700380240B5
:103DC000003C0240007000400CC0FF88FEFFFEEE89
:103DD00008ED00E0B00000200024F400001BB70054
:103DE0000948804709480047FEE7FEE7FEE7FEE78F
:103DF000FEE7FEE7FEE7FEE7FEE7FEE704480549CB
:103E0000054A064B70470000F93C0008F500000821
:103E10003040002030460020304200203042002058
:103E20002849084328490860704730B50F23C278F5
:103E300001780125FAB1244A126801F1E02102F467
:103E4000E062C2F5E062C2F30722C2F10404D3408B
:103E50004278A24084781C401443220181F8002457
:103E6000007800F01F018D404009800000F1E02043
:103E7000C0F8005130BD01F01F00854048098000A6
:103E800000F1E020C0F8805130BD104A11400143DC
:103E90000D48001F016070470B4A121D0029116870
:103EA00001D0014300E08143116070474FF0E021F1
:103EB0000428086903D020F004000861704740F02E
:103EC0000400FAE70000FA050CED00E080FFFF1F98
:103ED000EE4910B588420AD144150121204601F06F
:103EE0009DF82046BDE81040002101F097B810BDB4
:103EF00030B54268E64B0C791A400B6842EA04225E
:103F0000134343608268E34B4D791A40D1E9034380
:103F100023438C6844EA4504234313438360026BC4
:103F2000097D22F0F872491EC9B242EA01510163CB
:103F300030BD00210160017141714FF04072C0E954
:103F400002120161012101757047D34A11680068AE
:103F500021F4403108431060704700210160704730
:103F60000029816802D041F0010101E021F0010146
:103F7000816070470029816802D041F0040101E0AE
:103F800021F0040181607047002A426801D00A4391
:103F900000E08A4342607047826822F0F0020A43E0
:103FA000826070474268BD4B1A400A4342607047C6
:103FB0008162C2627047426822F01F020A43426077
:103FC0007047B5490028086802D040F4000001E0BD
:103FD00020F400000860704770B507251D290AD934
:103FE000C66DA1F11E0404EB4404A540AE43A340FA
:103FF0001E43C66521E013290AD9C668A1F114043D
:1040000004EB4404A540AE43A3401E43C66014E045
:1040100009290AD90669A1F10A0404EB4404A54060
:10402000AE43A3401E43066107E0466901EB41042D
:10403000A540AE43A3401E4346611F23072A09D271
:10404000046C521E02EB820293409C4391400C434D
:10405000046470BD0D2A09D2C46BD21F02EB820228
:1040600093409C4391400C43C46370BD132A09D212
:10407000846B0D3A02EB820293409C4391400C43C7
:10408000846370BD192A09D2446B133A02EB820291
:1040900093409C4391400C43446370BD046B193AB8
:1040A00002EB820293409C4391400C43046370BD39
:1040B000816841F080418160704701460020896835
:1040C000490000D5012070470029816802D041F4E1
:1040D000806101E021F4806181607047002981687E
:1040E00002D041F0020101E021F00201816070473D
:1040F0004268491E22F4604242EA41314160704701
:104100000029416802D041F4006101E021F400611E
:1041100041607047806D80B270470029816802D08D
:1041200041F4807101E021F48071816070470029C1
:10413000816802D041F4007101E021F400718160D6
:10414000704770B507251D290AD9C66DA1F11E0457
:1041500004EB4404A540AE43A3401E43C66521E0E2
:1041600013290AD9C668A1F1140404EB4404A5403C
:10417000AE43A3401E43C66014E009290AD906696C
:10418000A1F10A0404EB4404A540AE43A3401E433E
:10419000066107E0466901EB4104A540AE43A34038
:1041A0001E434661436CC3F30154121B921C02EB85
:1041B00082021F249440A34391400B43436470BD8B
:1041C000426C491E22F4401242EA01514164704798
:1041D00008B508440090026008BD826822F470228D
:1041E0000A4382607047826822F440120A43826068
:1041F0007047816841F4800181607047014600206A
:104200008968490200D5012070470029416802D021
:1042100041F4806101E021F4806141607047002930
:10422000416802D041F4805101E021F480514160A5
:10423000704708B5084430300090006880B208BD6F
:1042400001238B4041680AB1194300E09943416062
:1042500070470246002012680A4200D001207047D1
:10426000C9430160704730B50246002053680C0A0C
:1042700001258D4011682B40214202D0002B00D037
:10428000012030BD6FEA1121016070470024014018
:10429000FFFEFFFCFDF7FFC004270140FFFD3FFFCD
:1042A00011480068000C70470F480068C0F30B000D
:1042B00070470D4A0029516801D0014300E0814355
:1042C00051607047084A0029916801D0014300E01D
:1042D000814391607047044A0029D16801D00143AD
:1042E00000E08143D1607047002004E035490020A0
:1042F0000860091D0860091D0860091D0860314932
:104300006FF07F4014310860704730B52D4A8379D3
:10431000016853B313688B431360111D0B68046865
:10432000A3430B60017911440B68046823430B60BD
:10433000244B083319680468A14319601C1D2168C7
:104340000568A94321604179102905D011440A6804
:10435000006802430A6030BD1968026811431960A1
:10436000216800680143216030BD00791044026873
:104370008A43026030BD0021016001710C2242714C
:10438000817170470F4910310A6802430A60704713
:1043900001460C4A0020143212680A4200D0012063
:1043A000704708491431086070470146054A0020EB
:1043B000143212680A4200D00120704701491431BA
:1043C0000860704700040140FA4A116821F00101B9
:1043D000014311607047F7490028086802D040F097
:1043E000020001E020F0020008607047F149002857
:1043F000086802D040F0040001E020F004000860EA
:104400007047EC490028086802D040F0080001E03D
:1044100020F0080008607047E648001D0068C007EB
:1044200005D0E448E4490C300160E449016070477C
:10443000E04800B5001D0068800707D5FFF7ECFFD6
:10444000DC48DF4910300160DE49016000BDD94819
:10445000001D016841F0020101607047D549042048
:1044600018310A68D20701D0012070470A68D205C6
:1044700001D502207047096811F4F05FFAD00320DB
:10448000704708B5034604208DF80000FFF7E6FFEB
:104490008DF8000004E0FFF7E1FF8DF800005B1EDF
:1044A0009DF80000012801D013B104E0002BF2D1E7
:1044B00005208DF800009DF8000008BD70B5054688
:1044C0004FF400463046FFF7DCFF042816D1B94C04
:1044D000241D206840F400702060206840F008002F
:1044E0002060002028603046FFF7CBFF216821F0D4
:1044F00008012160216821F40071216070BD70B550
:1045000005464FF400460C463046FFF7BAFF042834
:1045100004D12C603046BDE87040B2E770BDA548BC
:10452000001D016841F0010101607047A149091DAA
:104530000028086802D040F4807001E020F4807008
:104540000860704710B504464FF40040FFF799FF2C
:10455000042801D10021217010BD10B504464FF48C
:104560000040FFF78EFF042801D10021218010BDFB
:1045700010B504464FF40040FFF783FF042801D133
:104580000021216010BD70B505464FF400460C4671
:104590003046FFF776FF04280AD18648001D0168DF
:1045A00021F4807101602C603046BDE8704068E7FE
:1045B00070BD70B504464FF400460D463046FFF717
:1045C00060FF04281BD17B48001D016821F4807125
:1045D000016025B125703046BDE8704051E724F0F8
:1045E00003052E68A007C10EFF2088408643284699
:1045F000FFF7BEFF31462846BDE87040C3E770BDF7
:10460000F0B504464FF400470E463846FFF739FF31
:104610000546042828D16748001D016821F48071EF
:10462000016026B126803846FFF72BFF12E0E043F9
:10463000800711D024F003052E68A007C10E4FF6A5
:10464000FF70884086432846FFF792FF3146284690
:10465000FFF799FF054607E000212046FFF7A9FF75
:104660000021601CFFF7A5FF2846F0BD70B5044689
:104670004FF400460D463046FFF703FF042815D1DE
:1046800025B125703046BDE87040FAE624F00305F8
:104690002E68A007C10EFF20884086432846FFF7FA
:1046A00067FF31462846BDE870406CE770BDF0B545
:1046B00004464FF400470E463846FFF7E2FE054633
:1046C000042822D126B126803846FFF7DAFE12E010
:1046D000E043800711D024F003052E68A007C10E27
:1046E0004FF6FF70884086432846FFF741FF31466A
:1046F0002846FFF748FF054607E000212046FFF760
:1047000058FF0021601CFFF754FF2846F0BD70B52C
:1047100005464FF400460C463046FFF7B2FE04282B
:1047200004D12C603046BDE87040AAE670BD214837
:1047300000B5001D0068400707D5FFF76DFE1D4856
:104740002149143001602149016000BD1948001D54
:10475000016841F00401016070471648001D0168BE
:1047600041F480210160704770B504464FF4004564
:104770000E462846FFF785FE04282BD1144A906880
:1047800036B12043D16880B241EA144189B205E0D4
:10479000E1438BB21840D36803EA1141C34340EAB6
:1047A00003409060C84341EA0040D0602846BDE81D
:1047B000704066E6003C0240EFCDAB890504030281
:1047C000BFAE9D8C16151413C8D9EAFB27262524E5
:1047D0000000F81F70BD70B504464FF400450E464A
:1047E0002846FFF74EFE04281BD1B54A106936B1A2
:1047F0002043516980B241EA144189B205E0E143A6
:104800008BB21840536903EA1141C34340EA0340A5
:104810001061C84341EA004050612846BDE870403D
:104820002FE670BD70B504464FF400450E4628468D
:10483000FFF727FE04281BD1A14A906936B1204317
:10484000D16980B241EA144189B205E0E1438BB2FB
:104850001840D36903EA1141C34340EA0340906121
:10486000C84341EA0040D0612846BDE8704008E6F0
:1048700070BD70B504464FF400450E462846FFF75C
:1048800000FE04281CD18E4A52F8800F36B1204316
:10489000516880B241EA144189B205E0E1438BB22C
:1048A0001840536803EA1141C34340EA03401060D3
:1048B000C84341EA004050602846BDE87040E0E54A
:1048C00070BD30B505464FF400442046FFF7D9FDD2
:1048D0007B4A118801F47F412943CB4341EA0341DC
:1048E000042800D111602046BDE83040C9E570B50C
:1048F00004464FF400450E462846FFF7C2FD042843
:104900001BD16F4A906836B1E1438BB21840D3682F
:1049100003EA114105E02043D16880B241EA144125
:1049200089B2C34340EA03409060C84341EA004073
:10493000D0602846BDE87040A3E570BD70B5044660
:104940004FF400450E462846FFF79BFD04281BD177
:104950005B4A106936B1E1438BB21840536903EAF0
:10496000114105E02043516980B241EA144189B206
:10497000C34340EA03401061C84341EA004050612C
:104980002846BDE870407CE570BD30B504464FF464
:1049900000452846FFF775FD494A11780C43E1436D
:1049A00044EA0141042800D111602846BDE83040A6
:1049B00067E530B5434B1B680843C3F3034310431B
:1049C0001843C14340EA01444FF400452846FFF72D
:1049D00058FD042801D13A4844602846BDE83040DB
:1049E0004FE530B537490968F02202EA1141084322
:1049F000C14340EA01444FF400452846FFF741FD1A
:104A0000042801D12E4844602846BDE8304038E5EE
:104A100030B52C4909684FF40045C1F306410843FD
:104A2000C14340EA01442846FFF72BFD042801D189
:104A3000234844602846BDE8304022E5214800680C
:104A4000C0F3075070471F48001D006870471D489D
:104A50006430006870471B48683000687047194828
:104A60006C3000687047174900200968C9B2AA294C
:104A700000D00120704713490020096811F4807F9D
:104A800000D0012070470F480068C0F30340704712
:104A90000C4A183A0029116801D0014300E0814313
:104AA000116070470146074A0020121F12680A422F
:104AB00000D0012070470349091F086070470000BB
:104AC0000000F81F1C3C0240684910B5884206D11E
:104AD0000121084600F098FA0021012044E06449D1
:104AE000884206D10121022000F08EFA0021022026
:104AF0003AE06049884206D10121042000F084FA9E
:104B00000021042030E05C49884206D101210820C0
:104B100000F07AFA0021082026E05849884206D1A0
:104B20000121102000F070FA002110201CE05449EF
:104B3000884206D10121402000F066FA0021402081
:104B400012E05049884206D10121802000F05CFA31
:104B50000021802008E04C49884209D10121202011
:104B600000F052FA00212020BDE8104000F04CBABD
:104B700010BDF0B5002201274FF0030E0B6807FAB5
:104B800002F52B40AB4227D10668530091F804C0D0
:104B90000EFA03F4A6430CFA03FC4CEA060CC0F828
:104BA00000C00E79012E01D0022E0FD1866891F837
:104BB00005C0A6430CFA03FC4CEA060CC0F808C07A
:104BC0008688AE438D79954035438580C568A54379
:104BD000CC799C402C43C460521C102ACED3F0BD2B
:104BE0004FF6FF7101600021017141718171C17146
:104BF000704708B541F480320092C261C1610099EA
:104C0000C161C169C069009008BD02460020128AD6
:104C10000A4200D001207047008A704702460020F7
:104C2000928A0A4200D001207047808A704701832F
:104C30007047418370470AB10183704741837047D1
:104C400081827047828A4A40828270474B07DB0E1E
:104C50009A40C90810B500EB8100016A0F249C40FE
:104C6000A1430162016A1143016210BD00000240CC
:104C70000004024000080240000C02400010024004
:104C800000180240001C02400014024010B501212F
:104C90000C07204600F0CCF92046BDE8104000216A
:104CA00000F0C6B93B49086270473B4A116821F0E1
:104CB000E001014311607047364908617047354A89
:104CC00008B5A03210440090016008BD31498862E7
:104CD00070473049486270472F4A116821F4C0512B
:104CE000014321F00C00106070472B490028086830
:104CF00006D040F001000860086840F4804005E0FC
:104D000020F480400860086820F0010008607047C7
:104D1000214B1A6822F0030202431A601F480268FE
:104D200022F004020260012903D040BF20BF20BF4F
:104D3000704730BF7047184B1A6822F003020243D5
:104D40001A601648026842F004020260012905D088
:104D500020BF016821F004010160704730BFF8E70F
:104D60000D48016841F0020101600C48016841F002
:104D70000401016030BF7047074A014600205268B5
:104D80000A4200D00120704703490A6842EA8000C5
:104D90000860704700000E420070004010ED00E017
:104DA000C648016841F480710160C44908310A684D
:104DB000C34B1A400A600268C24B1A400260026884
:104DC00022F480220260086820F47D000860002040
:104DD000091D08607047B9490022891C0A700870D3
:104DE000704702460020510901290AD0B3493431E5
:104DF000096802F01F02012393400B4200D00120FA
:104E00007047AE49F4E718B500204FF4A044009075
:104E10003120FFF7E6FF0099491C0091A14201D023
:104E20000028F5D03120FFF7DCFF002800D001205A
:104E300018BDA249C91D08707047A04A121D11680B
:104E400021F460410143116070479F490862704737
:104E50009A4A121D116821F4F85141EA00201060AD
:104E600070479949086070479449002235310A70AB
:104E700008707047954908607047114301438F4897
:104E80000A30017070479049086670478E4908677C
:104E900070478E492C3108607047084387490B31B1
:104EA00008707047854A0832116821F003010143F8
:104EB0001160704781480830006800F00C007047AE
:104EC0007E4A0832116821F0F001014311607047F9
:104ED0007A4A0832116821F4E06101431160704799
:104EE000764A0832116821F4605141EAC00010602E
:104EF0007047724B30B508331968A3F1040211F002
:104F00000C014FF4004405D004290AD008290AD026
:104F10000C290AD01168C1F34231491C8C4004604D
:104F200019E06B4916E06B4914E019681A6801F43E
:104F30007011694C02F4400204EB9141097801249C
:104F400004EB92521C6814F4803F1DD0614C614305
:104F5000B1FBF2F1016019680F2202EA11115E4AF9
:104F60000932545C0168E14041601C68072505EA8C
:104F70001424145D21FA04F484601B6805EAD32329
:104F8000D25CD140C16030BD514CE0E7C0F301417B
:104F9000032907D1494B196800F0C04221F0C041F4
:104FA0000A431A60454934310A6822F440320A60E3
:104FB0000A6800F4403002430A60704743495831A0
:104FC0000860704741495C31086070473B4A1C32B9
:104FD0000029116801D0014300E08143116070474E
:104FE000364A20320029116801D0014300E0814394
:104FF00011607047314A24320029116801D0014301
:1050000000E08143116070472C4A1032002911687A
:1050100001D0014300E0814311607047274A1432F8
:105020000029116801D0014300E0814311607047FD
:10503000224A18320029116801D0014300E081435F
:10504000116070471D4A28320029116801D00143C0
:1050500000E0814311607047184A2C320029116822
:1050600001D0014300E0814311607047134A3032A0
:105070000029116801D0014300E0814311607047AD
:105080000E4A0D320029117801D0014300E081431E
:105090001170704709483430016841F08071016037
:1050A00070470146054A00200C3212680A4200D0BF
:1050B0000120704701490E310870704700380240E6
:1050C0000CC0FF88FEFFFEEE00004742800647420C
:1050D0000024F400001BB700CD00002018B500200C
:1050E000FA4B0090CA20186053201860F74918390D
:1050F000086820F0A0000860CC130868009A00F04F
:105100002000521C0092A24201D00028F5D008686D
:10511000800601D5012000E00020FF21196018BDA4
:1051200008B5EA490020183900900868400612D4F2
:105130004FF0FF3008604B140868009A00F0400000
:10514000521C00929A4201D00028F5D0086840060F
:1051500001D4002008BD012008BD78B50024DB4E35
:10516000CA2000942546306053203060FFF7D8FFF6
:10517000F0B3D64824380460D44942F201102039F3
:1051800008600B1D186800F0070018604D141A1D08
:105190001068009900F00400491C0091A94201D058
:1051A0000028F5D01068400729D518681C60C74949
:1051B0004FF6FF7010390860091FC5480860C348E2
:1051C0000C380460001D0460001D0460BF480830F6
:1051D0000460BE4818300460BC4820300460001DE4
:1051E00004601460B9481C300460FFF777FF00E0EA
:1051F00001E020B10125FF203060284678BD002560
:10520000F9E7B2481838016821F080010160704761
:1052100070B5AE4E04460025CA2030605320306081
:10522000FFF77EFFA8B1A9481C38016821F04001B2
:1052300001600168226811430160A448A168143824
:1052400001600168A28841EA02410160FFF7D9FFCD
:105250000125FF203060284670BD002101607F21BC
:105260004160FF2181607047984908B1FF2002E04A
:10527000CA20086053200860704770B5934E0546F9
:105280000024CA20306053203060FFF749FF60B12E
:105290008E481C38016815B141F0100101E021F081
:1052A00010010160FFF7ADFF0124FF2030602046B0
:1052B00070BD864ACA2111605321116083491C398F
:1052C0000028086802D040F0200001E000F0DF0074
:1052D0000860FF20106070472DE9F0410C46002661
:1052E0007C4F01002078396832464FEA416104D092
:1052F00000292FDA00F0FCFB2DE0002900DBE27032
:1053000000F0EAFB0504607800F0E6FB45EA0025C2
:10531000A07800F0E1FB0543E07845EA00456B4CDE
:10532000CA20206053202060FFF7FAFE68B16A4867
:105330000540684808380560FFF763FF3868800655
:1053400002D4FFF7CBFE00B10126FF2020603046DB
:10535000BDE8F081E270A078217840EA01456078EC
:10536000E178000240EA01400543D8E70021C1701E
:105370000170417081707047020010B557480C46AB
:105380000168554801EA0001C1F305402070C1F3EE
:105390000623637001F07F03A3704FF0400303EA1C
:1053A0001141E1700AD100F0A3FB2070607800F099
:1053B0009FFB6070A07800F09BFBA07010BD43487D
:1053C000001D00684349091F0968704770B50C4605
:1053D0000026010060780FD000F08AFBA07800F072
:1053E00087FBA078E17840EA0145607821780002E7
:1053F00040EA4130054315E0C10603D520F0100016
:105400000A306070E07800F067FB0504607800F017
:1054100063FB45EA0025A07800F05EFB0543207899
:1054200045EA4035294CCA20206053202060FFF710
:1054300077FE70B12A4805402648001F0560FFF737
:10544000E0FE24480068800602D4FFF747FE00B162
:105450000126FF202060304670BD0121017081705F
:1054600041700021C1707047020010B51D480C4604
:1054700001681B4801EA00014FEA1140E070C1F3E6
:105480000423637001F03F03A370C1F34231217024
:105490000AD100F02DFBE070607800F029FB60700D
:1054A000A07800F025FBA07010BD70B514460D4625
:1054B000084A0021002810684FEA406014D00028F4
:1054C0002BDA207800F014FB28E0000024280040AC
:1054D000FF007F00082800407F7F7F0000280040F9
:1054E0003FFFFF0004280040002800DBE170207827
:1054F00000F0F2FA0604607800F0EEFA46EA0026C0
:10550000A07800F0E9FA0643E07846EA0046207BFE
:1055100000F0E2FA46EA006010E0E170207B00F063
:10552000E7FAA0782178E27840EA01406178090240
:1055300041EA02410843217B40EA0160A168084337
:1055400061680843F849CA220A6053220A60B5F527
:10555000807F04D00A1F1060FF20086070BDF24AEF
:10556000083AF8E70021C170017041708170012292
:10557000816002734160704710B514460246B1F570
:10558000807F2AD0E848001F0168C1F305402070E1
:10559000C1F30623637001F07F03A370402303EA85
:1055A0001143E370C1F30563237301F0804301F0FD
:1055B0008031C4E90113002A0ED100F099FA20705D
:1055C000607800F095FA6070A07800F091FAA07011
:1055D000207B00F08DFA207310BDD3480838D3E744
:1055E00038B50022D04C0092CA2222605322226099
:1055F000CD4A1C3A0029116802D00143116012E023
:1056000081431160C84A183A55141168009B01EA99
:1056100010215B1C0093AB4201D00029F5D011682A
:1056200011EA102000D00120FF21216038BD10B503
:10563000BD4BCA241C6053241C601143B0F5807F0D
:1056400005D0B94824300160FF20186010BDB6486D
:105650002030F8E7B0F5807F05D0B34824300068EB
:10566000C0F30E007047B0482030F8E7AE4ACA21B8
:10567000116053211160AC491C390B6823F00703FA
:105680000B600B6803430B60FF2010607047A64956
:10569000CA220A6053220A60A34A103A1060FF200F
:1056A00008607047A0481038006880B2704718B58D
:1056B00000219D4B0091CA211960532119609A491C
:1056C0001C390028086803D040F48060086014E0AA
:1056D00020F480600860944918394C140868009AD6
:1056E00000F00400521C0092A24201D00028F5D024
:1056F0000868400701D4002000E00120FF21196064
:1057000018BD894B10B5CA221A6053221A60864A06
:105710001C3A146824F48024146014680843044379
:105720001460FF20186010BD7F481C38006800F42A
:10573000802070477C4B10B5CA221A6053221A6031
:10574000794A1C3A146824F4E0041460146808438D
:1057500004431460FF20186010BDF0B5724D06467A
:105760000024CA200F46286053202860FFF7D8FC89
:1057700030B16D483E430C380660FFF742FD01240E
:10578000FF2028602046F0BD70B5674E0546002416
:10579000CA20306053203060FFF7C2FC60B162481D
:1057A0001C38016815B141F0800101E021F0800151
:1057B0000160FFF726FD0124FF203060204670BD08
:1057C000594ACA2111605321116057491C390028D8
:1057D000086802D040F4000001E020F400000860F6
:1057E000FF2010607047504ACA2111605321116098
:1057F0004D491C390B6823F400230B600B680343ED
:105800000B60FF2010607047F0B5474D0023CA249D
:105810002C6053242C60444C183C2668F60307D5B2
:10582000A6142768FF0303D5B34201D05B1CF8E739
:105830002368DB0306D408433B4910431831086052
:10584000012000E00020FF212960F0BD364B10B59B
:105850001C3B1A6840F60804A24342EA000209B160
:1058600042F400623048CA210160532101601A608D
:10587000FF21016010BD70B50D462B4914460C3157
:1058800009682A4A1140284A103212684FF63F73BD
:105890001A40C1F305432B70C1F306236B7001F06E
:1058A0007F03AB70402303EA1141E9700021E170EE
:1058B000C2F30421617002F03F01A170C2F34231D2
:1058C0002170002817D1287800F012F92870687824
:1058D00000F00EF96870A87800F00AF9A8706078F6
:1058E00000F006F96070A07800F002F9A07020784E
:1058F00000F0FEF8207070BD0B481430006870474F
:10590000094A1C320029116803D041EA40001060A6
:10591000704721EA4000FAE7034A1C320029116867
:1059200006D0014305E00000242800407F7F7F006F
:1059300081431160704773490A6822F4C0520A60BB
:105940000A6802430A6070476E490A6822F4E062FE
:105950000A600A6802430A6070476A490A6822F4CA
:10596000C0420A600A6802430A607047654900281D
:10597000086802D040F0800001E020F0800008605C
:10598000704760490028086802D020F4004001E018
:1059900040F40040086070475A4A08B5103202EBE4
:1059A00080000090016008BD564908B5103101EB38
:1059B00080000090006808BD52490A6822F48022E5
:1059C0000A600A6802430A60704770B54D4C0022B5
:1059D000CA231C3C2360532323604A4B343B1D687D
:1059E0002D0707D55E141D682D0703D5B24201D0DF
:1059F000521CF8E71A6812070DD4424A383A126866
:105A0000D20608D401433F4814380160FFF766FB13
:105A100010B1012000E00020FF21216070BD30B5F1
:105A2000384DCA221C3D2A6053222A60354C20F092
:105A30000402383C0029334B216800F0040004D0F4
:105A4000114321601968014303E091432160196803
:105A500081431960FF20286030BD0246294900209B
:105A600034390968284B1940114200D00120704791
:105A7000C0F3100040F08000C1432248343802686F
:105A800002F080021143016070471E4A10B512688F
:105A9000002102F004031B4A383A1268840C20FAF1
:105AA00004F4024003EAD4331A43184B1B6803EA98
:105AB000101003D00004000C00D00121084610BDD6
:105AC000C0F30F1040F08000C1431048026802F09C
:105AD0008002114301607047002103E0491C0A382D
