:020000040800F2
:10000000F04E00209DA500081DA400081FA40008B4
:1000100000000000000000000000000000000000E0
:100020000000000000000000000000005736020839
:100030000000000000000000C701000831A4000813
:10004000AFA50008AFA50008E16B0108AFA5000847
:10005000AFA500086F6601088B660108A766010856
:10006000AFA50008AFA50008AFA50008AFA5000820
:10007000AFA50008AFA50008AFA50008F3780108F8
:10008000FD780108AFA50008AFA50008000000003A
:10009000AFA50008AFA50008AFA50008AFA50008F0
:1000A000AFA50008AFA50008AFA5000817760108A6
:1000B0000D760108AFA50008AFA50008AFA50008A0
:1000C00000F002F800F059F80CA030C808382418E5
:1000D0002D18A246671EAB4654465D46AC4201D180
:1000E00000F04BF87E460F3E0FCCB6460126334259
:1000F00000D0FB1AA246AB463343184778C0020033
:1001000098C002000023002400250026103A01D3E5
:1001100078C1FBD8520700D330C100D50B607047BF
:1001200010B5662902D129F089F910BD642902D1E0
:1001300025F02AFD10BD782902D125F05BFD10BD08
:10014000732902D127F06EFA10BD002010BD1FB533
:100150000098019926F087FF27F0EAFB04000020B1
:10016000002128F095FF401C60600020002128F04D
:10017000A5FFE0601FBD10B510BD27F094FF11462C
:10018000FFF7E5FF00F05CF828F014FA03B4FFF77E
:10019000F2FF03BC28F074FA064B19680868203097
:1001A00080F30988022080F314883FBCAE4662B613
:1001B00000BD000064030020EFF3108072B67047AA
:1001C00080F310887047EFF309800E4B1A682038CF
:1001D0001060F0C044464D4656465F46F0C008B534
:1001E00072B622F033FA62B60CBC1168086810309F
:1001F000F0C8A046A946B246BB4680F3098820381D
:10020000F0C818476403002070B505460C46164632
:1002100002E00FCC0FC5103E102EFAD2082E02D3EA
:1002200003CC03C5083E042E07D301CC01C5361FFD
:1002300003E021782970641C6D1C761EF9D270BD14
:100240001FB515F091FE02F07CF80020012301900B
:10025000029000930390034660227CA17E4821F027
:100260001CFF00200423019002900093039003469A
:10027000FF22813279A17C4821F00FFF0020032367
:1002800001900290009303900346FF22193277A158
:10029000794821F002FF0020022301900290009390
:1002A00003900346602275A1774821F0F6FE22F004
:1002B00083FB002004B010BD744A1060744A1160C2
:1002C00000BFFEE700BFFEE710B504460020206037
:1002D00025F0DAF915F061FE0DF02EF80DF0CEF8EC
:1002E0000DF0BCF8012108460DF053F810BD10B513
:1002F000044615F039FE25F069F910BDF1B582B05C
:1003000017F0AEFA002800D0FEBD17F04FFA002813
:1003100000D0F9E75F4902980968884202D95D4830
:10032000006802905C480069400840005A49086132
:10033000084681690298401E584A126850430C18BA
:1003400057480068844202D955480068241A72B69A
:1003500022F066FD00280FD14F4880694E49486160
:1003600008460069012108434B4908614B48006871
:10037000401E486162B666E0474844610020464935
:1003800088610846006901210843434908610298D1
:10039000019001A8FFF798FF0198002804D0BFF34F
:1003A0004F8F30BFBFF36F8F02A8FFF7A0FF3A480F
:1003B0000769780840003849086162B601200004E6
:1003C0003840002816D035490968491E324A9269DA
:1003D000A21A881A32490968884203D32F4909684A
:1003E000884202D92D490968481E2B494861029963
:1003F0004D1E13E029490298096848432649896936
:10040000461A26480168304625F0E8FE0546681C75
:10041000224909684843801B1F49486100201E4942
:10042000886123F071F91C480069012108431A49C9
:100430000861284622F098FB18480068401E1649BB
:10044000486123F06CF900BF5EE7000054696D65F8
:10045000725461736B000000712300084C6F52618D
:100460004D61635461736B000FFD01085374617437
:10047000655461736B000000851D0008556172743E
:100480005461736B00000000FD2700081C00002071
:1004900020000020BC03002000E000E0B8030020A2
:1004A000C003002070B588B004460E4668468480BC
:1004B00000258088FF380338002802D0012802D1A7
:1004C00000E000BF00E000BF00BF00231A4601A902
:1004D000F948006821F0C5FB012809D1012D04D19C
:1004E000002D02D00007F5494860002008B070BD1B
:1004F0000120FBE710B50446002C05D10021FF20A8
:100500000130FFF7CFFF06E0012C04D10021FF20CE
:100510000230FFF7C7FF10BD30B58DB005460C4661
:1005200068460583008B002806D0012807D00228E2
:1005300021D003287ED11FE02068079090E0A268B8
:1005400021686068059203910490049908910499C8
:10055000481C22F08BFF07906846017D06A80173B6
:10056000049A511C079825F0BBFD049A039907983B
:1005700025F050FD74E073E0182221466846FFF72D
:1005800043FE68460088012805D068460088FF21A0
:100590000631884224D1684601888183017C06A8FF
:1005A00001756846C18806A841816846017906A898
:1005B00001726846017A06A801736946097A481CE7
:1005C00022F054FF0A906A46127A511C0A9825F0CC
:1005D00087FD6B461A7A03990A9825F01BFD3DE0CA
:1005E00068460088132834D16846018881830179E0
:1005F00006A801726846017B06A801746946097B5A
:10060000481C22F033FF09906A46127B511C09985E
:1006100025F066FD6B461A7B0299099825F0FAFCD5
:100620006846017D06A801766946097D481C22F0CE
:100630001DFF00E013E00B906A46127D511C0B98E1
:1006400025F04EFD6B461A7D04990B9825F0E2FCCF
:1006500004E01822694607A8FFF7D6FD00E000BFB6
:1006600000BF00231A4606A99348006821F0E9F864
:10067000012802D100200DB030BD0120FBE701B5FB
:1006800069460020FFF748FF08BD0FB410B502A966
:100690000320FFF741FF10BC08BC04B01847F0B5B9
:1006A00085B007460E461446204622F0DFFE05467A
:1006B0002146284625F014FD002000900346804A7C
:1006C000214602950190304620F05BFE22462946E5
:1006D000384615F0C6FD0390284622F050FF0398D7
:1006E00005B0F0BD10B507F07FFC05F009F906F084
:1006F0004CF803F081FE734C902273492046FFF7BB
:10070000CEFF9034A62271492046FFF7C8FFA634D9
:1007100034226F492046FFF7C2FF34343B221201D6
:100720006C49204615F09DFD10BDFEB506460C46F1
:100730001546284622F09AFE07462946384625F0F7
:10074000CFFC2A463946304615F074FD0020009053
:1007500003465B4A294602940190384620F079FE10
:10076000384622F00CFF06225B49204625F07DFB2F
:10077000002801D00020FEBD0120FCE770B5012457
:10078000504D902250492846FFF7CFFF0440903546
:10079000A6224E492846FFF7C8FF0440A63534225A
:1007A0004B492846FFF7C1FF044034353B22120174
:1007B0004849284615F03EFD002C09D108F041F9C2
:1007C00008F0FBF808F0CCF804F0F0FBFFF78AFF24
:1007D000204670BDF8B505460E46174600240EE0CB
:1007E00000200090600041190A786846027049783C
:1007F00041701022002125F0FDFA3055641CBC42E6
:10080000EEDBF8BDF7B586B005460F46142233A1DE
:1008100001A8FFF7F9FC00240DE03E5D301101A9AD
:10082000085C610068543007000F01A9095C600092
:10083000401C2954641C08988442EEDB09B0F0BDCA
:10084000FFB58DB01D462148C77D0E9801780C91EB
:10085000169804780026FDE30D990C98085C214653
:10086000621CD4B268540C99481CC2B20C920D9808
:10087000405CBD2801D100F0C6FF43DC0A2875D0DA
:1008800010DCC01E072801D301F0E4F943007B44CB
:100890009B885B009F4452007A02DB02DE09BD03A5
:1008A0009A04FE04BA2801D100F0F6FE23DCB22837
:1008B0001ED100F074FE00005000002000ED00E0AA
:1008C0003E00002040060808400A0020D00A002010
:1008D000780B0020B00B00209494020830313233A2
:1008E000343536373839414243444546000000002C
:1008F000B928C9D1FCE3BB2801D100F002FFBC2814
:10090000C2D1F6E3BE381428BED243007B449B8894
:100910005B009F44BA07FB079F099F093C087D08BD
:100920008D08C008F9089F099F099F099F099F0921
:100930002D099F096E098709CF0502060C99481CED
:10094000C2B20C920D98465C012E01D0F22E7DD1E0
:100950000C99481CC2B20C920D98435CF22E06D141
:1009600002212046621CD4B2295404E0FEE3204652
:10097000611CCCB22E542046611CCCB22B54012FEA
:1009800007D0022F05D0032F03D0062F01D0072F49
:1009900027D1F748C0790101F548007A0007000F18
:1009A00001432046621CD4B22954F1488038808823
:1009B00001122046621CD4B22954ED4880380179D6
:1009C0002046621CD4B22954702018400101E84826
:1009D000407A0007000F01432046621CD4B229541C
:1009E000D3E1042F05D0052F03D0082F01D0092F04
:1009F000F6D1E048C0790001DE49097A0907090FFC
:100A00000843C1B22046621CD4B229545900D948C7
:100A10008438405A01122046621CD4B2295459002D
:100A2000D4488438415C2046621CD4B229547020DA
:100A300018400001CF49497A0907090F0843C1B29C
:100A40002046621CD4B229549FE1FFE7022E7CD1DC
:100A500000210991089107910491059106910C9943
:100A6000481CC2B20C920D98435C012F07D0022F94
:100A700005D0032F03D0062F01D0072F05D1BC4886
:100A800080388088694608821EE0BB48C07D042803
:100A900007D0B948C07D052803D0082F01D0092F01
:100AA00012D100200B900CE00B984100B148843823
:100AB000415A0B98400004AA11520B98401CC1B235
:100AC0000B910B980628EFDB0C99481CC2B20C92D4
:100AD0000D98405C41B2089108980107090F0991EF
:100AE00008980006010F08910C99481CC2B20C929C
:100AF0000D98405C01020A910C99481CC2B20C92FC
:100B00000D98415C0A9801430A910C99481CC2B2A5
:100B10000C920D98415C079107984006430F079887
:100B20000107090F07910798002801D101200790BC
:100B3000012F07D0022F05D0032F03D0062F01D09D
:100B4000072F2FD100200B9014E019E1062B0DD1B7
:100B50000B98C1008648FC384058002806D0012078
:100B60000B9988400A99084380B20A900B98401C60
:100B7000C1B20B91814909780B988842E6DB68463F
:100B80000A9901820898C1B27948C1710998C1B225
:100B900077480172079941726846018A7448803823
:100BA0008180DBE0042F03D0052F01D0082F71D105
:100BB000062B34D100210391029126E00020019000
:100BC00018E0019903984018C1006948FC38405862
:100BD00000280BD00298400004A9095A012201986C
:100BE000824011430298400004AA11520198401C0F
:100BF000C1B2019101981028E3DB03981030C1B213
:100C000003910298401CC1B202915C4800780838F8
:100C100003998842D2DC69460A9808830FE0072BC3
:100C200009D100216846018241828182C1826946E0
:100C30000A98088303E0590004AA0A9850520898B9
:100C4000C1B24C48C1710998C1B24A4801724949C0
:100C5000079848726846018A464888388180684605
:100C6000418A4448843841806846818A41488438B2
:100C700081806846C18A3F488438C1806846018BBC
:100C80003C48843801816846418B3A488438418128
:100C900064E0FFE7092F61D1062B30D100210391D9
:100CA000029126E00020019018E001990398401875
:100CB000C1002F48FC38405800280BD00298400053
:100CC00004A9095A01220198824011430298400068
:100CD00004AA11520198401CC1B201910198102838
:100CE000E3DB03981030C1B203910298401CC1B2FB
:100CF00002912249097803988842D3DB05E0072B4B
:100D000003D0590004AA0A9850520898C1B2194851
:100D1000C1710998C1B21748017216490798487203
:100D20006846018A1348883881806846418A11489C
:100D3000843841806846818A0E48843881806846BC
:100D4000C18A0C488438C1806846018B09488438C0
:100D500001816846418B074884384181F221204651
:100D6000621CD4B229542046611CCCB22B540CE036
:100D7000B80C0020400F0020D00A002024000020E2
:100D800000262046611CCCB22E54FDE30C99481C71
:100D9000C2B20C920D98465C012E01D0F22E2BD1DE
:100DA000F22E05D102202146621CD4B2685403E021
:100DB0002046611CCCB22E54012F07D0022F05D043
:100DC000032F03D0062F01D0072F06D1FA488079D0
:100DD0002146621CD4B2685438E0042F05D0052F98
:100DE00003D0082F01D0092F30D1F4488079214653
:100DF000621CD4B2685429E0022E22D10C99481CFE
:100E0000C2B20C920D98435C012F07D0022F05D07F
:100E1000032F03D0062F01D0072F02D1E64883719C
:100E200009E0042F05D0052F03D0082F01D0092F8A
:100E300001D1E2488371F2212046621CD4B22954C8
:100E400004E000262046611CCCB22E549DE70C998C
:100E5000481CC2B20C920D98465C012E01D0F22EB5
:100E600079D1F22E05D102202146621CD4B26854F9
:100E700003E02046611CCCB22E54012F07D0022F74
:100E800005D0032F03D0062F01D0072F2DD1CA483C
:100E9000007B0101C848007D0007000F0143C8B274
:100EA0002146621CD4B26854C3490869642125F004
:100EB00095F9000E2146621CD4B26854BE490869F7
:100EC000642125F08BF90002000E2146621CD4B289
:100ED0006854B9490869642125F080F90004000EBE
:100EE0002146621CD4B2685492E0042F05D0052F2D
:100EF00003D0082F01D0092F2BD1B048007B00016F
:100F0000AE49097D0907090F08432146621CD4B286
:100F10006854AA490869642125F060F9000E214649
:100F2000621CD4B26854A5490869642125F056F9B9
:100F30000002000E2146621CD4B268549F49086921
:100F4000642125F04BF90004000E2146621CD4B246
:100F500068545DE0FFE7022E55D100BF00BF00BF1F
:100F60000D990C98085C4006410F0A910D990C9858
:100F7000085C0107090F0B910C98401CC1B20C9141
:100F80000C99481CC2B20C920D98405C03040C9959
:100F9000481CC2B20C920D98405C01020B430C99A4
:100FA000481CC2B20C920D98415C0B436420434331
:100FB000012F07D0022F05D0032F03D0062F01D019
:100FC000072F09D10A98C1B27B4801730B98C1B2AF
:100FD00079480175036110E0042F05D0052F03D077
:100FE000082F01D0092F08D10A98C1B273480173A4
:100FF0000B98C1B2714801750361F2212046621C51
:10100000D4B2295404E000262046611CCCB22E54F0
:10101000BBE60C99481CC2B20C920D98465C012E9E
:1010200001D0F22E66D1012F07D0022F05D0032F59
:1010300003D0062F01D0072F4CD10C99481CC2B207
:101040000C920D98415C0B91F22E07D102202146A3
:10105000621C00E0FEE3D4B2685403E02046611C49
:10106000CCB22E542146621CD4B20B9868540B9912
:10107000CA005149FC398858642125F0AFF80002B4
:10108000000E2146621CD4B268540B99CA004A492A
:10109000FC398858642125F0A1F80004000E21468F
:1010A000621CD4B268540B99CA004349FC39885871
:1010B000642125F093F82146621CD4B268540B9841
:1010C000C1003D48FC38081800792146621CD4B2A2
:1010D00068547AE0042F05D0052F03D0082F01D0E3
:1010E000092F72D100202146621CD4B268546CE0F2
:1010F0009DE247E3022E63D100BF00BF00BF0C9901
:10110000481CC2B20C920D98405C41B20B910C99F4
:10111000481CC2B20C920D98405C03040C99481C08
:10112000C2B20C920D98405C01020B430C99481C12
:10113000C2B20C920D98415C0B43642019464143A6
:101140000B460C99481CC2B20C920D98415C0A9156
:10115000012F07D0022F05D0032F03D0062F01D077
:10116000072F1AD10B98C100134800E001E1FC38A9
:1011700043500A9841B20B98C2000F48FC3810182F
:101180000171F2212046621CD4B229540B98C1B2DD
:101190002046621CD4B229540CE0042F05D0052F40
:1011A00003D0082F01D0092F04D100212046621C52
:1011B000D4B2295409E003E0B80C0020400F00200D
:1011C00000262046611CCCB22E54DEE50C99481C4A
:1011D000C2B20C920D98465C012E01D0F22E2BD19A
:1011E000F22E05D102202146621CD4B2685403E0DD
:1011F0002046611CCCB22E54012F07D0022F05D0FF
:10120000032F03D0062F01D0072F06D1F748C07A4D
:101210002146621CD4B268543BE0042F05D0052F50
:1012200003D0082F01D0092F33D1F148C07A2146CD
:10123000621CD4B268542CE0022E25D100230C99F4
:10124000481CC2B20C920D98405C03071B0F012F83
:1012500007D0022F05D0032F03D0062F01D0072F70
:1012600002D1E248C37209E0042F05D0052F03D054
:10127000082F01D0092F01D1DD48C372F221204689
:10128000621CD4B2295404E000262046611CCCB272
:101290002E547AE50C99481CC2B20C920D98465C0B
:1012A000012E01D0F22E2AD1062F01D0072F20D1F6
:1012B000F22E05D102202146621CD4B2685403E00C
:1012C0002046611CCCB22E54C848007E400120212B
:1012D0000840C649497E0901102211400843C3490C
:1012E000897E0907090F08432146621CD4B268545D
:1012F0003EE000202146621CD4B2685438E0022E41
:1013000031D100230C99481CC2B20C920D98435C59
:10131000012F07D0022F05D0032F03D0062F01D0B5
:10132000072F12D1202018404111B048017610201B
:1013300018400111AD4841761907090F8176F22155
:101340002046621CD4B229540CE0042F05D0052F8E
:1013500003D0082F01D0092F04D100212046621CA0
:10136000D4B2295404E000262046611CCCB22E548D
:101370000BE50C99481CC2B20C920D98465C012EEC
:1013800001D0F22E4AD1062F01D0072F40D10C995F
:10139000481CC2B20C920D98415C0B91F22E05D103
:1013A00002202146621CD4B2685403E02046611C2E
:1013B000CCB22E542146621CD4B20B9868540B99BF
:1013C0008A008A491C318858642124F007FF0002F2
:1013D000000E2146621CD4B268540B998A008349DE
:1013E0001C318858642124F0F9FE0004000E2146C7
:1013F000621CD4B268540B998A007C491C3188580D
:10140000642124F0EBFE2146621CD4B2685450E003
:1014100000202146621CD4B268544AE0022E43D117
:101420000C99481CC2B20C920D98415C0B910C991E
:10143000481CC2B20C920D98405C03040C99481CE5
:10144000C2B20C920D98405C01020B430C99481CEF
:10145000C2B20C920D98415C0B4364201946414383
:101460000B46012F07D0022F05D0032F03D0062FE4
:1014700001D0072F0AD10B9881005C481C304350E3
:10148000F2212046621CD4B229540CE0042F05D06E
:10149000052F03D0082F01D0092F04D100212046A9
:1014A000621CD4B2295404E000262046611CCCB250
:1014B0002E54D5E30C99481CC2B20C920D98465C90
:1014C000012E01D0F22E12D1F22E05D1022021469A
:1014D000621CD4B2685403E02046611CCCB22E5486
:1014E0004448407B2146621CD4B2685414E0022E6A
:1014F0000DD10C99481CC2B20C920D98405C3D492C
:101500004873F2202146621CD4B2685404E00026DD
:101510002046611CCCB22E54A2E302210B910C99FF
:10152000481CC2B20C920D98465C012E01D0F22EDE
:101530001AD1F22E05D102202146621CD4B2685481
:1015400003E02046611CCCB22E5402220AA92A488C
:10155000FFF740F9291908A8007A087008A8407A0E
:101560004870A01CC4B219E0022E12D10D9A0C983A
:10157000111802222048FFF745F90C98801CC1B2CF
:101580000C91F220214600E000E2621CD4B26854C3
:1015900004E000262046611CCCB22E5460E30421F6
:1015A0000B910C99481CC2B20C920D98465C012E0E
:1015B00001D0F22E22D1F22E05D102202146621C4A
:1015C000D4B2685403E02046611CCCB22E540422ED
:1015D0000AA908485B30FFF7FDF8281904220AA978
:1015E00024F018FD201DC4B220E00000B80C00203B
:1015F000400F0020D00A0020A20A0020022E10D1A5
:101600000D9A0C9811180422FA48FFF7FBF80C9871
:10161000001DC1B20C91F2202146621CD4B2685464
:1016200004E000262046611CCCB22E5418E30C992D
:10163000481CC2B20C920D98465C012E01D0F22ECD
:1016400013D1F22E05D102202146621CD4B2685477
:1016500003E02046611CCCB22E54E6485B38007B88
:101660002146621CD4B2685415E0022E0ED10C99AA
:10167000481CC2B20C920D98405CDE495B3908737D
:10168000F2202146621CD4B2685404E000262046B1
:10169000611CCCB22E54E3E20C99481CC2B20C92ED
:1016A0000D98465C012E01D0F22E13D1F22E05D1F9
:1016B00002202146621CD4B2685403E02046611C1B
:1016C000CCB22E54CB485B38807D2146621CD4B20C
:1016D000685415E0022E0ED10C99481CC2B20C922F
:1016E0000D98405CC3495B398875F2202146621C25
:1016F000D4B2685404E000262046611CCCB22E54BB
:10170000AEE210210B910C99481CC2B20C920D98BC
:10171000465C012E01D0F22E1AD1F22E05D1022004
:101720002146621CD4B2685403E02046611CCCB24E
:101730002E54102207A9AF480930FFF74BF828199B
:10174000102207A924F066FC20461030C4B218E02D
:10175000022E11D10D9A0C9811181022A5480930AB
:10176000FFF750F80C981030C1B20C91F2202146CE
:10177000621CD4B2685404E000262046611CCCB23E
:101780002E546DE210210B910C99481CC2B20C92A0
:101790000D98465C012E01D0F22E1AD1F22E05D101
:1017A00002202146621CD4B2685403E02046611C2A
:1017B000CCB22E54102207A98E482A30FFF70AF81F
:1017C0002819102207A924F025FC20461030C4B2A5
:1017D00018E0022E11D10D9A0C981118102285488C
:1017E0002A30FFF70FF80C981030C1B20C91F2209C
:1017F0002146621CD4B2685404E000262046611CD5
:10180000CCB22E542CE208210B910C99481CC2B288
:101810000C920D98465C012E01D0F22E1BD1F22EB7
:1018200005D102202146621CD4B2685403E0204650
:10183000611CCCB22E54082209A96E484338FEF729
:10184000C9FF2819082209A924F0E4FB2046083022
:10185000C4B219E005E2022E11D10D9A0C981118AC
:10186000082264484338FEF7CDFF0C980830C1B217
:101870000C91F2202146621CD4B2685404E0002688
:101880002046611CCCB22E54EAE108210B910C9940
:10189000481CC2B20C920D98465C012E01D0F22E6B
:1018A0001AD1F22E05D102202146621CD4B268540E
:1018B00003E02046611CCCB22E54082209A94D48F1
:1018C0001138FEF787FF2819082209A924F0A2FB86
:1018D00020460830C4B218E0022E11D10D9A0C989F
:1018E0001118082243481138FEF78CFF0C98083075
:1018F000C1B20C91F2202146621CD4B2685404E0BB
:1019000000262046611CCCB22E54A9E110210B9177
:101910000C99481CC2B20C920D98465C012E01D065
:10192000F22E1AD1F22E05D102202146621CD4B229
:10193000685403E02046611CCCB22E54102207A943
:101940002C483238FEF746FF2819102207A924F048
:1019500061FB20461030C4B218E0022E11D10D9A5E
:101960000C981118102223483238FEF74BFF0C98C0
:101970001030C1B20C91F2202146621CD4B26854DE
:1019800004E000262046611CCCB22E5468E10C997C
:10199000481CC2B20C920D98465C012E01D0F22E6A
:1019A00013D1F22E05D102202146621CD4B2685414
:1019B00003E02046611CCCB22E540E485B38C07D3B
:1019C0002146621CD4B2685421E0022E1AD10C992F
:1019D000481CC2B20C920D98435C0E2B0CDA002B03
:1019E0000AD004485B38C375F2212046621CD4B289
:1019F000295406E02B0B002000262046611CCCB2A7
:101A00002E5404E000262046611CCCB22E5427E15F
:101A10000C99481CC2B20C920D98465C012E06D05F
:101A2000022E04D000262046611CCCB22E5417E1B1
:101A30000C99481CC2B20C920D98465C012E01D044
:101A4000F22E12D1F22E05D102202146621CD4B210
:101A5000685403E02046611CCCB22E54FE48C07A84
:101A60002146621CD4B2685414E0022E0DD10C99A8
:101A7000481CC2B20C920D98405CF749C872F22023
:101A80002146621CD4B2685404E000262046611C42
:101A9000CCB22E54E4E007210B910C99481CC2B241
:101AA0000C920D98465C012E01D0F22E13D1F22E2D
:101AB00005D102202146621CD4B2685403E02046BE
:101AC000611CCCB22E5428190722E44924F0A2FA52
:101AD000E01DC4B217E0022E10D10D9A0C98111817
:101AE0000722DE4824F096FA0C98C01DC1B20C9172
:101AF000F2202146621CD4B2685404E0002620463D
:101B0000611CCCB22E54ABE013210B910C99481CF4
:101B1000C2B20C920D98465C012E01D0F22E19D162
:101B2000132206A9CE48FEF755FEF22E05D102205B
:101B30002146621CD4B2685403E02046611CCCB23A
:101B40002E542819132206A924F064FA20461330D3
:101B5000C4B20CE0022E05D100262046611CCCB296
:101B60002E5404E000262046611CCCB22E5477E0AF
:101B70000C99481CC2B20C920D98465C012E05D1FE
:101B800000262046611CCCB22E5431E0022E2AD110
:101B9000FEF7A8FDFEF7F2FD0F990D9824F0A0FACC
:101BA000224629460D9824F035FA01210B9116980A
:101BB00001780A910AA80090A01EC2B22B460BA978
:101BC0000D98FEF73DFECC2108A8027A501CC3B246
:101BD0000A93A95408A8017A481CC2B20A926E540A
:101BE00008A8047A04E000262046611CCCB22E54DA
:101BF00036E00C99481CC2B20C920D98465C012E3E
:101C00000FD0022E08D1FEF7B9FDFEF76BFD20467E
:101C1000611CCCB22E5404E000262046611CCCB2DC
:101C20002E541DE000BF00BF00BF00BF00BFBFF3C8
:101C30004F8F00BF00BF00BF8A488B49C86000BFFC
:101C400000BF00BFBFF34F8F00BF00BF00BF00BF8A
:101C500000BFFDE700262046611CCCB22E5400BF19
:101C600000BF0F990C98884201DAFEF7F5FD002EAF
:101C700004D116980470002011B0F0BD16980470BD
:101C80000120F9E7FFB587B005460C4674E02178DE
:101C9000481C20706E5CD02E04D0D12E03D0D22EE2
:101CA00066D141E000BF00210491FF20013021F006
:101CB000DDFB0746FF210131384624F011FA684662
:101CC000017C481CC2B204927E541098017811988D
:101CD000401E814217DA10980178481CC2B2109851
:101CE00002700A984654D02E0CD160480078012822
:101CF00008D104A83B46009021462846099AFEF7E1
:101D00009FFD00E000BF05976846017C0176022137
:101D100041760021C17605A9FF20013017F0B4F902
:101D2000384621F02CFC26E01420694688800420E7
:101D300021F09CFB0390042101A80173D221039898
:101D400001702178481C2070695C039841702178EB
:101D5000481C2070695C039881702178481C2070B1
:101D6000695C0398C17001A90320FEF7D5FB02E06E
:101D700000200BB0F0BD00BF21780998814286DBBE
:101D80000120F6E788B03A4814F035FD39481DF0D7
:101D900099FF39481DF099FF00221C2105201FF0F2
:101DA00082FC3649086008460068002802D172B6F5
:101DB00000BFFEE708F01AFA00BF00235A1E01A96F
:101DC0002E4800681FF04DFE01A808F030FAF4E735
:101DD000417800290CD10178002904D0012903D0D1
:101DE000032903D101E002E001E000E000BF00BFF1
:101DF0000121234A1170704710B58EB004466078F7
:101E0000002801D00EB010BD2078002806D001288F
:101E100005D0022844D0032843D140E000BFA07C75
:101E2000012807D109206946088102A90320FEF78D
:101E300073FB00BF13480078002802D0E078002828
:101E40002CD1012168460184E18908A8C180A168DC
:101E50000B91E178017417E0D00A0020470A0020B6
:101E60007C9402080400FA0500ED00E05D0000200B
:101E7000F50400088B060008851C000850000020AF
:101E80005C000020F8040020217B0172207C41B21C
:101E900008A8017108A90320FEF73EFB02E001E05B
:101EA00000E000BF00BFFE480078012804D1FC48D4
:101EB0008089401CFA498881607B01287DD1207B84
:101EC00000287AD0E078012804D0022803D0E02846
:101ED00074D101E000BFB1E0F148007800283CD1A6
:101EE000207B042838D1A06800780128FAD1A068A6
:101EF00040780128F6D1A06880780128F2D1A06846
:101F0000C0780128EED10020E6490870E020E649BB
:101F100008700220E54908700020E1498881887333
:101F2000C873087401200870487002216846017562
:101F30000121017605A81DF096FBDD4800780328F5
:101F400002D100201DF0B8FE01204002694608843D
:101F500008A90320FEF7E0FA6EE0A0680078D049F7
:101F6000487008464078030026F06BFE07052C30C9
:101F7000363D515864000020CA4908700220CA4901
:101F800008701020C94908700020C5498881087070
:101F90000221684601750121017605A81DF063FB49
:101FA000C3480078032802D101201DF085FEC148F6
:101FB0006946088408A9032001E040E03DE0FEF7FF
:101FC000ABFA38E00220B949087034E00120B54985
:101FD0000870B34948702EE00020B2490870012013
:101FE000AF49487027E0207BB04908700420B2490F
:101FF0000870012006E0A168095C491CAE4A115432
:10200000411CC8B2A94909788842F4DB13E00120D9
:102010006946087101A81DF0F4FC0CE00020A049FD
:102020000870A448401C6946088408A90320FEF7EC
:1020300073FA00E000BF00BF00E000BF00BF00BFB8
:10204000E0E610B586B004466078002842D12078DA
:10205000002804D0012806D0022839D126E001202A
:102060009649087035E08E480078012806D18C49E1
:102070008873207CC873607C087416E0152069465C
:102080000880032021F0F2F90290032168460173D1
:10209000022102980170217C02984170617C0298B3
:1020A000817069460320FEF737FA12E01620694670
:1020B0000880012021F0DAF90290012168460173BD
:1020C0000D210298017069460320FEF725FA00E011
:1020D00000BF00BF01207949087006B010BD01465D
:1020E000022902D0E0293CD10CE0002004E00022CB
:1020F000714B1A54421CD0B21028F8DB10206B4AE6
:1021000010702FE06648807B012812D10020644ABD
:1021100090730320654A10700520674A107060486C
:10212000C07B50705E48007C907001205C4A50700B
:1021300016E05B484078012805D004280FD1012023
:10214000574A50700BE00220584A1070544880895A
:102150000012594A10705248007B507000BF00BFF7
:1021600000E000BF00BF70474D48007870470EB5D3
:1021700004206946087068461DF0F0F9019806F0E1
:1021800025FD4B481EF02DFF4D48807D002801D0D5
:1021900002F032F90EBD4B49087070473EB507207A
:1021A00043490870087203244548C07D012801D1C5
:1021B00000240AE04248C07D022801D1012404E045
:1021C0003F48C07D032800D10224002015E01421DF
:1021D00061433D4A891882008A58C30034490C3152
:1021E000CA505022C30059180A710022C300304956
:1021F0000C3159184A71411CC8B20428E7DB0F2181
:102200002B4888308180142060432F494018016991
:102210002E4801610B2101750521C1710121017059
:1022200002214170002181704021C1702021017183
:102230000021417181710172012141720521817278
:102240000121C172002101730721817600210176ED
:102250004176002006E0002283001C491C31CA5050
:10226000411CC8B21028F6DB114819F0F4FEFEF745
:1022700085FA002168460170022101711DF0F3F911
:102280000321684601700020019068461DF0EBF9BB
:102290000421684601701022002109485B3017E0D4
:1022A000F8040020560000205400002055000020B3
:1022B000B00B002001020000B80400205C000020E8
:1022C000D00A00205D000020589B0208B80C0020B6
:1022D00023F090FD019068461DF0C5F90521684680
:1022E00001700A48019068461DF0BDF90621684654
:1022F00001700748019068461DF0B5F90121684654
:10230000017001711DF0AFF93EBD0000489B02084D
:10231000389B020800B587B000200690002306AA6B
:102320006946C24800681FF09CFC0698012806D147
:102330000698002803D001200007BD49486007B077
:1023400000BD10B5002218210A201FF0ACF9B749D2
:10235000086001201FF01CFBB64908607821B648D0
:1023600023F0C0FE15F037FAB44815F031FA10BD6D
:1023700086B000BF0024002500235A1E6946AB48E2
:1023800000681FF06EFB00BF00235A1E1946A948C3
:1023900000681FF066FB012867D100BF5BE01820D2
:1023A0006043A54940180079012809D118206043ED
:1023B00040188068401E182161439F4A8918886030
:1023C000182060439C4940188068002841D118209B
:1023D00060434018007901283BD1182060430E5813
:1023E00001251820604340184069002806D01820B5
:1023F00060430A4680184169304688471820604388
:102400008D494018007C012809D1182060434018EC
:10241000C16818206043884A8018816018E0002154
:1024200018206043844A801881601820604311504E
:10243000182060438018C160182060438018017420
:102440001820604380180171182060438018416192
:1024500000BF601CC4B2052CA1DB00231A4619463C
:10246000744800681FF0EDF901E000BFFEE7012DA0
:1024700015D1002410E0182060436F4940180079FE
:10248000012800D10AE0042C04D115F0E4F9002061
:102490006B490870601CC4B2052CECDB00BF69E717
:1024A000FFB587B006460D461746002403950495F0
:1024B000684607750196012101720A98069000236B
:1024C0008A1E19465B4800681FF0CBFA01282BD101
:1024D00000BF1EE0182060435749401800790028CB
:1024E00011D118216143544A8818182201A9FDF717
:1024F0008BFE53480078002804D115F0A7F901207D
:102500004F49087007E0042C01D100BFFEE7601CB2
:10251000C4B2052CDEDB00BF00231A46194645482D
:1025200000681FF08EF901E000BFFEE7182060434D
:10253000414940180BB0F0BD70B50446002C00D1E5
:1025400070BD00235A1E19463A4800681FF089FAE8
:10255000012826D125460020A860E860287428605C
:1025600028716861002600BF10E0182070433249CE
:1025700040180079012800D10AE0042E04D115F09A
:102580006AF900202E490870701CC6B2052EECDBDB
:1025900000BF00231A461946264800681FF051F96B
:1025A00001E000BFFEE70020CAE770B50446002C3A
:1025B00000D170BD00235A1E19461E4800681FF046
:1025C00050FA012809D12646B56800231A46194653
:1025D000184800681FF035F901E000BFFEE7284603
:1025E000E7E770B50446002C00D170BD00235A1EE9
:1025F0001946104800681FF034FA01280AD1254610
:10260000E868A86000231A4619460A4800681FF0C7
:1026100018F901E000BFFEE70020E6E710B515F06D
:1026200015F910BD10B515F016F910BD60000020A9
:1026300000ED00E0640000200C05002015230008D8
:102640006800002070B586B005460E461446684600
:10265000858186738089030026F0F3FA052104073B
:102660000506240000BF00BF1DE0616820680291DC
:1026700001906A46117A03A80172117A481C20F071
:10268000F5FE04906A46127A511C049823F028FD46
:102690006B461A7A0199049823F0BCFC03E0206889
:1026A000049000E000BF00BF00231A4603A9F848C9
:1026B00000681FF0C6F8012802D1002006B070BDE6
:1026C0000120FBE770B50546F248407801280DD19E
:1026D000284623F021FCC6B2002404E0295DED4821
:1026E00014F004FF641CB442F8DB00BF70BD10B5E9
:1026F0000446E9A0FFF7E6FF01201FF0F4FE0022E8
:1027000011460120FFF79EFF10BDFEB504460D46A1
:10271000164668460480857000270088FF38023816
:10272000002803D130786946087100E000BF00BF7F
:1027300000231A466946D64800681FF092FA01281D
:1027400008D1012F04D1002F02D00007DA494860D8
:102750000020FEBD0120FCE710B5D8480068002825
:102760000CD1D7480068002808D10120D44908605E
:1027700000221146FF200330FFF7C7FF10BD10B540
:10278000D0480078002811D1CE4806F045FACD484F
:1027900000787D22D20050430146CB4B0022C7482F
:1027A0000068FFF77DFEC549086003E0C348006884
:1027B000FFF717FF10BD37B505460C46002C06D1B4
:1027C00002AA2946FF200130FFF79FFF07E0012CF6
:1027D00005D102AA2946FF200230FFF796FF3EBD31
:1027E0001CB504460094204623F096FB6946087108
:1027F0006A4600210220FFF725FF1CBD86B0542247
:10280000B249A448FDF700FD5422B149A148543013
:10281000FDF7FAFC00209F49487000219D48543084
:102820004170AC4814F043FE00220C210F201EF032
:102830003AFF9749086008460068002802D172B63E
:1028400000BFFEE700BF00235A1E03A9904800689E
:102850001FF007F96846808904287AD008DC002830
:102860000FD0012876D0022875D0032874D176E2E3
:10287000FF380138002870D001286FD00228F5D128
:1028800087E290480078002805D0934813F0C9FEED
:102890000020914948809149049808606846807BEF
:1028A000542148437B494018806B002811D1C42033
:1028B00020F0DCFD8A4908606946897B5422514337
:1028C000744A891808463430C4228549096815F0CD
:1028D000A8FA6846807B542148436E494018406CF2
:1028E000002813D1FF20F53020F0C0FD7D4908609D
:1028F0006946897B54225143664A8918084640300C
:10290000FF22F5327749096815F08BFA6846807B1B
:10291000012824D1801E00906A460190917B0A46CE
:1029200054235A435B4BD0180323022214F081FC3A
:102930000020009001906A460290917B54225143FE
:10294000544A881800234B22D201022114F0B8FC0B
:1029500027E011E23EE0C0E13EE298E1D4E06846C3
:10296000807B00281DD1401E00906A460190917B1B
:102970000A4654235A43474BD0180A23092214F01D
:1029800058FC0020009001906A460290917B5422EE
:102990005143404A8818002350490A68022114F024
:1029A0008FFC01216846807B54225043394A8018AD
:1029B000417000216846807B54225043354A80187C
:1029C000403001743E480068012802D146A0FFF75C
:1029D00007FF02E26946897B542251432D4A881839
:1029E00014F01EFD6946887B54214843294940184C
:1029F000806B002810D06946897B54225143254AB8
:102A00008918886B20F0BBFD00226946887B542121
:102A100048432049401882636846807B54214843DC
:102A20001C494018406C002810D06946897B54220C
:102A30005143184A8918486C20F0A1FD00226946CC
:102A4000887B54214843134940184264002168465A
:102A5000807B542250430F4A8018417019480078F7
:102A600000280FD000200221034602460091019069
:102A70000A21194813F090FC224B0222012116482A
:102A800013F034FD00200D4908600D490860A4E1F1
:102A9000A0000020C00600200D0A456E746572205B
:102AA000506F77657220536176696E67204D6F6451
:102AB00065210D0A0D0A000000ED00E0A4000020D1
:102AC000A8000020B4000020EF260008180600200F
:102AD0006C060020B727000868070020B00000201F
:102AE000980000209C0000200D0A45786974205051
:102AF0006F77657220536176696E67204D6F6465EC
:102B0000210D0A005927000869460C7CB34800686B
:102B1000FFF767FD6946897B54225143B04A891803
:102B20000846403015F0BCF900280AD16946897B77
:102B300054225143AA4A891808464030214615F0CC
:102B400076F96846807B54214843A54940184030B7
:102B5000007C01285FD1082C01D07F2C3BD1694635
:102B6000897B542251439E4A89180846403015F00B
:102B70007DF96946897B54225143994A8918084650
:102B8000403015F084F9002845D16946897B5422EC
:102B90005143934A89180846403015F067F9694651
:102BA000897B542251438E4A8818082114F09EFCD8
:102BB0006946897B54225143894A8818202114F0A0
:102BC00095FC6946897B54225143854A881808211F
:102BD00014F08CFC1FE00A2C01D00D2C12D1694698
:102BE000897B542251437E4A88180A2114F07EFCC6
:102BF0006946897B54225143794A88180D2114F083
:102C000075FC08E06946897B54225143744A881850
:102C1000214614F06BFC0A2C01D00D2C36D1002576
:102C2000FF20F63020F022FC0090FF21F6310098C2
:102C300023F056FA0DE06946897B54225143684AD5
:102C400089180846403015F0FEF800994855681C70
:102C500085B26946897B54225143614A89180846E6
:102C6000403015F014F90028E5D0002D0ADD681E6B
:102C700080B2054601906846817B01726946012059
:102C8000FDF74AFC009820F07AFC00BFA5E06946F9
:102C9000897B54225143524A89180846343015F032
:102CA000F6F8002814D16946897B542251434C4AD6
:102CB00089180846343015F0C6F804466946897B01
:102CC00054225143464A8818214614F0F3FB03E08E
:102CD00000210220FDF720FC7FE06846807B542124
:102CE00048433F4940184078012834D100240DE082
:102CF000049A115D6A46927B54235A43384BD2188A
:102D00001046343015F093F8601CC4B203A8007A62
:102D1000A042EDDC6946897B54225143304A891830
:102D20000846343015F0B3F8002814D16946897B81
:102D3000542251432A4A89180846343015F083F842
:102D400005466946897B54225143254A88182946FD
:102D500014F0B0FB00BF049820F011FC3DE001200E
:102D60002049087001216846807B542250431C4A48
:102D700080184030017430E000201A4908700021AA
:102D80006846807B54225043154A801840300174B5
:102D900023E0154A00210846FFF754FC114800784B
:102DA000002805D0002211460320FFF74BFC04E069
:102DB000002211460420FFF745FC0C4800787D22D4
:102DC000D200504301460A4B002204480068FFF736
:102DD00067FB0249086000E000BF34E5A400002062
:102DE000C0060020AC000020B0000020B40000208D
:102DF000EF26000807B56846C088F949C88000205A
:102E000048816846008908810521F548401C23F067
:102E100067F9042200A90131F148401C23F0FAF8B7
:102E20000EBD10B5EF48806A002805D0ED49886ACC
:102E3000FFF782FBEB49886210BD0EB5EA48407A85
:102E4000002803D1E94814F0E3FD02E0E84814F05B
:102E5000DFFDE548807A012805D1E348407A002863
:102E600001D1FFF78CFC0121E2A003F01CFE002041
:102E700069460870DC48C07D042807D0DA48C07D68
:102E8000082803D0D848C07D092804D1DA48407802
:102E90006946087103E0D948407869460871684678
:102EA0001CF0E1FB0EBD7047F0B5A7B006463446F6
:102EB0002088002804D0012844D003287BD163E077
:102EC0006068072802D00A2839D12CE00020C549C3
:102ED000C861012020A9087424A81CF03FFB054606
:102EE000002D17D120A8007D012810D1FFF73FF950
:102EF000C3A0FFF775FCBC48407A002803D1BB484B
:102F000014F086FD0EE0BA4814F082FD0AE005F0E8
:102F10000DFF07E0C14B0022C1490720FFF7C0FAAF
:102F2000B049C8610CE0FF20073020A9888000204C
:102F3000AC49886221A90320FDF7EEFA00E000BF4A
:102F400000BF00E2A568002025902690681C20F0B4
:102F50008DFA0746691C384623F0C2F82A463846DF
:102F6000616823F057F8606820F009FB269720A8D5
:102F7000C58200218182002D02D025A814F0A2FD77
:102F8000384620F0FCFADEE11822211D21A8FDF7C9
:102F90003BF920A88188FF220332881A91425BD036
:102FA0000FDC092942D007DC002911D001292ED0DD
:102FB000022911D11FE0C5E10F293BD01129F8D119
:102FC00043E0030025F03DFE06087D498ED7D60874
:102FD00094480078002800D100E105F068FD92A037
:102FE000FFF7FEFB002194A003F05DFD012181A00D
:102FF00003F059FDF2E091A0FFF7F2FB00218EA053
:1030000003F051FD01217BA003F04DFDE6E022A875
:1030100005F077FD21A8C068002806D021A9C8685E
:1030200020F0ADFA002121A8C160D7E088A0FFF709
:10303000D7FBD3E0FFF79BF871A0FFF7D1FB01208E
:1030400078490870072027B0F0BD87A0FFF7C8FBBC
:10305000002074490870C1E000BF6148C0880028A2
:1030600006D18FA0FFF7BCFB002005F0D2FDB5E034
:103070005B48C088401E5A49C88000201E901F909F
:1030800020900846C088002808D193A000681E90B0
:103090000422491C1FA822F0BDFF08E090A0006890
:1030A0001E9004224E49491C1FA822F0B3FF202085
:1030B00018A908751EA81C901CA98B4815F0E4FFE0
:1030C0008CE0002046494881084600897D22D200D4
:1030D00050430146514B00220A20FFF7E1F94149D4
:1030E00088627BE021A8C56804223D49491C281D4F
:1030F00022F034FF002803D0284620F040FA6DE08B
:10310000042277A1284622F029FF002805D134485F
:103110004089401C3249488114E004226EA12846AF
:1031200022F01CFF00280DD12D484089401C2C495D
:103130004881FF20083010A9888113A90320FDF7DA
:10314000EBF900BF284620F01AFA20A90823CB5635
:1031500021A80622825E65A119A822F0B1FC2049AF
:1031600048890A2123F044F8002902D119A8FFF761
:1031700037FB33E000BF20A88088FF210731884259
:1031800007D11748038942895EA101A822F098FC63
:1031900018E01449886AFFF708FA07467D21C9003C
:1031A00023F01CF80E4909890D1A0D4842892B4657
:1031B000634901A822F084FC0A49886AFFF7BCF938
:1031C0000849886201A8FFF70BFB00216120C000BD
:1031D00015F05AFF002005F01CFD00BF00BFB2E053
:1031E0000808002080040020D00A0020749E0208F5
:1031F0003CA0020850413300400F0020B80C0020D2
:103200004F7665722D7468652D4169722041637433
:1032100069766174696F6E0D0A0000007F06000810
:1032200010270000E2000020526164696F2054788A
:1032300020446F6E650D0A0050413200526164698E
:103240006F2054782054696D656F75740D0A000005
:10325000526164696F2054782052656365697665B0
:10326000642041636B0D0A005374617274204A6FCD
:10327000696E206E6574776F726B3A204F544141CE
:103280002C20506C65617365207761697420666FCE
:10329000722061637469766174696E670D0A00005B
:1032A0005061636B65747320616C72656164792031
:1032B0007472616E736D69747465642C206E6F77BF
:1032C000206C656176696E672054585050206D6F90
:1032D00064652E0A0D000000444F4E4500000000BA
:1032E00050494E4700000000060300005253534966
:1032F000203D202534642C20534E52203D2025347F
:10330000640A0D002564207061636B65747320721C
:103310006563656976656420696E20256420736540
:10332000636F6E64732C206E6F77206C65617669B5
:103330006E672054585050206D6F64652E0A0D0042
:1033400074BD020800BF00BF0B207CE600BF00BFB9
:1033500000BFBFF34F8F00BF00BF00BFF948FA495D
:10336000C86000BF00BF00BFBFF34F8F00BF00BFEA
:1033700000BF00BF00BFFDE7F0B595B005460026D1
:10338000284614F012FC0746022F04D0032F10D059
:10339000042F6DD109E0ED48427AEDA1684622F094
:1033A0008FFB6846FFF71CFA64E0ECA0FFF718FA01
:1033B00060E00A2214A9284614F08EFC0446012C71
:1033C00001D0012656E010A8007C002830D1DF484B
:1033D000407A01282CD10020DC4948720846807DC3
:1033E000002807D1E1480068002803D1E04814F024
:1033F0000FFB3CE0D548807D012815D1D3485B30D8
:1034000022F08AFD00280BD0D048643022F084FDE1
:10341000002805D0CD48853022F07EFD002803D15C
:10342000D34814F0F5FA22E0D24814F0F1FA1EE085
:1034300010A8007C012818D1102210A9284614F0E9
:103440009DFC0446012C06D1102210A9CA4822F086
:1034500085FD002801D001260CE010A8007CBB49A6
:103460004872C64814F0D4FA01E0012602E001E0F7
:10347000012600BF00BF304615B0F0BDF0B595B0D5
:1034800004460025204614F090FB0646022E04D088
:10349000032E0FD0042E2BD108E0B74AB8A101A803
:1034A00022F00EFB01A8FFF79BF923E0B8A0FFF77D
:1034B00097F91FE0102211A9204614F03AFC0746A4
:1034C000012F09D111A822F027FD102804D811A836
:1034D00022F022FD082801D201250BE01021A64888
:1034E00022F0FEFD102211A9A34822F093FD01E075
:1034F000012500BF00BF284615B0F0BDF0B595B05E
:1035000005460026284614F050FB0746022F04D03B
:10351000032F10D0042F35D109E08C48027AACA1DA
:1035200001A822F0CDFA01A8FFF75AF92CE0ABA0D0
:10353000FFF756F928E06888092803D001263046AD
:1035400015B0F0BD0A2214A9284614F0C5FB0446A4
:10355000012C15D11498022812D27C4914980872B3
:103560000846007A002805D1002211460420FFF702
:1035700069F806E0002211460320FFF763F800E037
:10358000012601E0012600BF00BF3046D8E7F0B5B4
:1035900095B005460026284614F007FB0746022F83
:1035A00004D0032F10D0042F30D109E08F48C27906
:1035B0008FA101A822F084FA01A8FFF711F927E0F2
:1035C0008EA0FFF70DF923E06888092803D00126B3
:1035D000304615B0F0BD0A2214A9284614F07CFB31
:1035E0000446012C10D1149802280DD27F4914985A
:1035F000C8710846C079002802D112F07EFD04E0AF
:10360000012012F07AFD00E0012601E0012600BF52
:1036100000BF3046DDE700B501460B0025F011FB89
:10362000061404070A0D10134B20C00100BD4B20E7
:103630000002FBE74B204002F8E7E1200002F5E73B
:10364000E1204002F2E700BF4B20C001EEE7F0B5F9
:1036500095B00546002014900026284614F0A5FADF
:103660000746022F04D0032F10D0042F3CD109E0CD
:103670003648C27965A1684622F022FA6846FFF70B
:10368000AFF833E064A0FFF7ABF82FE00A2214A9EB
:10369000284614F021FB0446012C02D11498052879
:1036A00001D9012622E029491498C871C879FFF789
:1036B000B2FF1390002211460120FEF7C3FF13AAA8
:1036C00000210846FEF7BEFF2048007A002805D1F9
:1036D000002211460420FEF7B5FF04E00022114647
:1036E0000320FEF7AFFF01E0012600BF00BF304618
:1036F00015B0F0BD70B596B004460025204614F014
:1037000054FA0646022E13D0042E1AD10F48407ADE
:10371000002801D10125BBE043A048A34AA24DA146
:10372000009002A822F0CCF902A8FFF759F8AFE008
:10373000514A52A102A822F0C3F902A8FFF750F89B
:10374000A6E0A3E00400FA0500ED00E0D00A0020A6
:103750002B4741444D3A25640D0A00002B47414454
:103760004D3D3C302D313E0D0A000000200100206F
:1037700078A3020830A50208BE0A0020F8A60208B5
:103780002B474350573A222573220D0A00000000B0
:103790002B474350573D2250617373776F726420FB
:1037A0006C656E677468206D757374206265206D3A
:1037B0006F7265207468616E203720616E64206CC2
:1037C000657373207468616E203136220D0A000023
:1037D0002B4543484F3A25640D0A00002B454348CA
:1037E0004F3D3C302D313E0D0A000000780B00208B
:1037F0002B435041453A25640D0A00002B435041AC
:10380000453D3C302D313E0D0A0000002B4942520F
:103810003A25640D0A0000002B4942523D3C302DF0
:10382000353E0D0A000000004F6E204C4F575F5090
:103830004F5745525F4D4F444500000031303A33F9
:10384000333A3535000000004175672032392032A7
:10385000303138002B52656C6561736520446174AA
:10386000653A2025732C2054696D653A2025730D27
:103870000A25730D0A00000064A202082B53474D6D
:10388000523A222573220D0A00000000012500BFD4
:1038900000BF284616B070BD70B594B00446002530
:1038A000204614F082F90646022E08D1F74AF8A104
:1038B000684622F005F96846FEF792FF01E001250F
:1038C00000BF00BF284614B070BD70B594B0044668
:1038D0000025204614F069F90646022E08D1F04A68
:1038E000F0A1684622F0ECF86846FEF779FF01E0A7
:1038F000012500BF00BF284614B070BD70B594B05C
:1039000004460025204614F050F90646022E08D140
:10391000E84AE9A1684622F0D3F86846FEF760FF5E
:1039200001E0012500BF00BF284614B070BD70B58E
:1039300094B004460025204614F037F90646022EBE
:1039400002D0042E10D10BE0D04B603B1A4610324F
:10395000DDA1684622F0B4F86846FEF741FF05E0B5
:10396000DEA0FEF73DFF01E0012500BF00BF2846B5
:1039700014B070BDF0B595B005460026284614F089
:1039800014F90746022F04D0032F11D0042F41D180
:103990000AE0DD48438A828ADCA101A822F090F87F
:1039A00001A8FEF71DFF37E0DCA0FEF719FF33E0AA
:1039B0000A2213A9284614F08FF90446012C05D1D8
:1039C00010A880892D214901884201DD012623E0CC
:1039D0000A2214A9284614F07FF90446012C12D1BA
:1039E00010A8008AFF216E31884201DD012613E014
:1039F00010A88089002806D110A8008AC2494882F0
:103A00000020888208E00020BF49488210A88089F1
:103A1000888201E0012600BF00BF304615B0F0BD2E
:103A2000F0B595B004460025204614F0BEF80646D1
:103A3000022E04D0032E10D0042E21D109E0B2486A
:103A4000827BC4A101A822F03BF801A8FEF7C8FEC2
:103A500018E0C3A0FEF7C4FE14E00A2214A9204611
:103A600014F03AF90746012F03D110A8007C012871
:103A700001DD012506E010A8007CA349887301E060
:103A8000012500BF00BF284615B0F0BDF1B588B0D4
:103A9000002006900590049011F048FF089811F05E
:103AA00063FF0590B24811F05FFF0490049823F083
:103AB000D6F801910090059823F0D1F80446AD4A5C
:103AC000AD4B23F011F90646019B009A22F020FE2F
:103AD0000391029022F032FC0690A849069825F046
:103AE000E1FB044623F04EFAC0B209B0F0BD70B558
:103AF00086B0054600240AE006216143A04A8818E2
:103B0000294622F027FB002800D102E0641C0F2C7C
:103B1000F2D300BF0F2C06D006206043984940180E
:103B20004079002802D1022006B070BD0020022199
:103B30000091019006206043914A8018052141566A
:103B400000231A4603A812F027FC03A812F07CFDFC
:103B5000C6B200200090019006206043884A801879
:103B6000052141560023032203A812F015FC30461C
:103B7000DAE7F1B59EB000201D901E9814F015F8FC
:103B80001C901C98022802D0042842D13DE07D48B8
:103B9000FFF77CFF04467C48FFF778FF05467BA0D3
:103BA000FFF7A5FF06467BA0FFF7A1FF07467BA016
:103BB000FFF79DFF07907AA0FFF799FF069079A085
:103BC000FFF795FF019702960395049405900798D7
:103BD000009075A108A8069B059A21F071FF08A81E
:103BE000FEF7FEFD4848807A01280DD14648407A0C
:103BF000002809D1022103460246009101901721B5
:103C000005A812F0C9FB00BF06E06F48FEF7E8FD0B
:103C100002E001201D9000BF00BF1D981FB0F0BD45
:103C2000F0B595B004460025204613F0BEFF0646C9
:103C3000022E04D0032E10D0042E25D109E06348B3
:103C4000027A63A101A821F03BFF01A8FEF7C8FD9D
:103C5000DAE063A0FEF7C4FDD6E00A2214A92046EC
:103C600014F03AF80746012F03D110A8007CFF2872
:103C700001DD0125C8E010A8007C002805D12249FB
:103C8000887252490872BCE0BCE0B3E0A70A002089
:103C90002B534C4D523A222573220D0A000000008E
:103CA0007CA202082B53474D493A222573220D0A64
:103CB0000000000077A202082B53474D4D3A222501
:103CC00073220D0A000000002B53474D443A222571
:103CD00073222C222573220D0A0000002B53474D1E
:103CE000443D224D41433A6C656E677468206973A8
:103CF0002038222C22534E3A6C656E677468206916
:103D000073203133220D0A00D00A00202B5354496E
:103D10004D45523A25642C25640D0A002B53544915
:103D20004D45523D3C76616C206F66206D696E7525
:103D30007465733A20312D313434303E2C3C766139
:103D40006C206F6620646179733A312D3336353ECD
:103D50000D0A00002B534952513A25640D0A000008
:103D60002B534952513D3C302D313E0D0A0000008D
:103D70000000024451DA1B7C6132F33F0000204115
:103D80001BA3020800020024000100205041313230
:103D90000000000050413131000000005042380066
:103DA00050423700504236002B534750494F3A2576
:103DB000642C25642C25642C25642C25642C256416
:103DC0002C25640D0A00000028BE0208780B002094
:103DD0002B5350574D4F443A25640D0A0000000004
:103DE0002B5350574D4F443D3C302D3235353E0D11
:103DF0000A0000000120FD49887210A8007CFC49DF
:103E0000087201E0012500BF00BF284615B0F0BDD3
:103E100070B596B004460025204613F0C6FE06464F
:103E2000022E2DD100200190F048807D002807D17E
:103E3000F0480068020EF0A102A821F041FE1BE04C
:103E4000EA48807D01280CD1E8484330027E69466B
:103E50000A71407E487101AAEBA102A821F030FE50
:103E60000AE0ED48C27D69460A71007E487101AAE8
:103E7000E5A102A821F024FE02A8FEF7B1FC01E0B2
:103E8000012500BF00BF284616B070BD70B594B0C4
:103E900004460025204613F088FE0646022E09D16E
:103EA000DD4A6232DDA1684621F00AFE6846FEF76F
:103EB00097FC01E0012500BF00BF284614B070BD8B
:103EC000F1B586B000200590069813F06EFE0490C0
:103ED0000498022870D1D44B1A681B1D0BCB01AC7F
:103EE0000BC4009200266846FEF7ECFBCF481DF09D
:103EF00078F8BE48C07D042807D0BC48C07D08289B
:103F000003D0BA48C07D092854D1B848C07D0428E0
:103F100003D0B648C07D082801D1482500E06025BF
:103F2000002444E0E217120F121912115300C04A84
:103F3000D25A2046E3171B0F1B181B111B01E71A4F
:103F40000123BB401A40002A00D12FE0002020F0BE
:103F50000CFAE200B5490C31885820F071FA1221B0
:103F60000E2020F05DF90221122020F059F90221E3
:103F7000132020F055F9052020F0D7F902201EF07B
:103F8000B2FA002020F012FB064620F006FB0020CB
:103F9000009001900290039033462246A5A1684606
:103FA00021F08EFD6846FEF78DFB00BF641CAC421D
:103FB000B8DB45E0002441E043E02046E117090F6B
:103FC000091809110901621A01219140974A8832A2
:103FD00092881140002900D12FE0002020F0C5F97F
:103FE000E20092490C31885820F02AFA12210E2062
:103FF00020F016F90221122020F012F902211320DC
:1040000020F00EF9052020F090F902201EF06BFA46
:10401000002020F0CBFA064620F0BFFA00200090E6
:104020000190029003903346224682A1684621F017
:1040300047FD6846FEF746FB00BF641C102CBCDB46
:1040400002E00120059000BF00BF059807B0F0BD59
:10405000F8B506460C46154600200090002C0AD004
:1040600022466946304621F08DFE009800780028EF
:1040700001D00020F8BD002D06D0304621F04CFFC5
:10408000A84201D00020F5E70120F3E7F0B595B094
:1040900004460025204613F088FD0646022E04D073
:1040A000032E10D0042E26D109E0504A4A3263A1D3
:1040B00001A821F005FD01A8FEF792FB1DE063A019
:1040C000FEF78EFB19E0112210A9204613F056FED0
:1040D0000746012F06D11022114610A8FFF7B8FF9E
:1040E000002801D1012508E0112210A93F484A30DB
:1040F00021F090FF01E0012500BF00BF284615B068
:10410000F0BDF0B595B004460025204613F04DFDF6
:104110000646022E04D0032E10D0042E26D109E02C
:10412000324A183252A101A821F0CAFC01A8FEF7B8
:1041300057FB1DE052A0FEF753FB19E0112210A916
:10414000204613F01BFE0746012F06D11022114610
:1041500010A8FFF77DFF002801D1012508E01122FA
:1041600010A92248183021F055FF01E0012500BFB9
:1041700000BF284615B0F0BDF0B595B00446002547
:10418000204613F012FD0646022E04D0032E1AD04C
:10419000042E29D113E010221449293101A813F06B
:1041A000F8FE102101A814F008FC07463A463DA18C
:1041B00005A821F085FC05A8FEF712FB94E03DA0C0
:1041C000FEF70EFB90E021220CA9204613F0D6FD4D
:1041D0000746012F06D1202210210CA8FFF738FF37
:1041E000002879D101257FE07CE075E0D00A00202D
:1041F000780B0020200100202B435349443A22250C
:10420000303258220D0A00002B435349443A2225EC
:1042100073220D0A00000000400A00202B43504981
:104220004E3A25730D0A000020A90208B00B0020A9
:10423000BC0E002025643A25640D0A002B43415032
:10424000504555493A25730D0A0000002B43415053
:10425000504555493D3C4170704555493A6C656E35
:104260006774682069732031363E0D0A0000000033
:104270002B434445564555493A25730D0A00000025
:104280002B434445564555493D3C44657645554983
:104290003A6C656E6774682069732031363E0D0A8A
:1042A000000000002B434150504B45593A25303215
:1042B000580D0A002B434150504B45593D3C41702D
:1042C000704B65793A6C656E67746820697320334A
:1042D000323E0D0A0000000021220CA9FB4821F00B
:1042E00099FE01E0012500BF00BF284615B0F0BDD2
:1042F000F0B595B005460026284613F056FC074653
:10430000022F04D0032F17D0042F4ED140E0EF48E6
:104310002938807D022805D1ED4AEEA101A821F0BF
:10432000CFFB05E0E94A3232F6A101A821F0C8FB33
:1043300001A8FEF755FA3AE0E4482938807D0228C2
:1043400001D1012633E0092212A9284613F016FDF7
:104350000446012C06D10822102112A8FFF778FE8E
:10436000002801D1012622E0092212A9D7483230C3
:1043700021F050FE2121D5485C3021F0B1FE2121F1
:10438000D2483B3021F0ACFEE948FEF729FA0EE0B6
:10439000CE482938807D022803D1E6A0FEF720FA16
:1043A00002E0EFA0FEF71CFA01E0012600BF00BF0B
:1043B000304615B0F0BD70B594B0044600252046D7
:1043C00013F0F3FB0646022E02D0042E0ED109E0B4
:1043D000EE48EFA10268684621F072FB6846FEF7DE
:1043E000FFF905E0EEA0FEF7FBF901E0012500BFB3
:1043F00000BF284614B070BD10B50124B348293859
:10440000C07D042836D0B1482938C07D062831D077
:10441000AE482938C07D03282CD0AC482938C07D4F
:10442000022827D0A9482938C07D012822D0A748D2
:104430002938C07D07281DD0A4482938C07D082808
:1044400018D0A2482938C07D092813D09F482938A0
:10445000C07D0B280ED09D482938C07D0A2809D080
:104460009A482938C07D0C2804D098482938C07D46
:104470000D2807D13B221201D349D44811F0F1FE97
:10448000044600E00024002C01D1002010BD0120D2
:10449000FCE7F0B585B00446032C77D1CA49087013
:1044A0000021CB4841700320C7490872002723E050
:1044B000384622F0D4FB05460022C64B22F014FCFD
:1044C0000D221207C44B0191009022F0F1F80391E4
:1044D000029022F077FB0246F900BB480C304250B4
:1044E0005022F900081802710122F900B6480C3078
:1044F00008184271781CC7B2032FD9DB03200EE0E5
:104500000022C300B0490C31CA50C30059180A71C7
:10451000C300AD490C3159184A71411CC8B210286A
:10452000EEDB0721AA488038818068482938817DE0
:10453000A748017000214170012181704021C170A4
:10454000202101710121417100218171C17101722C
:1045500001214172052181720121C1720021017383
:104560009E490161002101750521817600210176B6
:104570004176002006E00022830095491C31CA5094
:10458000411CC8B21028F6DB1AE3FFE7042C7DD1EA
:1045900004208D49087000219148417004208A4907
:1045A0000872002723E0384622F059FB0022894B8D
:1045B0000191009022F098FB05460B221207894BCF
:1045C00022F076F80391029022F0FCFA0246F900FC
:1045D0007D480C3042503022F90008180271002248
:1045E000F90079480C3008184271781CC7B2402F86
:1045F000D9DB402724E03846403822F028FB054626
:104600000022794B22F070FB07225207774B019171
:10461000009022F04DF80391029022F0D3FA024666
:10462000F90069480C3042504422F9000818027120
:104630000022F90064480C3008184271781CC7B297
:10464000482FD8DB0021C943654888388180002184
:10465000001D41808180C180018141811B48293832
:10466000817D5F48083801720021083041700121C6
:1046700081704021C170202101710021417181713F
:10468000C171052101720121417200E00FE0052195
:1046900081720121C1720021017355490161082114
:1046A00001750D2181760021017641766CE7062C9B
:1046B0000AD106204449087000214548417006206F
:1046C000414908720027B6E0FAE00000F90A00202C
:1046D000570A00202B43444556414444523A25731F
:1046E000202844657669636520616464726573732C
:1046F000206F662047494F54206D6F6465290D0A6D
:10470000000000002B43444556414444523A25736F
:1047100020284465766963652061646472657373FB
:10472000206F6620414250206D6F6465290D0A009C
:10473000C8BD02082B43444556414444523D3C44C5
:1047400065766963652061646472657373206F6662
:104750002047494F54206D6F64653E0D0A000000EC
:104760002B43444556414444523D3C44657669637D
:10477000652061646472657373206F6620414250E6
:10478000206D6F64653E0D0A0000000020010020CE
:104790002B434445564D493A253038580D0A000000
:1047A0002B434445564D493D3C446576696365203D
:1047B00061646472657373206F66204F54414120B9
:1047C0006D6F64653E0D0A00B00B00200002080802
:1047D000B80C0020006A084113DFC94108E6D33352
:1047E000400F002000E4CA41006A384157E9CA413D
:1047F000A0700837384622F032FA05460022F94BFD
:1048000022F072FA0022F84B0191009021F050FF43
:104810000391029022F0D6F90246F900F348425083
:104820005022F900081802710022F900EF48081818
:104830004271781CC7B2022FDCDB02200CE00022A0
:10484000C300EA49CA50C30059180A71C300E749B6
:1048500059184A71411CC8B21028F0DB0321E34803
:104860007C308180E248817DE048FC30017000218D
:104870004170012181704021C1702021017100210E
:1048800041718171C17101720121417205218172F1
:104890000121C17200210173D64901610221017514
:1048A00005218176002101764176002005E0002275
:1048B0008300D149CA50411CC8B21028F7DB72E30B
:1048C000072C7DD10720C9490C3908700021CA483E
:1048D0001C3841700720C5490C390872002721E0B7
:1048E000384622F0BCF905460022C44B22F0FCF900
:1048F0003D229206C24B0191009021F0D9FE039116
:10490000029022F05FF90246F900B8484250502266
:10491000F900081802710022F900B4480818427121
:10492000781CC7B2082FDBDB082722E0384608389E
:1049300022F08DF905460022B04B22F0D5F9312244
:104940009206B04B0191009021F0B2FE03910290CB
:1049500022F038F90246F900A44842505022F900EA
:10496000081802710022F900A04808184271781C4A
:10497000C7B2102FDADB0021C9439C487C3081800C
:104980009B48817D9C481C380170002141700121A9
:1049900081704021C170202101710021417181711C
:1049A000C171017201214172052181720121C1721F
:1049B00000210173944901610A210175072100E07A
:1049C0000EE08176002101764176002005E000228C
:1049D00083008949CA50411CC8B21028F7DBE2E2C3
:1049E000082C7DD1082081490C39087000218748A6
:1049F000417008207D490C390872002720E03846B4
:104A000022F02DF905460022764B22F06DF90022A6
:104A10007F4B0191009021F04BFE0391029022F018
:104A2000D1F80246F900714842505022F9000818A6
:104A300002710022F9006D4808184271781CC7B253
:104A4000402FDCDB402722E03846403822F0FFF8D8
:104A50000022704B0191009022F046F90546032296
:104A600012076D4B21F024FE0391029022F0AAF868
:104A70000246F9005D4842506622F90008180271AA
:104A80000022F900594808184271781CC7B2482F13
:104A9000DADB0021C9435D48883881800021001D90
:104AA00041808180C180018141815148817D574889
:104AB00008380172002108304170012181704021C5
:104AC000C17020210171002141718171C1710521E5
:104AD000017201214172052181720121C17200E040
:104AE0000BE0002101734D490161082101750D2181
:104AF000817600210176417655E2092C61D10920A9
:104B00003A490C3908700021404841700920374962
:104B10000C390872002721E0384622F0A0F805463B
:104B20000022304B22F0E0F8032252073C4B019167
:104B3000009021F0BDFD0391029022F043F802465F
:104B4000F9002A4842505022F90008180271002248
:104B5000F900264808184271781CC7B2602FDBDBC9
:104B60000021C9432948883881800021001D4180E7
:104B70008180C180018141811D48817D23480838A1
:104B80000172002108304170012181704021C17003
:104B900020210171002141718171C17101720121D6
:104BA0004172052181720121C172002101731D49E9
:104BB000016100210175062181760021017641768F
:104BC000F1E10A2C7ED10A2008490C390870002135
:104BD00009481C3841700A2004490C390872002722
:104BE00044E00000006A08417583CB41BC0B002003
:104BF000D00A002000EA0637D40C002080840E4141
:104C0000117FCB412492CB41A0443937400F002083
:104C10006C46CB41006A3841C34BCB41A07008378A
:104C20003508BC4120441E1E384622F018F80546BF
:104C30000022FB4B22F058F809221207F94B019190
:104C4000009021F035FD0391029021F0BBFF024658
:104C5000F900F54842505022F9000818027100226C
:104C6000F900F14808184271781CC7B2032FDBDB4A
:104C700003200CE00022C300EB49CA50C3005918BE
:104C80000A71C300E84959184A71411CC8B210287A
:104C9000F0DB0721E4487C308180E448817DE248F4
:104CA000FC300170012181704021C170202101710F
:104CB0000221417100218171C17101720121417292
:104CC000052100E018E081720121C1720021017309
:104CD000D749016100210175042181760021017607
:104CE0004176002005E000228300D249CA50411CD1
:104CF000C8B21028F7DB56E10B2C74D10B20CA493F
:104D00000C3908700021CB481C3841700B20C64973
:104D10000C390872002721E0384621F0A0FF054633
:104D20000022BF4B21F0E0FF09221207C24B019184
:104D3000009021F0BDFC0391029021F043FF024658
:104D4000F900B94842505022F900081802710022B7
:104D5000F900B54808184271781CC7B2032FDBDB95
:104D600003200CE00022C300AF49CA50C300591809
:104D70000A71C300AC4959184A71411CC8B21028C5
:104D8000F0DB0721A8487C308180A848817DA948B4
:104D90001C380170012181704021C17020210171F6
:104DA0000121417100218171C171017201214172A2
:104DB000052181720121C172002101739F490161A6
:104DC00000210175052181760021017641760020C0
:104DD00005E0002283009749CA50411CC8B2102840
:104DE000F7DBE0E0FFE70C2C75D10C208E490C3985
:104DF000087000218F481C3841700C208A490C39FA
:104E00000872002721E0384621F029FF05460022DC
:104E1000834B21F069FF05221207894B0191009015
:104E200021F046FC0391029021F0CCFE0246F900ED
:104E30007D4842505022F900081802710022F90002
:104E4000794808184271781CC7B2022FDBDB0220B8
:104E50000CE00022C3007449CA50C30059180A71FB
:104E6000C300714959184A71411CC8B21028F0DBBF
:104E700003216D487C3081806C48817D6D481C38F1
:104E8000017000214170012181704021C1702021F9
:104E90000171002141718171C17101720121417261
:104EA000052181720121C1720021017365490161EF
:104EB00000210175052181760021017641760020CF
:104EC00005E0002283005B49CA50411CC8B210288B
:104ED000F7DB68E0FFE70D2C65D10D2052490C3956
:104EE0000870002153481C3841700D204E490C3980
:104EF000087255494C480C38C160544941615449C5
:104F0000C16100200BE05022C300474959180A71C3
:104F10000022C300444959184A71411CC8B20328F1
:104F2000F1DB03200CE00022C3003F49CA50C3005C
:104F300059180A71C3003C4959184A71411CC8B23A
:104F40001028F0DB072138487C3081803748817D8C
:104F500038481C38017000214170012181704021C6
:104F6000C17020210171002141718171C1710172F3
:104F700001214172052181720121C1720021017359
:104F800034490161022101750D21817600210176EC
:104F90004176002005E0002283002649CA50411CCA
:104FA000C8B21028F7DB012005B0F0BD10B51F48CE
:104FB000C07D04282BD01D48C07D062827D01B4863
:104FC000C07D032823D01948C07D02281FD0174870
:104FD000C07D01281BD01548C07D072817D0134875
:104FE000C07D082813D01148C07D09280FD00F4874
:104FF000C07D0B280BD00D48C07D0A2807D00B4878
:10500000C07D0C2803D00948C07D0D2826D13B2245
:10501000120105490C39104811F00CF920E000008C
:10502000006A0841107BCB41BC0B0020D00A002055
:10503000E013F336D40C00203C4ACB41E0A09D366F
:105040002EE5C941E069CD3364CE8F3384FE9433BD
:10505000E8E19D33F080A63300020808002010BD6F
:10506000FD48C07DFD490978884208D0FA49C87DCD
:10507000FFF70FFA002800D1F1E7FFF7BDF9012093
:10508000EDE770B504460025204612F08EFD064679
:10509000012E05D0042E19D1F1A0FDF7A1FB17E0D8
:1050A000ED48807D00280CD1F5490860FFF77EFFB0
:1050B000EA4816F0D0FFF34812F0AAFC03F036FEDF
:1050C00003E0F1A0FDF78CFB012501E0012500BF05
:1050D00000BF284670BDF0B595B0044600252046B7
:1050E00012F063FD0646022E04D0032E10D0042ECB
:1050F00032D109E0D848827DEBA101A820F0E0FC84
:1051000001A8FDF76DFB29E0EAA0FDF769FB25E0AA
:105110000A2214A9204612F0DFFD0746012F03D111
:1051200010A8007C022801DD012517E010A8007CF2
:1051300002280CD1E34820F0EFFE002805D0E1481A
:10514000213020F0E9FE002801D1012506E010A859
:10515000007CC149887501E0012500BF00BF2846D9
:1051600015B0F0BDF0B595B004460025204612F00C
:105170001CFD0646022E04D0032E1AD0042E30D178
:1051800013E01022B449853101A812F002FF10216A
:1051900001A813F012FC07463A46CBA105A820F05F
:1051A0008FFC05A8FDF71CFB1DE0CCA0FDF718FB4C
:1051B00019E021220CA9204612F0E0FD0746012F3C
:1051C00006D1202210210CA8FEF742FF002801D1B1
:1051D000012508E021220CA99F48853020F01AFF04
:1051E00001E0012500BF00BF284615B0F0BDF0B5B5
:1051F00095B004460025204612F0D7FC0646022E44
:1052000004D0032E1AD0042E30D113E0102292497C
:10521000643101A812F0BDFE102101A813F0CDFBEE
:1052200007463A46B8A105A820F04AFC05A8FDF7B4
:10523000D7FA1DE0B9A0FDF7D3FA19E021220CA995
:10524000204612F09BFD0746012F06D12022102197
:105250000CA8FEF7FDFE002801D1012508E021225F
:105260000CA97D48643020F0D5FE01E0012500BF87
:1052700000BF284615B0F0BDF0B595B00546002634
:10528000284612F092FC0746022F04D0032F10D0BC
:10529000042F28D109E07048C27AACA101A820F0FF
:1052A0000FFC01A8FDF79CFA1FE0ABA0FDF798FAF0
:1052B0001BE068880A2803D00126304615B0F0BDEF
:1052C0000A2214A9284612F007FD0446012C03D136
:1052D00010A8007C012801DD012606E010A8007C52
:1052E0005D49C87201E0012600BF00BF3046E5E716
:1052F000F0B595B004460025204612F056FC06464F
:10530000022E04D0032E10D0042E22D109E05248E0
:10531000027B95A101A820F0D3FB01A8FDF760FA5C
:1053200019E095A0FDF75CFA15E00A2214A92046C1
:1053300012F0D2FC0746012F05D11498002802D0A4
:105340001498DF2801D9012505E043491498087312
:1053500001E0012500BF00BF284615B0F0BDF0B543
:1053600095B004460025204612F01FFC0646022E8A
:1053700004D0032E11D0042E2DD10AE0364810227D
:10538000825E82A101A820F09BFB01A8FDF728FA0C
:1053900023E081A0FDF724FA1FE00A2214A9204689
:1053A00012F09AFC0746012F0DD110A8008A0028A0
:1053B00009D010A91020085EDF2804DC1020085E48
:1053C000B91E884201DA012507E010A91020085E05
:1053D0002149088201E0012500BF00BF284615B021
:1053E000F0BDF0B597B0054600201690284612F0A3
:1053F000DCFB0646022E2BD16CA102A820F060FB3C
:1054000002A8FDF75FF9502102A820F06BFE1348B7
:105410001BF0E7FD1048C07D042803D00E48C07D76
:10542000082816D10024F7E0E217120F1219121102
:1054300053006A4AD25A2046E3171B0F1B181B1150
:105440001B01E71A0123BB401A40002A02D1E2E007
:1054500050E1E5E0C4E00000D00A0020B00B0020DD
:105460002B434A4F494E3A20446F206A6F696E20A1
:10547000666C6F7720666F72204F5441410D0A00B1
:105480002001002078A30208506C656173652063D9
:1054900068616E6765206D6F646520746F204F547E
:1054A00041410D0A000000002B434D4F44453A2571
:1054B000640D0A002B434D4F44453D3C302D323E98
:1054C0000D0A0000600A00202B43415050534B4509
:1054D000593A253032580D0A000000002B43415044
:1054E00050534B45593D3C4170702073657373694F
:1054F0006F6E206B65793A6C656E677468206973AE
:105500002033323E0D0A00002B434E574B534B4580
:10551000593A253032580D0A000000002B434E57EF
:105520004B534B45593D3C4E6574776F726B2073FE
:10553000657373696F6E206B65793A6C656E67741D
:10554000682069732033323E0D0A00002B43535903
:105550004E433A25640D0A002B4353594E433D3CBC
:10556000302D313E0D0A00002B4341504F52543A2A
:1055700025640D0A000000002B4341504F52543D5A
:105580003C312D3232333E0D0A0000002B434241A4
:10559000503A25640D0A00002B434241503D3C2DFA
:1055A000312C20312D3232333E0D0A002B43514332
:1055B000483A0D0A4368616E6E656C5B695D3A201E
:1055C0004672657175656E63792C20447252616E06
:1055D00067652C2042616E640D0A0000BC0E00203D
:1055E000E100F94808184179E200F7481218042050
:1055F000105601910090E100F34843582246F3A170
:1056000002A820F05DFA02A8FDF75CF8502102A87C
:1056100020F068FD00BF641C482C00DA04E768E055
:10562000F148C07D092834D100242FE0E217120F81
:10563000121912115300ED4AD25A2046E3171B0FDC
:105640001B181B111B01E71A0123BB401A40002A3B
:1056500000D11AE0E100DC4808184179E200DA489C
:1056600012180420105601910090E100D6484358CA
:105670002246D6A102A820F023FA02A8FDF722F8BC
:10568000502102A820F02EFD00BF641C602CCDDB51
:105690002FE000242BE02046E117090F091809111B
:1056A0000901621A01219140C74A7C329288114057
:1056B000002900D11AE0E100C34808184179E2004E
:1056C000C14812180420105601910090E100BE4814
:1056D00043582246BDA102A820F0F2F902A8FCF727
:1056E000F1FF502102A820F0FDFC00BF641C102C2B
:1056F000D1DB02E00120169000BF00BF169817B062
:10570000F0BDF0B595B005460026284612F04DFADA
:105710000746B548C07D042807D0B348C07D082897
:1057200003D0B148C07D092805D1B1A0FDF758F8D4
:10573000002015B0F0BD022F35D1A3480C381BF066
:1057400050FCB2A101A820F0BBF901A8FCF7BAFFF8
:10575000502101A820F0C6FC002421E02046E117DA
:10576000090F091809110901621A01219140964A8D
:105770007C3292881140002900D10FE0A100AC4892
:1057800043582246ABA101A820F09AF901A8FCF7E2
:1057900099FF502101A820F0A5FC00BF601CC4B2F5
:1057A000102CDBDB01E0012600BF00BF3046C0E764
:1057B000F0B595B004460025204612F0F6F90646ED
:1057C000A148C07C002802D1012015B0F0BD022EF6
:1057D00004D0032E10D0042E21D109E08248427B50
:1057E0009AA101A820F06CF901A8FCF7F9FF18E0D4
:1057F00099A0FCF7F5FF14E00A2214A9204612F044
:105800006BFA0746012F03D110A8007C012801DDA7
:10581000012506E010A8007C7349487301E00125CA
:1058200000BF00BF2846D0E7F0B595B0044600257C
:10583000204612F0BAF90646022E04D0032E31D0CB
:10584000042E57D122E060480C381BF0CAFB664892
:10585000C07D042807D06448C07D082803D0624872
:10586000C07D092807D161488430027A7EA101A851
:1058700020F026F906E06E481C38027A7AA101A8C9
:1058800020F01EF901A8FCF7ABFF35E0794803785A
:105890007948027879A101A820F012F901A8FCF753
:1058A0009FFF29E00A2214A9204612F015FA0746A4
:1058B000012F05D16F48007810A9097C884201DAD0
:1058C000012519E04848C07D042807D04648C07D1E
:1058D000082803D04448C07D092805D110A8017CC0
:1058E00042488430017204E010A8017C50481C3802
:1058F000017201E0012500BF00BF284615B0F0BDD0
:1059000010B5AEB0A82104A820F0ECFB04A800213B
:1059100000910B46624A01910290A62132481BF089
:1059200030FDA62204A95F4810F09BFC0446002C21
:1059300001D12EB010BD0120FBE770B504460E4624
:105940001546072D01DA002070BD2946304620F0AB
:10595000C7FB230023F075F90EE6080E141A202663
:105960002C32C8CED4DAE0E605224FA1304620F032
:1059700051FBDEE005224EA1304620F04BFBD8E083
:1059800005224DA1304620F045FBD2E005224CA176
:10599000304620F03FFBCCE006224BA1304620F001
:1059A00039FBC6E005224AA1304620F033FBC0E0B7
:1059B000042249A1304620F02DFBBAE0062248A17E
:1059C000304620F027FBB4E0BC0B00204368616E3A
:1059D0006E656C5B2532645D3A2025642C20255869
:1059E0002C2025640D0A0000D00A0020BC0E0020E7
:1059F0005468697320726567696F6E206E6F7420DA
:105A0000737570706F7274210D0A00002B4351443E
:105A100043483A0D0A4368616E6E656C5B695D3A96
:105A2000204672657175656E63790D0A000000008D
:105A3000D40C00204368616E6E656C5B2532645D3A
:105A40003A2025640D0A0000A00A00202B43525082
:105A5000544D3A25640D0A002B435250544D3D3CA1
:105A6000302D313E0D0A00002B435458503A256426
:105A70000D0A0000ED000020EE0000202B435458DA
:105A8000503D3C547820506F77657220696E646594
:105A9000783E2C205B25642C25645D0D0A000000F7
:105AA000FE00002000010808455534333300000093
:105AB000434E373830000000455538363800000076
:105AC0005553393135000000555339313548000000
:105AD000415339323300000046756C6C0000000001
